:020000040000FA
:1000000049EF2DF0FFFFFFFF00C016F001C015F013
:100010009EAA0BD0010E01014525006E000E46215F
:10002000016E00C045F101C046F19EA217D09E921C
:100030000201455305E04505006E00C045F202D0BF
:100040000A0E456F8A967151455DD8A08A866E5119
:100050006F1104E0010E6E5F000E6F5B16C000F0C2
:1000600015C001F01100060E0D6E0D2EFED700001A
:1000700012000E0E0D6E0D2EFED7000012000AAEFD
:10008000029E000E1200830EC216DCC200F0003683
:100090000090003600900050C212EBDFC282C2A274
:1000A00001D0FDD7C4CF01F0006A00C0DDF201C06D
:1000B000DEF2C3500012000E011200C0DDF201C0DA
:1000C000DEF2000E0014026E0150800B036E000E73
:1000D000031802E1000E021803E00201DD6BDE6B83
:1000E000DDC200F0DEC201F01200000000001200CC
:1000F0000B840BAE83EF00F0010E036E026A016AFF
:10010000006A0A360232FF0E1200026A016A006AB1
:10011000086A036A000E1200A6DF8D88A4DF8D989E
:1001200012000C6A0E6A0250D8A4AAEF00F001C0B7
:1001300002F000C001F0006A0E860250D8A4AAEFB7
:1001400000F001C002F0016A0E960E880250D8B489
:10015000BCEF00F00E50035ED8A4D8A0C1EF00F0B1
:10016000D89002BEC6EF00F0003601360236032EEC
:10017000B1EF00F0C1EF00F0010E0C6EC6DFC9EF69
:1001800000F0020E0C6EB4DFC9EF00F0040E0C6E2E
:1001900076DF12000B1E0A1E091E081E082AD8B49C
:1001A000092AD8B40A2AD8B40B2A12000450085ECF
:1001B0000550D8A0053C095E0650D8A0063C0A5E52
:1001C0000750D8A0073C0B5E0336070E0C6E0334B5
:1001D000083609360A360B36045003A00ED0085EE6
:1001E0000550D8A0053C095E0650D8A0063C0A5E22
:1001F0000750D8A0073C0B5E0DD008260550D8B09C
:10020000053C09260650D8B0063C0A260750D8B04F
:10021000073C0B2603360C2EDAD702340836093693
:100220000A360B36045003A00ED0085E0550D8A045
:10023000053C095E0650D8A0063C0A5E0750D8A0CF
:10024000073C0B5E0DD008260550D8B0053C0926AA
:100250000650D8B0063C0A260750D8B0073C0B26FB
:100260000236070E0C6E0234083609360A360B3693
:10027000045002A00ED0085E0550D8A0053C095ECF
:100280000650D8A0063C0A5E0750D8A0073C0B5E7B
:100290000DD008260550D8B0053C09260650D8B028
:1002A000063C0A260750D8B0073C0B2602360C2E17
:1002B000DAD70134083609360A360B36045002A064
:1002C0000ED0085E0550D8A0053C095E0650D8A0A7
:1002D000063C0A5E0750D8A0073C0B5E0DD00826EE
:1002E0000550D8B0053C09260650D8B0063C0A2671
:1002F0000750D8B0073C0B260136070E0C6E0134B0
:10030000083609360A360B36045001A00ED0085EB6
:100310000550D8A0053C095E0650D8A0063C0A5EF0
:100320000750D8A0073C0B5E0DD008260550D8B06A
:10033000053C09260650D8B0063C0A260750D8B01E
:10034000073C0B2601360C2EDAD700340836093666
:100350000A360B36045001A00ED0085E0550D8A016
:10036000053C095E0650D8A0063C0A5E0750D8A09E
:10037000073C0B5E0DD008260550D8B0053C092679
:100380000650D8B0063C0A260750D8B0073C0B26CA
:100390000036070E0C6E0034083609360A360B3666
:1003A000045000A00ED0085E0550D8A0053C095EA0
:1003B0000650D8A0063C0A5E0750D8A0073C0B5E4A
:1003C0000DD008260550D8B0053C09260650D8B0F7
:1003D000063C0A260750D8B0073C0B2600360C2EE8
:1003E000DAD700B00ED0045008260550D8B0053C2E
:1003F00009260650D8B0063C0A260750D8B0073C5C
:100400000B261200020E0C6E490E0D6E0D2EFED73D
:100410000C2EFCD70000000012000B6A0B86FF0EAA
:1004200012000B820BAE1BEF02F00368026801683A
:1004300000680A360232FF0E1200C7B409D01F0E40
:10044000C514016E0150000A03E1010E006E01D0D7
:10045000006A12000B800BAE36EF02F0026A0AAEA1
:10046000FF0E026E016E006E0A360232FF0E12009F
:10047000F250026EF29E0500FF6A0150FE6E0050BF
:10048000FD6E02BEF28E12007F0E0201DB15016EC0
:1004900001C0DBF201AC03D08A8A8A9802D08A9A22
:1004A0008A8812000D0E0C6EFB0E0D6E0D2EFED7FF
:1004B0000C2EFCD70000000012008D988D8E8D9CB4
:1004C000DBC283FF29DE1200FF0E956E0EDE0DDE0D
:1004D0008D8E8D988D8C8D88C6DD83CFDBF28D98C7
:1004E0008D9C03DE02DE956ADBC200F012007F0EF7
:1004F0000201DB15006E00C0DBF28D9E8D9CBF0EED
:10050000001600C0DBF2008C00C0DBF200C083FFED
:1005100003DE12000B6A0A6A096A00500402F4CF73
:1005200009F0F3CF08F001500502F4CF0BF0F3CF40
:100530000AF000500502F3500926F4500A22E86A36
:100540000B2201500402F3500926F4500A22E86AF3
:100550000B2208C000F009C001F00AC002F00BC075
:1005600003F01200030E0C6E970E0D6E0D2EFED7CB
:100570000C2EFCD70000000012008D9E8D9CB80E42
:100580000201DB11836EC8DD12000201D35107089E
:1005900001E282D07251D15D006E73C201F0000E93
:1005A00001567BC204F0000E056EB4DF00C0D9F224
:1005B00001C0DAF2D2C2DBF29ADFD3C2DBF2DDDFB6
:1005C000D56B7B51D55D49E2D2517F0801E264D001
:1005D000D2C2DBF259DFD3C2DBF2CFDFD2C2DBF211
:1005E00086DF72DF00C0D6F26FDF00C0D6F2D2C263
:1005F000DBF24ADFD3C2DBF2C0DFD2C2DBF277DF4D
:10060000D9517825F66EDA517921F76E000EDABFEE
:10061000FF0E7A21F86E0900F5CF00F000C0D7F286
:10062000D94BDA2B001CD86F09D0D8C2D6F20FD024
:10063000D7C2D6F20CD0D751D61B09D0D451000A5C
:10064000F4E0D451010AF4E0D451020AF4E0D6C235
:10065000DBF233DFD22BD52BB4D7D2C2DBF214DFDF
:10066000D3C2DBF28ADFD2C2DBF241DFFF0ED76FEB
:10067000D86B0CD0D7C2D6F2D7C2DBF21EDF0CD0BB
:10068000D8C2D6F2D8C2DBF218DF06D0D451000AA5
:10069000F1E0D451010AF4E012009E96C5869EB6A0
:1006A00001D0FDD7C9CF01F00201D151000A02E10A
:1006B000C58A01D0C59A9E96C5889EB601D0FDD741
:1006C00001C000F012000050086E0150006E016A77
:1006D000026A036A0B6A0C6A960E036E0A6A00C00D
:1006E00001F008C000F0086A026A1BDD1200C58430
:1006F000120089988B82000E0201471902E1800ED8
:10070000461908E1000E4C1902E1400E4B1902E1B6
:1007100079DE01D0C7DE76C2E1FF77C2E2FF51C2C7
:10072000E6FF74C200F075C201F0A2DE1200220ED4
:100730000C6E086A096A0A6A0B6A0C06D8B41FD0E4
:10074000D8900B320A3209320832033202320132B7
:100750000032D8A0F2D70C06D8B409D0045008262D
:100760000550092206500A2207500B22EAD70450EE
:1007700008260550092206500A2207500B221200B3
:1007800089888B92000E0201471902E1800E4619FA
:1007900008E1000E4C1902E1400E4B1902E132DE75
:1007A00001D080DE76C2E1FF77C2E2FF48C2E6FFF9
:1007B00074C200F075C201F05BDE120089888B9272
:1007C00071DE76C2E1FF77C2E2FF48C2E6FF74C283
:1007D00000F075C201F04CDE120089988B8262DE57
:1007E00076C2E1FF77C2E2FF51C2E6FF74C200F0B9
:1007F00075C201F03DDE12009E96D1C2C9FFC7A4AA
:1008000001D0FDD79EB601D0FDD7C5BC02D0006A8D
:1008100003D0C584020E006E1200C582C5A201D0AD
:10082000FDD7120089988B923DDE76C2E1FF77C238
:10083000E2FF51C2E6FF74C200F075C201F018DE9B
:10084000015002014E5D02E100504D5D010ED8B035
:10085000000ED16F87DE86DE76C2E1FF77C2E2FF4F
:1008600051C2E6FF74C200F075C201F001DE015012
:1008700002014E5D02E100504D5D010ED8B0000E48
:10088000026E0250D115006E00C0D1F21200045069
:10089000000A12E10550000A0FE10650000A0CE1BF
:1008A0000750000A09E1FF0E006EFF0E016EFF0EF9
:1008B000026E7F0E036E98D00C6A07BE0C2A0D6A7A
:1008C0000B6A0A6A096A086A0350021001100010D4
:1008D000D8B484D0035007180E6E0EBE0D1E07AE9E
:1008E0000BD0041E051E061E071E042AD8B4052AB6
:1008F000D8B4062AD8B4072A03AE0BD0001E011EB6
:10090000021E031E002AD8B4012AD8B4022AD8B481
:10091000032A035007100E6E0EBE1CD047DC0CBE1F
:1009200036D00DAE5BD0001E011E021E031E002A33
:10093000D8B4012AD8B4022AD8B4032A081E091E42
:100940000A1E0B1E082AD8B4092AD8B40A2AD8B419
:100950000B2A44D007AE15D003BE0DD003500B6E4A
:1009600002500A6E0150096E0050086E036A026A56
:10097000016A006AD6D7036A026A016A006A002A1D
:10098000000C031E021E011E001E0C8EC7D7082A73
:10099000D8B4092AD8B40A2AD8B40B2A0450085C5F
:1009A000D8A4BFD70550095CD8A4BBD706500A5CB1
:1009B000D8A4B7D707500B5CD8A4B3D70B6A0A6A80
:1009C000096A086A002AD8B4012AD8B4022AD8B41D
:1009D000032A03AEA6D70E6A0E88FF0C0E6A0CA07F
:1009E00002D0CAEC00F0000F12000201D16BD26BF2
:1009F000D251120802E1D1518E0808E31EDD0052E7
:100A000001E004D00201D14BD22BF2D70201120E29
:100A1000D25D02E18F0ED15D03E37B0E006E05D047
:100A2000C580C5A001D0FDD7006A1200016A026A24
:100A30000201D551025C02E1D451015C0BE201508C
:100A4000D125E16E0250D221E26ED3C2E6FF014A07
:100A5000022AEED712000B6A0A6A096A086A0E6A4D
:100A6000033408360450085E0550D8A0053C095EE2
:100A70000650D8A0063C0A5E0750D8A0073C0B5E83
:100A8000E86AD8A0010E0E5E0336070E0C6E033422
:100A9000083609360A360B360E36045003A012D03B
:100AA000085E0550D8A0053C095E0650D8A0063C5B
:100AB0000A5E0750D8A0073C0B5EE86AD8A0010E7A
:100AC0000E5E11D008260550D8B0053C0926065008
:100AD000D8B0063C0A260750D8B0073C0B26E86A77
:100AE000D8B0010E0E2603360C2ED1D702340836AC
:100AF00009360A360B360E36045003A012D0085EB3
:100B00000550D8A0053C095E0650D8A0063C0A5EF8
:100B10000750D8A0073C0B5EE86AD8A0010E0E5E15
:100B200011D008260550D8B0053C09260650D8B08B
:100B3000063C0A260750D8B0073C0B26E86AD8B016
:100B4000010E0E260236070E0C6E023408360936E8
:100B50000A360B360E36045002A012D0085E05503D
:100B6000D8A0053C095E0650D8A0063C0A5E075096
:100B7000D8A0073C0B5EE86AD8A0010E0E5E11D02B
:100B800008260550D8B0053C09260650D8B0063CCA
:100B90000A260750D8B0073C0B26E86AD8B0010EE9
:100BA0000E2602360C2ED1D70134083609360A3605
:100BB0000B360E36045002A012D0085E0550D8A0A5
:100BC000053C095E0650D8A0063C0A5E0750D8A036
:100BD000073C0B5EE86AD8A0010E0E5E11D0082615
:100BE0000550D8B0053C09260650D8B0063C0A2668
:100BF0000750D8B0073C0B26E86AD8B0010E0E2685
:100C00000136070E0C6E0134083609360A360B36EB
:100C10000E36045001A012D0085E0550D8A0053C45
:100C2000095E0650D8A0063C0A5E0750D8A0073CD3
:100C30000B5EE86AD8A0010E0E5E11D008260550A2
:100C4000D8B0053C09260650D8B0063C0A26075005
:100C5000D8B0073C0B26E86AD8B0010E0E26013644
:100C60000C2ED1D70034083609360A360B360E362C
:100C7000045001A012D0085E0550D8A0053C095EC2
:100C80000650D8A0063C0A5E0750D8A0073C0B5E71
:100C9000E86AD8A0010E0E5E11D008260550D8B023
:100CA000053C09260650D8B0063C0A260750D8B0A5
:100CB000073C0B26E86AD8B0010E0E260036070E58
:100CC0000C6E0034083609360A360B360E360450E0
:100CD00000A012D0085E0550D8A0053C095E065061
:100CE000D8A0063C0A5E0750D8A0073C0B5EE86A15
:100CF000D8A0010E0E5E11D008260550D8B0053CD4
:100D000009260650D8B0063C0A260750D8B0073C42
:100D10000B26E86AD8B0010E0E2600360C2ED1D76D
:100D200000B00ED0045008260550D8B0053C092666
:100D30000650D8B0063C0A260750D8B0073C0B2610
:100D400012000B6A0C6A0A6A086A0350D8B429EFC9
:100D500007F0028E9E0E035E03BEB4EF06F0D8B419
:100D6000B4EF06F019EF07F0036C080E035CD8A08F
:100D7000E6EF06F0036E083600C008F001C000F090
:100D800002C001F0026A080E035CD8A0E6EF06F08C
:100D9000036E083600C008F001C000F0016A080EBA
:100DA000035CD8A0E6EF06F0036E083600C008F03A
:100DB000006A080E035CD8A0E6EF06F0036E083662
:100DC000086A0350D8A4D890F2EF06F00350D8B4C4
:100DD000F2EF06F0D8900232013200320832032ED0
:100DE000EAEF06F00BBC08A003EF07F0D8A003EF72
:100DF00007F0082AD8B4002AD8B4012AD8B4022AA5
:100E000002BE2DEF07F00AAE29EF07F0021E011E09
:100E1000001E081E082AD8B4002AD8B4012AD8B463
:100E2000022A29EF07F0026A016A006A086A29EFBC
:100E300007F00B800BAE33EF07F0026A0AAE33EF18
:100E400007F0026E016E006E086E0A36023233EF52
:100E500007F0000E0C6A34EF07F0010E0C6E2AEC5E
:100E600002F034EF07F0FF0E0250036E0150026EE5
:100E70000050016E0850006E1200086A096A000EE8
:100E800007620364C2EF07F0025006180A6E0750AB
:100E900003267E0ED8A053EF07F0035ED8B0C7EF4D
:100EA00007F057EF07F0035ED8A0CCEF07F0028EF3
:100EB000068E02C00EF001C00BF000C00DF0005015
:100EC0000402F4CF0CF001500502F4CF00F0F3CF90
:100ED00008F00402F3500C26F4500822000E002201
:100EE0000D500502F3500C26F4500822000E00228B
:100EF00002500402F3500826F4500022025005026A
:100F0000016A000E0122F3500026F45001220D5018
:100F10000602F3500826F4500022026A000E012255
:100F200002220B500602F3500026F4500122000E5C
:100F300002220E500602F3500126F450022202BE95
:100F4000AAEF07F008360036013602360306D8B499
:100F5000CCEF07F0BDEF07F0D880800E08640030BA
:100F6000000E002201220222D8A0BDEF07F00232BB
:100F700001320032034AC7EF07F00AAE029E000EAC
:100F8000CFEF07F0010E85EC00F0CFEF07F0020E77
:100F900011EC02F0CFEF07F0040E78EC00F0120035
:100FA0000450000A12E10550000A0FE10650000A41
:100FB0000CE10750000A09E1FF0E006EFF0E016E02
:100FC0007F0E026EFF0E036EA8D0086A096A0750F2
:100FD000D8B47BEF08F00350D8B480EF08F002508B
:100FE00006180A6E028E068E0E6A02C008F001C054
:100FF0000CF000C00DF004500D5E0550D8A0053C6B
:101000000C5E0650D8A0063C085E086A0C6A0D6AA1
:10101000D8A012EF08F0D890023201320032083224
:10102000010E0E6E0750035ED8A01FEF08F07E0E73
:101030000E240326D8B085EF08F025EF08F07E0EC9
:101040000E240326D8A08AEF08F0180E0B6E0D367A
:101050000C3608360036013602360E360450005E75
:101060000550D8A0053C015E0650D8A0063C025EA3
:1010700006340E120EA040EF08F00D804BEF08F082
:10108000045000260550D8B0053C01260650D8B0C3
:10109000062802260D900B2E27EF08F071EF08F0BE
:1010A000D8900036013602360E360450005E0550E8
:1010B000D8A0053C015E0650D8A0063C025E06346E
:1010C0000E10010B0D26D8B00C2AD8B4082AD8A4CB
:1010D00071EF08F008320C320D32032AD8B485EFD4
:1010E00008F00AAE089E0850026E0C50016E0D50BA
:1010F000006E8DEF08F0010E0DEC02F08DEF08F0A0
:10110000020E85EC00F08DEF08F0040E11EC02F0F9
:101110008DEF08F0080E78EC00F012000B6A0C6AF4
:101120000A6A0350D8B4D8EF08F0028E8E0E035E20
:1011300003BEA0EF08F0D8B4A0EF08F0DCEF08F091
:10114000036C080E035CD8A0B7EF08F0036E0136FD
:1011500002C001F0026A080E035CD8A0B7EF08F0E5
:101160000136016A0350D8A4D890C1EF08F00350AB
:10117000D8B4C1EF08F0D89002320132032EBBEF91
:1011800008F00BBC01A0CEEF08F0D8A0CEEF08F01D
:10119000012AD8B4022A02BEEBEF08F00AAEF1EF42
:1011A00008F0021E011E012AD8B4022AF1EF08F04D
:1011B000026A016AF1EF08F00B800BAEF5EF08F060
:1011C000026A0AAEF5EF08F0FF0E026E016E0A36F3
:1011D0000232F5EF08F0010E0C6E2AEC02F0F7EF88
:1011E00008F0000E0C6EF7EF08F0FF0E0C6E0150C9
:1011F000006E0250016E12000CB03EEF09F00CA21E
:10120000E6EF09F00E6A000E026455EF09F0F00EE9
:101210000214D8A420EF09F0023A01380F0B02267D
:101220000138F00B016E00380F0B01260038F00B6F
:10123000006E08380F0B00260838F00B086E0E847D
:10124000D89002BE39EF09F0083600360136023672
:101250000E2A02BE39EF09F0083600360136023692
:101260000E2A02BE39EF09F0083600360136023682
:101270000E2A0E500364DAEF09F0035E0BBC08AED1
:10128000E0EF09F0D880800E08640030000E0022E4
:1012900001220222D8A0E0EF09F00232013200322E
:1012A000034AE6EF09F0E0EF09F001C002F000C0E8
:1012B00001F008C000F0086A000E0E8602648CEF90
:1012C00009F0F00E0214D8A474EF09F0023A0138C4
:1012D0000F0B02260138F00B016E00380F0B0126B0
:1012E0000038F00B006E0E84D89002BE39EF09F082
:1012F0000036013602360E2A02BE39EF09F00036FA
:10130000013602360E2A02BE39EF09F000360136E8
:1013100002360E2A39EF09F001C002F000C001F0D8
:10132000006A000E0E960E880264B9EF09F0F00E06
:101330000214D8A4A4EF09F0023A01380F0B0226D8
:101340000138F00B016E0E84D89002BE39EF09F01F
:10135000013602360E2A02BE39EF09F00136023696
:101360000E2A02BE39EF09F0013602360E2A39EF95
:1013700009F001C002F0016A000E0E860264ECEF73
:1013800009F0F00E0214D8A4C8EF09F0023A0E8456
:10139000D89002BE39EF09F002360E2A02BE39EFAC
:1013A00009F002360E2A02BE39EF09F002360E2A83
:1013B00039EF09F0010E0C6E78EC00F0F0EF09F057
:1013C000020E0C6E3FEC00F0F0EF09F0040E0C6E14
:1013D00011EC02F0F0EF09F0080E0C6E85EC00F055
:1013E000120012EC04F0005201E1FBD7000E471985
:1013F00002E1800E461919E1000E4C1902E1400E7F
:101400004B1913E1DEEC03F00A0E005C0201686F79
:10141000000E0158696FEDEC03F00A0E005C02014A
:10142000666F000E0158676F12D0DEEC03F0030EFA
:10143000005C0201686F000E0158696FEDEC03F06B
:10144000030E005C0201666F000E0158676F120008
:10145000000E0201AE5D0AE3AE517F0807E3000E05
:10146000AF5D04E3AF513F0801E301D052D0AEC2FB
:10147000DBF244EC02F0AFC2DBF2DB33DB9FDB33A9
:10148000DB9FDB33DB9FBDEC02F0AEC2DBF277EC1F
:1014900002F064EC02F000C0B3F264EC02F000C0B1
:1014A000B3F2AFC2DBF2DB33DB9FDB33DB9FDB333B
:1014B000DB9FBDEC02F0AEC2DBF277EC02F0070E70
:1014C000AF15006E00C0B1F200C001F0010E006E59
:1014D000015004E000360090FF0FFBD700C0B1F2CE
:1014E000001CB26F09D0B251B3170FD0B151B31372
:1014F0000CD0B151B31B09D0B051000AF4E0B05187
:10150000010AF4E0B051020AF4E0B3C2DBF25DEC90
:1015100002F012007FA202D00000FCD77F9CAFC275
:1015200063FFAEC262FFB0C261FF7F9E7F84F2CFD5
:1015300000F0F29E550E7E6EAA0E7E6E7F8200BE79
:1015400002D0F29E01D0F28E7F9412000201B451BB
:10155000000A03E1010E006E7DD0AEC2D1F2AFC22F
:10156000D2F2B5C2D3F2B4C2D4F2000ED56F16ECEB
:1015700005F0B451AE25E16E000EAF21E26EE66AD1
:10158000B407B451AE25E16E000EAF21E26E300E0D
:10159000E66EB351000808E1B251000805E1B1510F
:1015A000000802E1B051000854E2B451AE25B66F14
:1015B000000EAF21B76F0A0E046E000E056E066EA8
:1015C000076EB0C200F0B1C201F0B2C202F0B3C205
:1015D00003F02BEC05F008C000F009C001F00AC0D0
:1015E00002F00BC003F0300E0026B6C2E1FFB7C216
:1015F000E2FF00C0E6FF0A0E046E000E056E066EE6
:10160000076EB0C200F0B1C201F0B2C202F0B3C2C4
:1016100003F02BEC05F000C0B0F201C0B1F202C043
:10162000B2F203C0B3F2B4C201F0B4070150000A31
:101630000FE1B351000808E1B251000805E1B151D2
:10164000000802E1B051000803E2010E006E02D072
:10165000A0D7006A12000201B36B5051000A0EE1DC
:10166000050E7B6F070E4F6F2C0E786F690E796F2A
:10167000000E7A6F200E726F000E736FB351AE259D
:10168000E96E000EAF21EA6EEE5217E0B351AE25BF
:10169000E96E000EAF21EA6EEECFD1F2B0C2D2F207
:1016A000B1C2D3F2B2C2D4F2C5EC02F07B51010F49
:1016B000006E0050B027B32BE1D712000201AE6BD1
:1016C000AF6BB06B0E6B0F6B026B036B086B096B30
:1016D000F5EC04F0C80E0201D16FFCEC03F000C081
:1016E000AEF20050000A03E0AEC200F05FD1020E7D
:1016F0000201D16FFCEC03F00DEC04F0C90E020105
:10170000D16FFCEC03F0010E0201D16F4DEC03F040
:1017100000C0AFF2000E0201B06FAFC2B0F2AF6B0B
:10172000010ED16F4DEC03F0000E016E0201AF51BE
:101730000012B051011200C0AFF201C0B0F200C0FF
:10174000FCF101C0FDF177EC03F0820E0C6EDD0EB2
:101750000D6E0D2EFED70C2EFCD700000000F5EC10
:1017600004F0C80E0201D16FFCEC03F000C0AEF231
:101770000050000A03E0AEC200F018D1080E0201CA
:10178000D16FFCEC03F00DEC04F0C90E0201D16F37
:10179000FCEC03F0010E0201D16F4DEC03F000C030
:1017A000AFF2000E0201B06FAFC2B0F2AF6B010E2C
:1017B000D16F4DEC03F0000E016E0201AF5100122B
:1017C000B051011200C0AFF201C0B0F200C002F28D
:1017D00001C003F277EC03F002C200F003C201F093
:1017E00063EC03F0000E046E000E056E6C0E066EC8
:1017F000860E076E3DEC07F0000E046EFF0E056EC0
:101800007F0E066E8E0E076ED0EC07F0A1EC06F090
:1018100000C010F201C011F20201AF6BB06B820E7A
:101820000C6EDD0E0D6E0D2EFED70C2EFCD70000BB
:101830000000F5EC04F0C80E0201D16FFCEC03F0DF
:1018400000C0AEF20050000A03E0AEC200F0AED01D
:101850000E0E0201D16FFCEC03F000C0AEF200509E
:10186000000A03E0AEC200F0A1D00DEC04F0C90EF6
:101870000201D16FFCEC03F000C0AEF20050000A90
:1018800003E0AEC200F092D0010E0201D16F4DEC28
:1018900003F000C0AFF2000E0201B06FAFC2B0F2B1
:1018A000AF6B010ED16F4DEC03F0000E016E020123
:1018B000AF510012B051011200C0AFF201C0B0F23E
:1018C00000C008F201C009F277EC03F009517F086B
:1018D00002E10851FF0814E2010E1C6FFF0E085DC3
:1018E000016E7F0E0959026E01C008F202C009F2B2
:1018F000000E025C02E1140E015CD8A01C6B0CD03F
:101900001C6B0851FF08006E09C201F07F0E0156E2
:1019100000C008F201C009F2AF6BB06B820E0C6E12
:10192000DD0E0D6E0D2EFED70C2EFCD70000000034
:10193000F5EC04F0C80E0201D16FFCEC03F000C01E
:10194000AEF20050000A03E0AEC200F02FD0140E39
:101950000201D16FFCEC03F00DEC04F0C90E0201A2
:10196000D16FFCEC03F0010E0201D16F4DEC03F0DE
:1019700000C0AFF2000E0201B06FAFC2B0F2AF6BA9
:10198000010ED16F4DEC03F0000E016E0201AF515C
:101990000012B051011200C0AFF201C0B0F200C09D
:1019A0000EF201C00FF277EC03F0006A1200C0ECF7
:1019B00003F002016851005CB26F69510158B36FC6
:1019C00079EC03F002016651005CBE6F675101586B
:1019D000BF6FBEC2B4F2BFC2B5F2B2C200F0B3C2B2
:1019E00001F0000EB3BFFF0E026E036E46C204F09C
:1019F00047C205F0000E066E076E97EC03F06851C3
:101A00006C5D046E69516D59056E000E066E076EB1
:101A100047EC04F000C0BAF201C0BBF202C0BCF255
:101A200003C0BDF2BAC2B2F2BBC2B3F2BEC200F092
:101A3000BFC201F0000E0201BFBFFF0E026E036EB7
:101A40004BC204F04CC205F0000E066E076E97EC18
:101A500003F066516A5D046E67516B59056E000EA6
:101A6000066E076E47EC04F0005002014B5DB46F48
:101A700001504C59B56F800EBB19006E800E005C92
:101A800002E1000EBA5D07E34751B35D02E1465142
:101A9000B25D01E203D0010E006E66D0800EB51972
:101AA000006E800E005C02E1000EB45D07E34C5155
:101AB000B55D02E14B51B45D01E203D0010E006E51
:101AC00053D04951B25D016E4A51B359026E01C003
:101AD000B6F202C0B7F25451B45DB86F5551B55962
:101AE000B96FB2C249F2B3C24AF2B4C254F2B5C23B
:101AF00055F2800E000A006E800E0218005C02E1B2
:101B0000015005081DE3800E000A006E800EB91911
:101B1000005C02E1B851050813E3800EB719006EAE
:101B20007F0E005C02E1FB0EB65D0AE3800EB91980
:101B3000006E7F0E005C02E1FB0EB85D01E303D096
:101B4000010E006E11D0AEC2E1FFAFC2E2FFB2C221
:101B5000E6FFB3C2E6FFB0C2E1FFB1C2E2FFB4C22A
:101B6000E6FFB5C2E6FF006A12008A9A8A8802017F
:101B7000B06BB051070810E3B0C2DBF2BDEC02F06D
:101B8000AF6BAF513F0806E3AEC2DBF25DEC02F093
:101B9000AF2BF7D7B02BEDD78A988A8AB06BB051AC
:101BA000070810E3B0C2DBF2BDEC02F0AF6BAF513F
:101BB0003F0806E3AEC2DBF25DEC02F0AF2BF7D7D5
:101BC000B02BEDD7120012EC04F0005201E1FBD76C
:101BD000000E471902E1800E461919E1000E4C195A
:101BE00002E1400E4B1913E1DEEC03F0050E002478
:101BF00002016C6F000E01206D6FEDEC03F0050E1D
:101C0000002402016A6F000E01206B6F12D0DEEC1F
:101C100003F0030E002402016C6F000E01206D6FB3
:101C2000EDEC03F0030E002402016A6F000E0120A8
:101C30006B6F120089988B9202EC02F076C2E1FF82
:101C400077C2E2FF51C2E6FF74C200F075C201F034
:101C500038EC02F0015002014E5D02E100504D5D92
:101C6000010ED8B0000EAE6F02EC02F076C2E1FFBA
:101C700077C2E2FF51C2E6FF74C200F075C201F004
:101C800038EC02F0015002014E5D02E100504D5D62
:101C9000010ED8B0000E026E0250AE15006E00C0EC
:101CA000AEF212000201C36BC46BC56BC66BC76B8F
:101CB000C86BC96BCA6BB251AE25006EB351AF2170
:101CC000016E010E005C026E000E0158036E000EE4
:101CD000006E0350005C02E102507F0807E2AE5143
:101CE0008008B26FAFC2B3F2000EB357B451B02543
:101CF000006EB551B121016E010E005C026E000E46
:101D00000158036E000E006E0350005C02E10250A9
:101D10003F0807E2B0514008B46FB1C2B5F2000EFF
:101D2000B557B0C200F0B1C201F001320032019EDD
:101D300001320032019E01320032019E00C0BDF22C
:101D4000B451B025056EB551B121066E010E055C8A
:101D5000036E000E0658046E03C000F004C001F0CC
:101D600001320032019E01320032019E0132003206
:101D7000019E00C0BEF2070EB015006EB1C201F0A8
:101D8000000E011600C0C0F2070E0514006E06C05A
:101D900001F0000E011600C0C1F2B951B55D02E1BB
:101DA000B851B45D03E2BEC2C2F21BD0B851B02537
:101DB000006EB951B121016E010E005C036E000E80
:101DC0000158046E03C000F004C001F0013200327B
:101DD000019E01320032019E01320032019E00C09C
:101DE000C2F2070EB815016EB9C202F0000E02165B
:101DF000000E021802E1000E011818E1B8C200F04E
:101E0000B9C201F001320032019E01320032019E5E
:101E100001320032019EB6C204F0B7C205F08AEC6E
:101E200002F000C0CDF201C0CEF219D0B8C200F06D
:101E3000B9C201F001320032019E01320032019E2E
:101E400001320032019E004A012AB6C204F0B7C234
:101E500005F08AEC02F000C0CDF201C0CEF2BDC2A6
:101E6000C3F2000EC46F000E006EC451005C02E1AC
:101E7000C351BE5DD8A003D1CB6BCC6BC56BC66B19
:101E8000B351C65D02E1B251C55DD8B0E7D0C551CE
:101E9000AE25DB6F44EC02F0C3C2DBF2BDEC02F016
:101EA000B751C65D02E1B651C55D3DE2000E006E60
:101EB000C451005C02E1C351C25D35E3000EC41998
:101EC00002E1BD51C31902E1CF6B12D0C951CB253C
:101ED000006ECA51CC21016E0050BA25F66E015039
:101EE000BB21F76E000EBC21F86E0900F5CFCFF2D2
:101EF000CE51C85D02E1CD51C75D02E3D06B12D077
:101F0000C751CB25006EC851CC21016E0050BA25B7
:101F1000F66E0150BB21F76E000EBC21F86E090071
:101F2000F5CFD0F202D0D06BCF6BD0C2BFF2C05190
:101F300000081AE2C0510808006E016A000E015A3A
:101F4000CFC2BFF2005004E0BF33BF9FFF0FFBD7EB
:101F5000C0C201F0D0C200F0015004E00036009091
:101F6000FF0FFBD70050BF13000EC41902E1BD5193
:101F7000C3192DE1C05100082AE2C551AE25DB6F1F
:101F800077EC02F064EC02F064EC02F0C051080857
:101F9000016E026A000E025A01C002F0FF0E016ECD
:101FA000025004E00132019EFF0FFBD701500014E4
:101FB000026EC0C201F0FF0E006E015004E0003658
:101FC0000090FF0FFBD70050BF170250BF13000E49
:101FD000C41902E1BE51C3192DE1C15100082AE222
:101FE000C551AE25DB6F77EC02F064EC02F064ECD7
:101FF00002F0C1C202F0FF0E016E025004E0013691
:102000000190FF0FFBD701500014026EC151080868
:10201000006E016A000E015A00C001F0FF0E006E52
:10202000015004E00032009EFF0FFBD70050BF17A5
:102030000250BF13B751C65D02E1B651C55D02E261
:10204000CB4BCC2BC551AE25DB6F77EC02F0BFC27A
:10205000DBF25DEC02F0C54BC62B12D7000EC45D5F
:1020600002E1C251C35D08E2C7C2C9F2C8C2CAF2E6
:10207000B651C727B751C823C34BC42BF4D612009F
:10208000A2C2E1FFA3C2E2FF68C2E6FF69C2E6FFA7
:10209000A4C2E1FFA5C2E2FF6CC2E6FF6DC2E6FF8B
:1020A000A6C2E1FFA7C2E2FF66C2E6FF67C2E6FF83
:1020B000A8C2E1FFA9C2E2FF6AC2E6FF6BC2E6FF67
:1020C00012000201AE6B3F0EAF6F010EB06F28EC35
:1020D0000AF07B0EAE6F010EAF6F0C0EB06F030EE9
:1020E000B16F010EB26F2BEC0BF0F1EC09F00B0E9F
:1020F0000B6E260E0C6E5D0E0D6E0D2EFED70C2E89
:10210000FCD70B2EFAD700000000AE6B3F0EAF6F6E
:10211000B06B28EC0AF07F0EAE6FAF6B010EB06FA4
:1021200028EC0AF0690EAE6F010EAF6F0C0EB06FA7
:10213000030EB16F010EB26F2BEC0BF0530EAE6FAE
:10214000010EAF6F0C0EB06F040EB16F010EB26FC7
:102150002BEC0BF038DD0B0E0B6E260E0C6E5D0EAD
:102160000D6E0D2EFED70C2EFCD70B2EFAD70000CD
:10217000000012007F9CA3C263FFA2C262FF7F9E89
:102180007F8061CF00F0120000C008F00B6A0C6A7B
:102190009E0E036E0A6A026A016A006A020E0C6EE3
:1021A000FCEC08F01200025006180E6E086A096A6C
:1021B0000B6A03500764C6EF11F006500A6E068ED4
:1021C000028E03500B6E0750036E000E0B6416EF69
:1021D00011F00B50075ED8B4B7EF11F0070E07648B
:1021E00085EF11F0075E00C008F001C000F002C0EA
:1021F00001F0026A074EB7EF11F007645AEF11F0D1
:10220000075E00C008F001C000F0016A074EB7EF9A
:1022100011F0076438EF11F0075E00C008F0006AA3
:10222000074EB7EF11F007641FEF11F00AC002F07C
:1022300005C001F004C000F0086AE3EF12F0030EDD
:1022400007642AEF11F0075E08380F0B086E074E7F
:10225000B7EF11F0D8900832074EB7EF11F0D890D1
:102260000832074EB7EF11F0D8900832B7EF11F0EF
:10227000030E076449EF11F0075E08380F0B086E74
:102280000038F00B082600380F0B006E074EB7EF32
:1022900011F0D89000320832074EB7EF11F0D89005
:1022A00000320832074EB7EF11F0D89000320832F2
:1022B000B7EF11F0030E076471EF11F0075E0838F5
:1022C0000F0B086E0038F00B082600380F0B006E5D
:1022D0000138F00B002601380F0B016E074EB7EFE7
:1022E00011F0D890013200320832074EB7EF11F0EA
:1022F000D890013200320832074EB7EF11F0D89073
:10230000013200320832B7EF11F0030E0764A2EF7A
:1023100011F0075E08380F0B086E0038F00B082626
:1023200000380F0B006E0138F00B002601380F0B40
:10233000016E0238F00B012602380F0B026E074EB9
:10234000B7EF11F0D8900232013200320832074E56
:10235000B7EF11F0D8900232013200320832074E46
:10236000B7EF11F0D8900232013200320832096A18
:10237000000E0EAEABEF12F0081E001E011E021E74
:10238000082A002201220222ABEF12F00750D8A443
:10239000CCEF11F0E3EF12F0096A02C00AF0028EEE
:1023A000068E0750035C076ED8B49EEF12F0070E3E
:1023B00007646CEF12F0075E0450096E0550046E5E
:1023C0000650056E066A074E9EEF12F0070E076470
:1023D00041EF12F0075E0450096E0550046E056A65
:1023E000074E9EEF12F0070E07641FEF12F0075E14
:1023F0000450096E046A074E9EEF12F0070E076440
:1024000006EF12F00AC002F0E3EF12F0030E0764C9
:1024100011EF12F0075E09380F0B096E074E9EEFA1
:1024200012F0D8900932074E9EEF12F0D890093280
:10243000074E9EEF12F0D89009329EEF12F0030E75
:10244000076430EF12F0075E09380F0B096E04388D
:10245000F00B092604380F0B046E074E9EEF12F0A6
:10246000D89004320932074E9EEF12F0D890043211
:102470000932074E9EEF12F0D890043209329EEFD7
:1024800012F0030E076458EF12F0075E09380F0BC5
:10249000096E0438F00B092604380F0B046E05385A
:1024A000F00B042605380F0B056E074E9EEF12F059
:1024B000D890053204320932074E9EEF12F0D890C0
:1024C000053204320932074E9EEF12F0D8900532E1
:1024D000043209329EEF12F0030E076489EF12F006
:1024E000075E09380F0B096E0438F00B0926043813
:1024F0000F0B046E0538F00B042605380F0B056E24
:102500000638F00B052606380F0B066E074E9EEFB9
:1025100012F0D8900632053204320932074E9EEF8F
:1025200012F0D8900632053204320932074E9EEF7F
:1025300012F0D8900632053204320932086A000ED1
:102540000EAEABEF12F0091E041E051E061E092A70
:1025500004220522062209500826045000220550B4
:102560000122065002220EBEC2EF12F0D8A0D1EF17
:1025700012F00232013200320832033ED1EF12F083
:10258000DDEF12F0D8B0D7EF12F0000E081E001EDB
:10259000011E021E082A0022012202220A7ED7EF13
:1025A00012F0010E0C6EFCEC08F0E5EF12F0020EDA
:1025B0000C6EFCEC08F0E5EF12F0040E0C6E11EC62
:1025C00002F0E5EF12F0000E0C6E12000201A26B99
:1025D000A36BA46BA56BA66BA76BA86BA96BAE6B6B
:1025E000B5EC0DF00A0EAE6F000EAF6FB06BB16BB5
:1025F0006C0EB26F000EB36F100EB46F000EB56F9D
:102600006C0EB66F000EB76F100EB86F000EB96F7C
:10261000430EBA6F710EBB6F000EBC6F52EC0EF022
:102620002B0EAE6F000EAF6FB06B030EB16F010ECD
:10263000B26F2BEC0BF0410EAE6F000EAF6FB06BB4
:10264000040EB16F010EB26F2BEC0BF00A0EAE6FE1
:10265000000EAF6F300EB06F000EB16F180EB26F7C
:10266000000EB36F100EB46F000EB56F180EB66F7C
:10267000000EB76F100EB86F000EB96F130EBA6F61
:10268000770EBB6F000EBC6F52EC0EF05E0EAE6F9D
:10269000000EAF6F300EB06F000EB16F180EB26F3C
:1026A000000EB36F100EB46F000EB56F180EB66F3C
:1026B000000EB76F100EB86F000EB96FE30EBA6F51
:1026C000760EBB6F000EBC6F52EC0EF01AEC0EF0E3
:1026D0000052D8B4A2D0E50EAE6F010EAF6FE10E7E
:1026E000B06F010EB16FD7EC0CF00050000AD8A407
:1026F00094D0000E006E0101E651005C02E1E5514C
:102700000A084AE2000EE65D02E1220EE55D44E2BF
:10271000000E006EE251005C02E1E15130083CE243
:10272000000EE25D02E1400EE15D36E20201AE6BB9
:10273000B5EC0DF00A0EAE6F000EAF6F300EB06F3D
:10274000000EB16F180EB26F000EB36F100EB46FA3
:10275000000EB56F180EB66F000EB76F100EB86F83
:10276000000EB96F130EBA6F770EBB6F000EBC6F01
:1027700052EC0EF0000E1B6E000E1C6E7A0E1D6EDB
:10278000890E1E6E000E01010D6F800E0E6F1B0E66
:102790000F6F8D0E106FEED2000E006EE651005CD2
:1027A00002E1E5515E0839E2000EE65D02E1760ED7
:1027B000E55D33E2000E006EE251005C02E1E151A2
:1027C00030082BE2000EE25D02E1400EE15D25E201
:1027D0000201AE6BB5EC0DF05E0EAE6F000EAF6F8A
:1027E000300EB06F000EB16F180EB26F000EB36FE7
:1027F000100EB46F000EB56F180EB66F000EB76FE7
:10280000100EB86F000EB96FE30EBA6F760EBB6F85
:10281000000EBC6F52EC0EF001D058D70B0E0B6EB1
:10282000260E0C6E5D0E0D6E0D2EFED70C2EFCD7F7
:102830000B2EFAD7000000005EEC0BF00B0E0B6EB7
:10284000260E0C6E5D0E0D6E0D2EFED70C2EFCD7D7
:102850000B2EFAD7000000005EEC0BF008C200F06F
:1028600009C201F063EC03F000C0A2F201C0A3F2C0
:1028700002C0A4F203C0A5F2000E046E7C0E056E29
:10288000120E066E920E076E3DEC07F000C0A2F22B
:1028900001C0A3F202C0A4F203C0A5F2000E046EB0
:1028A000FE0E056E7F0E066E8D0E076ED0EC07F0E5
:1028B00000C0AAF201C0ABF202C0ACF203C0ADF29C
:1028C000AAC2A2F2ABC2A3F2ACC2A4F2ADC2A5F2FC
:1028D000AAC21BF0ABC21CF0ACC21DF0ADC21EF010
:1028E000AAC204F0ABC205F0ACC206F0ADC207F05C
:1028F000C00E006EE10E016E640E026E980E036E45
:10290000D0EC07F000C00DF101C00EF102C00FF1D4
:1029100003C010F1000E046E000E056E200E066E50
:10292000820E076E3DEC07F000C00DF101C00EF104
:1029300002C00FF103C010F1AAC200F0ABC201F057
:10294000ACC202F0ADC203F0A1EC06F000C0A6F2EA
:1029500001C0A7F202C0A8F203C0A9F2350E02011D
:10296000AE6F020EAF6F00C0B0F201C0B1F202C094
:10297000B2F203C0B3F2050EB46F300EB56FA6EC21
:102980000AF0170EAE6F000EAF6FB06BB16B010E99
:10299000B26F2BEC0BF0350EAE6F020EAF6F1E0E4A
:1029A000B06FB16B010EB26F2BEC0BF01BC004F0DB
:1029B0001CC005F01DC006F01EC007F0800E006EA2
:1029C000960E016E180E026E950E036ED0EC07F097
:1029D00000C0A2F201C0A3F202C0A4F203C0A5F29B
:1029E000A1EC06F000C0A6F201C0A7F202C0A8F256
:1029F00003C0A9F2350E0201AE6F020EAF6F00C028
:102A0000B0F201C0B1F202C0B2F203C0B3F2050EDF
:102A1000B46F300EB56FA6EC0AF0250EAE6F000E47
:102A2000AF6FB06B010EB16F010EB26F2BEC0BF0FC
:102A3000350EAE6F020EAF6F1E0EB06F010EB16F8E
:102A4000010EB26F2BEC0BF0A2C200F0A3C201F09A
:102A5000A4C202F0A5C203F07B0E046E140E056E34
:102A60002E0E066E7D0E076E3DEC07F000C0A2F242
:102A700001C0A3F202C0A4F203C0A5F2A1EC06F0CB
:102A800000C0A6F201C0A7F202C0A8F203C0A9F2DA
:102A9000350EAE6F020EAF6F00C0B0F201C0B1F2E2
:102AA00002C0B2F203C0B3F2050EB46F300EB56FC0
:102AB000A6EC0AF01F0EAE6F000EAF6FB06B020EE9
:102AC000B16F010EB26F2BEC0BF0350EAE6F020E34
:102AD000AF6F1E0EB06F020EB16F010EB26F2BEC16
:102AE0000BF0000E046E000E056E000E066E810ED9
:102AF000076EA2C200F0A3C201F0A4C202F0A5C2F8
:102B000003F0D0EC07F000C0A2F201C0A3F202C0B3
:102B1000A4F203C0A5F2A1EC06F000C0A6F201C029
:102B2000A7F202C0A8F203C0A9F2350E0201AE6FEF
:102B3000020EAF6F00C0B0F201C0B1F202C0B2F23B
:102B400003C0B3F2050EB46F300EB56FA6EC0AF0F9
:102B5000550EAE6F000EAF6FB06B030EB16F010E6E
:102B6000B26F2BEC0BF0350EAE6F020EAF6F1E0E78
:102B7000B06F030EB16F010EB26F2BEC0BF0A2C25F
:102B800004F0A3C205F0A4C206F0A5C207F0000E2F
:102B9000006E000E016E7A0E026E880E036ED0EC8F
:102BA00007F08EEC08F000C0E9F101C0EAF100C0C6
:102BB000EBF101C0ECF1350E0201AE6F020EAF6F0A
:102BC000E9C1B0F2EAC1B1F2000EB26FB36F050E07
:102BD000B46F300EB56FA6EC0AF0980EAE6F000E13
:102BE000AF6FB06B040EB16F010EB26F2BEC0BF038
:102BF000350EAE6F020EAF6F1E0EB06F040EB16FCA
:102C0000010EB26F2BEC0BF0350EAE6F020EAF6FF4
:102C100008C2B0F209C2B1F2000EB26FB36F050E76
:102C2000B46F300EB56FA6EC0AF0350EAE6F020E23
:102C3000AF6FB06B050EB16F010EB26F2BEC0BF0E6
:102C40001BC000F01CC001F01DC002F01EC003F04C
:102C5000A1EC06F000C0A6F201C0A7F202C0A8F2E3
:102C600003C0A9F2350EAE6F020EAF6F00C0B0F216
:102C700001C0B1F202C0B2F203C0B3F2050EB46FEC
:102C8000300EB56FA6EC0AF0350EAE6F020EAF6FC8
:102C90003C0EB06F050EB16F010EB26F2BEC0BF056
:102CA000330E0B6EBB0E0C6EDF0E0D6E0D2EFED7AF
:102CB0000C2EFCD70B2EFAD700000000A7C200F0A4
:102CC000A8C201F0A9C202F0036A200EAE6F000E86
:102CD000AF6F00C0B0F28AEC0AF0FF0E0201A61539
:102CE000B06F210EAE6F000EAF6F8AEC0AF00DC10F
:102CF00000F00EC101F00FC102F010C103F0A1EC11
:102D000006F000C0A6F201C0A7F202C0A8F203C0FC
:102D1000A9F201C004F002C005F003C006F0076A82
:102D2000220E0201AE6F000EAF6F04C0B0F28AEC4B
:102D30000AF0FF0E0201A615B06F230EAE6F000E53
:102D4000AF6F8AEC0AF0300E0201AE6F000EAF6F6B
:102D5000550EB06F8AEC0AF0330E0B6EBB0E0C6E84
:102D6000DF0E0D6E0D2EFED70C2EFCD70B2EFAD7D4
:102D7000000000001200A2C268F2A3C269F2A4C25D
:102D80006CF2A5C26DF2A6C266F2A7C267F2A8C233
:102D90006AF2A9C26BF21200CB50010F006E016AF9
:102DA000000E012297C204F0000E056E8AEC02F0BC
:102DB000060E026E00C004F001C005F0025005E0EE
:102DC00005320432059EFF0FFAD7040E016E04C0CF
:102DD00000F0015004E000360090FF0FFBD7300EEA
:102DE0000014036E04C000F005C001F0013200328F
:102DF000019E01320032019E00C0BCFF0F0EBB16C7
:102E00000350BB1212009696CA840C0E0F01431396
:102E100012000F01446B4399439B120002012051A1
:102E20001F19D8B4F4D01FC220F2060EAE6F000EE8
:102E3000AF6F240EB06F000EB16F100EB26F000EA8
:102E4000B36F100EB46F000EB56F100EB66F000E9C
:102E5000B76F100EB86F000EB96F630EBA6F770EB2
:102E6000BB6F000EBC6F52EC0EF0610EAE6F000E29
:102E7000AF6FB06BB16B1F0EB26F000EB36F100E61
:102E8000B46F000EB56F1F0EB66F000EB76F100E49
:102E9000B86F000EB96F450EBA6F760EBB6F000E9D
:102EA000BC6F52EC0EF0000E115D02E1690E105D78
:102EB00009E3000E006E1151005C02E11051A00800
:102EC00001E310D0AE6BB5EC0DF0AD0EAE6F000EA1
:102ED000AF6F190EB06F030EB16F010EB26F2BEC16
:102EE0000BF051D0270EAE6F000EAF6F1A0EB06F01
:102EF000000EB16F330EB26F000EB36F0E0EB46FD3
:102F0000000EB56F330EB66F000EB76F0E0EB86FB2
:102F1000000EB96F1B0EBA6F720EBB6F000EBC6F46
:102F200052EC0EF02C0EAE6F000EAF6F1D0EB06F98
:102F3000000EB16F270EB26F000EB36F080EB46FA4
:102F4000000EB56F270EB66F000EB76F080EB86F84
:102F5000000EB96F270E006E000E016E026E036E3A
:102F60001FC204F0000E056E066E076E97EC03F0AC
:102F7000D60E0024BA6F6C0E0120BB6F000E02202B
:102F8000BC6F52EC0EF03051010A21E1700EAE6FB1
:102F9000000EAF6F100EB06F000EB16F100EB26F5B
:102FA000000EB36F280EB46F000EB56F100EB66F23
:102FB000000EB76F280EB86F000EB96FE90EBA6F2A
:102FC000740EBB6F000EBC6F52EC0EF020D0700E72
:102FD000AE6F000EAF6F100EB06F000EB16F100E1F
:102FE000B26F000EB36F280EB46F000EB56F100EE7
:102FF000B66F000EB76F280EB86F000EB96F390E9E
:10300000BA6F750EBB6F000EBC6F52EC0EF01F5105
:10301000090803E2090E1F6F57D01C51010A01E194
:1030200053D01FC220F2270EAE6F000EAF6F1A0EE4
:10303000B06F000EB16F330EB26F000EB36F0E0E95
:10304000B46F000EB56F330EB66F000EB76F0E0E75
:10305000B86F000EB96F1B0EBA6F720EBB6F000E09
:10306000BC6F52EC0EF02C0EAE6F000EAF6F1D0E4B
:10307000B06F000EB16F270EB26F000EB36F080E67
:10308000B46F000EB56F270EB66F000EB76F080E47
:10309000B86F000EB96F270E006E000E016E026E43
:1030A000036E1FC204F0000E056E066E076E97ECED
:1030B00003F0D60E0024BA6F6C0E0120BB6F000E19
:1030C0000220BC6F52EC0EF0120002012B51020ADA
:1030D0003FE1020EAE6F000EAF6FB06BB16B1F0E13
:1030E000B26F000EB36F100EB46F000EB56F1F0EEF
:1030F000B66F000EB76F100EB86F000EB96F070EE7
:10310000BA6F760EBB6F000EBC6F52EC0EF0040E61
:10311000AE6F000EAF6F120EB06F000EB16F180ED3
:10312000B26F000EB36F100EB46F000EB56F180EB5
:10313000B66F000EB76F100EB86F000EB96F830E2A
:10314000BA6F760EBB6F000EBC6F52EC0EF05CD007
:10315000020EAE6F000EAF6FB06BB16B1F0EB26F91
:10316000000EB36F100EB46F000EB56F1F0EB66F6A
:10317000000EB76F100EB86F000EB96FC90EBA6FA0
:10318000750EBB6F000EBC6F52EC0EF0040EAE6FEE
:10319000000EAF6F120EB06F000EB16F180EB26F4F
:1031A000000EB36F100EB46F000EB56F180EB66F31
:1031B000000EB76F100EB86F000EB96FB30EBA6F76
:1031C000760EBB6F000EBC6F52EC0EF0230EAE6F8E
:1031D000000EAF6FB06BB16B070EB26F000EB36F26
:1031E000100EB46F000EB56F070EB66F000EB76FFE
:1031F000100EB86F000EB96FB20EBA6F770EBB6FBC
:10320000000EBC6F52EC0EF012000201A26BA36B19
:10321000BAEC10F00050BB0A77E061EC10F0480EF9
:10322000A26F010EA36F510EA46F010EA56F670E62
:10323000A66F010EA76F650EA86F010EA96F40EC77
:1032400010F049C100F0016A100EAE6F000EAF6FB2
:1032500000C0B0F28AEC0AF0FF0E0101481502012D
:10326000B06F110EAE6F000EAF6F8AEC0AF052C154
:1032700000F0016A120E0201AE6F000EAF6F00C0C7
:10328000B0F28AEC0AF0FF0E010151150201B06F95
:10329000130EAE6F000EAF6F8AEC0AF068C100F03B
:1032A000016A140E0201AE6F000EAF6F00C0B0F2E3
:1032B0008AEC0AF0FF0E010167150201B06F150ECE
:1032C000AE6F000EAF6F8AEC0AF066C100F0016AC3
:1032D000160E0201AE6F000EAF6F00C0B0F28AECA6
:1032E0000AF0FF0E010165150201B06F170EAE6FF7
:1032F000000EAF6F8AEC0AF00201AE6BAF6BBB0E33
:10330000B06F8AEC0AF083D0100E0201A26F000E9B
:10331000A36FBAEC10F000C048F1000E0101496F34
:1033200048C149F1486B110E0201A26F000EA36F54
:10333000BAEC10F0005001014813000E4913120EB0
:103340000201A26F000EA36FBAEC10F000C051F1A1
:10335000000E0101526F51C152F1516B130E020167
:10336000A26F000EA36FBAEC10F0005001015113D0
:10337000000E5213140E0201A26F000EA36FBAECDE
:1033800010F000C067F1000E0101686F67C168F1BD
:10339000676B150E0201A26F000EA36FBAEC10F05E
:1033A000005001016713000E6813160E0201A26F90
:1033B000000EA36FBAEC10F000C065F1000E010121
:1033C000666F65C166F1656B170E0201A26F000E94
:1033D000A36FBAEC10F0000E016E010165510012EE
:1033E0006651011200C065F101C066F148C1A2F248
:1033F00049C1A3F251C1A4F252C1A5F267C1A6F21C
:1034000068C1A7F200C0A8F201C0A9F2B4DC300E76
:103410000201A26F000EA36FBAEC10F00050550A23
:1034200003E0E6EC12F0B3D0200E0201A26F000E12
:10343000A36FBAEC10F0C4EC10F000C01BF001C098
:103440001CF002C01DF003C01EF0000E046E000E42
:10345000056E7F0E066E860E076E3DEC07F000C00F
:103460001BF001C01CF002C01DF003C01EF0210EB5
:10347000A26F000EA36FBAEC10F0C4EC10F01BC0EA
:1034800004F01CC005F01DC006F01EC007F0D3EC10
:1034900010F000C097F201C098F202C099F203C088
:1034A0009AF297C21BF098C21CF099C21DF09AC202
:1034B0001EF097C204F098C205F099C206F09AC2B5
:1034C00007F0C00E006EE10E016E640E026E980EE3
:1034D000036ED0EC07F000C00DF101C00EF102C088
:1034E0000FF103C010F1000E046E000E056E200EE9
:1034F000066E820E076E3DEC07F000C00DF101C0B4
:103500000EF102C00FF103C010F197C204F098C28F
:1035100005F099C206F09AC207F0800E006E960E72
:10352000016E180E026E950E036ED0EC07F07B0E46
:10353000046E140E056E2E0E066E7D0E076E3DECAB
:1035400007F0000E046E000E056E000E066E810E72
:10355000076ED0EC07F000C004F001C005F002C017
:1035600006F003C007F0000E006E000E016E7A0E2A
:10357000026E880E036ED0EC07F08EEC08F000C0EF
:10358000E9F101C0EAF100C0EBF101C0ECF1120079
:10359000860E0201746F000E756FDC0E766F020EE0
:1035A000776FC26A0F0EC012C08EC2801200020175
:1035B000506B526B536B969A9698969E969C939AE4
:1035C00093988D9A956A8D9E8D9C8A9A8A888D8A09
:1035D0003F0E836E8CEC00F0C00E836E8CEC00F01E
:1035E0008A8A8A983F0E836E8CEC00F0C00E836E40
:1035F0008CEC00F012000F01579FF19E8A84938497
:10360000120089988B9292989492840E02014D6FC9
:10361000030E4E6F97C246F298C247F299C24BF220
:103620009AC24CF29BC248F29CC251F2496B4A6B5F
:10363000546B556B1200949894968B988B96948843
:103640009486C79EC79C380EC66E1200FF0E0201FC
:10365000626FFF0E636FFF0E646FFF0E656FE40E07
:103660005A6F490E5B6F000E5C6F000E5D6FAE0E01
:10367000566F3F0E576F000E586F000E596FFF0EBA
:103680005E6FFF0E5F6F000E606F000E616FAC8AA1
:10369000900EAB6E948E949C9EAA03D0AECF00F099
:1036A000FBD7120097C24DF298C24EF212000201EF
:1036B0009D51000A03E1010E006EBDD09DC29FF234
:1036C00097C2D1F298C2D2F2300ED36F9DC2D4F21B
:1036D000000ED56F16EC05F09D519725E16E000E9A
:1036E0009821E26EE66A9D079D519725E16E000ED6
:1036F0009821E26E9EC2E6FF9D079DC29FF29D0744
:103700009C51000808E19B51000805E19A5100080E
:1037100002E19951000854E29D519725A06F000ED7
:103720009821A16F0A0E046E000E056E066E076EDC
:1037300099C200F09AC201F09BC202F09CC203F051
:103740002BEC05F008C000F009C001F00AC002F03F
:103750000BC003F0300E0026A0C2E1FFA1C2E2FFC1
:1037600000C0E6FF0A0E046E000E056E066E076EC0
:1037700099C200F09AC201F09BC202F09CC203F011
:103780002BEC05F000C099F201C09AF202C09BF246
:1037900003C09CF29DC201F09D070150000A0FE199
:1037A0009C51000808E19B51000805E19A5100086E
:1037B00002E19951000803E2010E006E3CD0A0D74F
:1037C0009F519725E16E000E9821E26E9F05006ED5
:1037D000016A000E015A00509725E96E01509821A8
:1037E000EA6EEECFE6FF9F05006E016A000E015AF9
:1037F00000509725E16E01509821E26E020E9F5D08
:10380000006E016A000E015A00509725E96E0150C2
:103810009821EA6EEECFE6FF020E9F5D006E016A10
:10382000000E015A00509725E16E01509821E26E7A
:103830002E0EE66E006A120002019D51000A03E19D
:10384000010E006E7BD097C2D1F298C2D2F29EC216
:10385000D3F29DC2D4F2000ED56F16EC05F09D5147
:103860009725E16E000E9821E26EE66A9D079D5154
:103870009725E16E000E9821E26E0A0EE66E9C51CD
:10388000000808E19B51000805E19A51000802E197
:103890009951000852E29D5197259F6F000E982183
:1038A000A06F0A0E046E000E056E066E076E99C2BA
:1038B00000F09AC201F09BC202F09CC203F02BEC14
:1038C00005F008C000F009C001F00AC002F00BC00A
:1038D00003F09FC2E1FFA0C2E2FF00C0E6FF0A0EB4
:1038E000046E000E056E066E076E99C200F09AC255
:1038F00001F09BC202F09CC203F02BEC05F000C06B
:1039000099F201C09AF202C09BF203C09CF29DC2E0
:1039100001F09D070150000A0FE19C51000808E1E9
:103920009B51000805E19A51000802E199510008F5
:1039300003E2010E006E02D0A2D7006A1200086AEC
:10394000096A100E0C6E0134083609360450085E00
:103950000550D8A0053C095ED8B007D00450082611
:103960000550D8B0053C0926D890003601360C2EFB
:10397000EAD7120002019D51000A03E1010E006E18
:10398000A3D09DC29FF297C2D1F298C2D2F2300E5C
:10399000D36F9DC2D4F2000ED56F16EC05F09D5189
:1039A0009725E16E000E9821E26EE66A9D079D5113
:1039B0009725E16E000E9821E26E9EC2E6FF9D07FC
:1039C0009DC29FF29D079C51000808E19B51000891
:1039D00005E19A51000802E19951000854E29D5115
:1039E0009725A06F000E9821A16F0A0E046E000E9D
:1039F000056E066E076E99C200F09AC201F09BC276
:103A000002F09CC203F02BEC05F008C000F009C0E6
:103A100001F00AC002F00BC003F0300E0026A0C275
:103A2000E1FFA1C2E2FF00C0E6FF0A0E046E000E35
:103A3000056E066E076E99C200F09AC201F09BC235
:103A400002F09CC203F02BEC05F000C099F201C01B
:103A50009AF202C09BF203C09CF29DC201F09D0746
:103A60000150000A0FE19C51000808E19B51000839
:103A700005E19A51000802E19951000803E2010EA4
:103A8000006E22D0A0D79F519725E16E000E98219D
:103A9000E26E9F05006E016A000E015A00509725E4
:103AA000E96E01509821EA6EEECFE6FF9F05006EA9
:103AB000016A000E015A00509725E16E01509821CD
:103AC000E26E2E0EE66E006A120002019751010AA4
:103AD00004E18B8A010E2C6F09D09751000A03E193
:103AE0008B9A2C6B03D0010E006E0FD0100E0B6E54
:103AF000390E0C6E0D0E0D6E0D2EFED70C2EFCD752
:103B00000B2EFAD700000000006A12008A8C8A8E01
:103B100002019751010A02E18A9E0AD09751020AD6
:103B200002E18A9C05D09751030A02E18A9E8A9C91
:103B3000120002019851010A13E107D08A820FD0C6
:103B40008A860DD08A800BD00AD09751010AF6E000
:103B50009751030AF5E09751020AF4E0F5D716D021
:103B60009851000A13E107D08A920FD08A960DD09F
:103B70008A900BD00AD09751010AF6E09751030AB8
:103B8000F5E09751020AF4E0F5D700D012000201E7
:103B90008F6B906B916B926B020E0B6E040E0C6E22
:103BA000BA0E0D6E0D2EFED70C2EFCD70B2EFAD7AB
:103BB0000000050EDC6F43EC00F000C08FF201C086
:103BC00090F2000E0201916F926F9251000808E18D
:103BD0009151000805E19051010802E18F519008D0
:103BE0003CE28FC200F090C201F091C202F092C29A
:103BF00003F0900E005E010E015A000E025A035AA5
:103C000000C08FF201C090F202C091F203C092F2A4
:103C1000640E046E000E056E066E076E97EC03F0E0
:103C200000C08FF201C090F202C091F203C092F284
:103C3000C30E046E000E056E066E076E2BEC05F0CB
:103C400000C08FF201C090F202C091F203C092F264
:103C500000C033F201C034F202D0336B346B020E79
:103C60000B6E040E0C6EBA0E0D6E0D2EFED70C2EC2
:103C7000FCD70B2EFAD70000040EDC6F43EC00F0EB
:103C800000C08FF201C090F2000E0201916F926F9E
:103C90009251000808E19151000805E19051010896
:103CA00002E18F5190083CE28FC200F090C201F017
:103CB00091C202F092C203F0900E005E010E015A12
:103CC000000E025A035A00C08FF201C090F202C0E7
:103CD00091F203C092F2640E046E000E056E066E41
:103CE000076E97EC03F000C08FF201C090F202C0A3
:103CF00091F203C092F2C30E046E000E056E066EC2
:103D0000076E2BEC05F000C08FF201C090F202C0EC
:103D100091F203C092F200C0E3F101C0E4F103D0DC
:103D20000101E36BE46B120004D102012B6B8E8660
:103D30008F8600019F6B9E6B976B8F880A0E020126
:103D4000316F010E2E6F2FD12251040802E1215153
:103D50004C0803E20A0E2E6F02D0020E2E6F23D102
:103D60008E96010E00019E6F030E02012E6F0A0E49
:103D7000316F19D13151000A03E1040E2E6F04D0C6
:103D80003105006E00C031F20ED12251040802E16B
:103D900021514C0803E20A0E2E6F12D0245105085F
:103DA00002E1235196080AE2140E2E6F8F98010E3D
:103DB0000001976F020E02012B6F02D01E0E2E6FB4
:103DC000F2D03151000A0AE18E96050E316F010ED4
:103DD00000019E6F0B0E02012E6F04D03105006EA4
:103DE00000C031F2E0D03151000A0CE18F960A0E8A
:103DF000316F010E00019F6F0C0E02012E6F010E3C
:103E00002B6F04D03105006E00C031F2CCD0040E0F
:103E1000225D02E14C0E215D02E22B6B2E6BC3D0C2
:103E20003151000A09E1150E2E6F8F961E0E316F6B
:103E3000010E00019F6F0CD002013105006E00C021
:103E400031F22251040802E121514C08D8A02E6B16
:103E5000AAD002013151000A06E1160E2E6F8F988A
:103E6000FA0E316F0BD03105006E00C031F22251D5
:103E7000040802E121514C08D8A02E6B94D02251A5
:103E8000040802E121514C0802E22E6B12D0000E10
:103E9000265D02E1020E255D0AE23151000A02E1CF
:103EA0002E6B04D03105006E00C031F202D0FA0E44
:103EB000316F79D02451020802E12351BC0805E298
:103EC0000A0E316F1F0E2E6F01D02E6B6CD0315148
:103ED000000A0BE1200E2E6F8F96030E2B6F640EDF
:103EE000316F010E00019F6F05D002013105006E98
:103EF00000C031F258D002013151000A03E1210E15
:103F00002E6F04D03105006E00C031F24CD022512A
:103F1000040802E121514C0802E22E6B07D0020E88
:103F2000245D02E1BC0E235DD8A02E6B3CD02E6B2D
:103F30003AD002012E51000AD8B4F7D62E51010A08
:103F4000D8B402D72E51020AD8B40AD72E51030A88
:103F5000D8B410D72E51040AD8B417D72E510A0A54
:103F6000D8B42FD72E510B0AD8B43DD72E510C0AF6
:103F7000D8B44DD72E51140AD8B452D72E51150AA1
:103F8000D8B467D72E51160AD8B479D72E511E0A45
:103F900091E02E511F0A9BE02E51200AACE02E51D9
:103FA000210AB5E0C4D71200949A8B9A1200000E31
:103FB0009EBA010E006E12000F01199B199D199FE8
:103FC000939293909396939C939E8A928A908A96CA
:103FD0008A8C8A8E12000900F5CFE6FF0006FBE10D
:103FE0000106F9E112004CD1060E0201DC6F43EC30
:103FF00000F000C08FF201C090F2000E0201916F3C
:10400000926F8FC200F090C201F091C202F092C292
:1040100003F0940E046E000E056E066E076E97ECAC
:1040200003F000C08FF201C090F202C091F203C011
:1040300092F2070E086E00C004F001C005F002C045
:1040400006F003C007F0085007E0073206320532D9
:104050000432079EFF0FF8D704C08FF205C090F21C
:1040600006C091F207C092F204C021F205C022F20C
:1040700001018D2B16D1070E0201DC6F43EC00F01D
:1040800000C08FF201C090F2000E0201916F926F9A
:104090008FC200F090C201F091C202F092C203F010
:1040A000940E046E000E056E066E076E97EC03F01C
:1040B00000C08FF201C090F202C091F203C092F2F0
:1040C000070E086E00C004F001C005F002C006F043
:1040D00003C007F0085007E0073206320532043209
:1040E000079EFF0FF8D704C08FF205C090F206C0FC
:1040F00091F207C092F204C023F205C024F201013C
:104100008D2BCFD00B0E0201DC6F43EC00F000C012
:104110008FF201C090F2000E0201916F926F000EBB
:10412000925D08E1000E915D05E1000E905D02E1F7
:10413000780E8F5D3AE38FC200F090C201F091C219
:1041400002F092C203F0780E005E000E015A025A8D
:10415000035A00C08FF201C090F202C091F203C076
:1041600092F2770E046E000E056E066E076E97ECE7
:1041700003F000C08FF201C090F202C091F203C0C0
:1041800092F20A0E046E00C08FF201C090F202C0DB
:1041900091F203C092F2045007E0923391339033CE
:1041A0008F33929FFF0FF8D704D08F6B906B916B7A
:1041B000926B8FC225F290C226F201018D2B71D035
:1041C0000A0E0201DC6F43EC00F000C08FF201C068
:1041D00090F2000E0201916F926F000E925D08E165
:1041E000000E915D05E1000E905D02E1780E8F5D9D
:1041F0003AE38FC200F090C201F091C202F092C285
:1042000003F0780E005E000E015A025A035A00C0F5
:104210008FF201C090F202C091F203C092F2770EC9
:10422000046E000E056E066E076E97EC03F000C07C
:104230008FF201C090F202C091F203C092F2090E17
:10424000046E00C08FF201C090F202C091F203C070
:1042500092F2045007E09233913390338F33929F60
:10426000FF0FF8D704D08F6B906B916B926B8FC25E
:1042700027F290C228F201018D6B13D08D6B11D003
:1042800001018D51000AD8B4AFD68D51010AD8B4BE
:10429000F2D68D51020AD8B435D78D51030A90E079
:1042A000EDD7120002018F6B906B8F6B906B000E3D
:1042B000115D02E1690E105D09E3000E006E1151FF
:1042C000005C02E11051A00801E303D0006A016A1A
:1042D00028D08FC200F090C201F000360090013665
:1042E000D80E0024D96E000E0120DA6EDECF01F068
:1042F000DECF02F01151025C02E11051015C03E2D9
:104300008F4B902BE6D78FC200F090C201F0640E65
:10431000046E000E056E8AEC02F000C08FF201C040
:1043200090F21200020111510101F45D04E1020159
:1043300010510101F35D5FE3F551F6110BE0010E41
:10434000F55D006E000EF659016E00C0F5F101C07A
:10435000F6F150D0000E8AB0010E0201976F986BF3
:1043600099EC1DF0150E0B6E4B0E0C6EBE0E0D6E05
:104370000D2EFED70C2EFCD70B2EFAD70000976B14
:1043800065EC1DF0010E976F986B99EC1DF0000E17
:104390008AB6010E976F986B99EC1DF0700EAE6F98
:1043A000000EAF6F100EB06F000EB16F100EB26F37
:1043B000000EB36F280EB46F000EB56F100EB66FFF
:1043C000000EB76F280EB86F000EB96F390EBA6FB6
:1043D000750EBB6F000EBC6F52EC0EF02C6B716B48
:1043E000166B176B1A6B1B6B020E976F010E986F93
:1043F00086EC1DF07CD0020111510101F05D04E159
:10440000020110510101EF5DD8B071D0010E02011F
:104410002C6F010E976F65EC1DF0320E0101F56FE8
:10442000000EF66F320EF76F000EF86F0201345176
:10443000020802E133518A0808E30101E45102084D
:1044400002E1E3518A0801E30FD0010E0201976FE8
:10445000010E986F99EC1DF08F86020E976F010E7A
:10446000986F86EC1DF043D00201010E976F010E8C
:10447000986F86EC1DF0020E345D02E1580E335D3C
:1044800008E2020E0101E45D02E1580EE35DD8A0EE
:104490008F9602013451010802E13351900808E37C
:1044A0000101E451010802E1E351900801E308D061
:1044B000010E0201976F010E986F99EC1DF017D055
:1044C0000201010E345D02E15E0E335D10E2010E69
:1044D0000101E45D02E15E0EE35D09E202012D519E
:1044E000000A05E1010E976F986B99EC1DF0120020
:1044F0000F01256B246B236B25812583928092828B
:1045000092989492969696928D868D82969A8D9A8E
:10451000020E0B6E040E0C6EBA0E0D6E0D2EFED733
:104520000C2EFCD70B2EFAD700008D8A9686E80E4B
:104530000201976F030E986F000E996F9A6F09EC46
:1045400017F0168D289D0201976BCCEC16F003EC4A
:1045500017F0FBEC1AF0D7EC1AF0AE6BB5EC0DF0DF
:104560000F012E9FC8EC1AF0C16ABE0EC06E800EFD
:10457000976F000E986F400E996F000E9A6F010EA4
:104580009B6F9C6B01EC1BF0A00E976F0F0E986F4A
:1045900052EC1BF092949296120002011D511C19CC
:1045A00005E01CC21DF2FA0E0001D66F0001D651C3
:1045B00002018F19D8B486D08FC2D6F0020EAE6F2A
:1045C000000EAF6F040EB06F000EB16F7C0EB26FB5
:1045D000000EB36F380EB46F000EB56F7C0EB66F61
:1045E000000EB76F380EB86F000EB96FC80EBA6FF5
:1045F000650EBB6F000EBC6F52EC0EF0A00EAE6FDE
:10460000000EAF6F050EB06F010EB16F020EB26FEC
:104610002BEC0BF0C90EAE6F000EAF6F050EB06F36
:10462000020EB16F020EB26F2BEC0BF0BC0EAE6F30
:10463000000EAF6F050EB06F030EB16F020EB26FBA
:104640002BEC0BF0EC0EAE6F000EAF6F050EB06FE3
:10465000040EB16F020EB26F2BEC0BF01C51010A6D
:1046600019E11E0EAE6F010EAF6F050EB06F050E95
:10467000B16F020EB26F2BEC0BF0110EAE6F010E8C
:10468000AF6F050EB06F060EB16F020EB26F2BEC5E
:104690000BF018D0380EAE6F010EAF6F050EB06F75
:1046A000050EB16F020EB26F2BEC0BF02B0EAE6F3E
:1046B000010EAF6F050EB06F060EB16F020EB26F36
:1046C0002BEC0BF02B51010A0FE10A0E046E000EC9
:1046D000056E21C200F022C201F09FEC1CF000C068
:1046E00090F201C091F20ED00A0E046E000E056E1B
:1046F00023C200F024C201F09FEC1CF000C090F235
:1047000001C091F2350E976F020E986F90C299F228
:1047100091C29AF2000E9B6F9C6F050E9D6F560E14
:104720009E6FBAEC1CF0350EAE6F020EAF6F4B0EE3
:10473000B06F010EB16F010EB26F2BEC0BF025C202
:1047400000F026C201F090C204F091C205F08AEC9C
:1047500002F0640E046E000E056E9FEC1CF0350E28
:10476000AE6F020EAF6F00C0B0F201C0B1F2000E2A
:10477000B26FB36F030EB46F300EB56FA6EC0AF0D4
:10478000570E386F396B350EAE6F020EAF6F4B0E92
:10479000B06F020EB16F010EB26F2BEC0BF02FC297
:1047A00000F0000E016E003600900136010E00246C
:1047B000E96E010E0120EA6EEECFAEF2EECFAFF25F
:1047C0004B0EB06F030EB16F010EB26F2BEC0BF0FE
:1047D00010C290F211C291F2350E976F020E986FCF
:1047E00010C299F211C29AF2000E9B6F9C6F050ED7
:1047F0009D6F560E9E6FBAEC1CF0350EAE6F020E1A
:10480000AF6F4B0EB06F040EB16F010EB26F2BEC99
:104810000BF0F90EAE6F000EAF6F4B0EB06F050EC2
:10482000B16F010EB26F2BEC0BF008C200F009C2A1
:1048300001F063EC03F00DC104F00EC105F00FC1EF
:1048400006F010C107F03DEC07F0000E046EFE0EFE
:10485000056E7F0E066E8D0E076ED0EC07F08EECA7
:1048600008F000C090F201C091F2350E0201976F7E
:10487000020E986F00C099F201C09AF2000E9B6F71
:104880009C6F060E9D6F410E9E6F57EC1BF0350E10
:10489000AE6F020EAF6F4B0EB06F060EB16F010E12
:1048A000B26F2BEC0BF012000201AE6BB5EC0DF009
:1048B000630E206F65EC18F00EEC17F0FF0E000190
:1048C000D66F120082D0230E0201AE6F000EAF6FC2
:1048D000B06BB16B070EB26F000EB36F100EB46FFA
:1048E000000EB56F070EB66F000EB76F100EB86FE3
:1048F000000EB96FB20EBA6F770EBB6F000EBC6FB1
:1049000052EC0EF06ED00201230EAE6F000EAF6FB0
:10491000B06BB16B070EB26F000EB36F100EB46FB9
:10492000000EB56F070EB66F000EB76F100EB86FA2
:10493000000EB96FC00EBA6F770EBB6F000EBC6F62
:1049400052EC0EF04ED00201230EAE6F000EAF6F90
:10495000B06BB16B070EB26F000EB36F100EB46F79
:10496000000EB56F070EB66F000EB76F100EB86F62
:10497000000EB96FB20EBA6F770EBB6F000EBC6F30
:1049800052EC0EF02ED00201230EAE6F000EAF6F70
:10499000B06BB16B070EB26F000EB36F100EB46F39
:1049A000000EB56F070EB66F000EB76F100EB86F22
:1049B000000EB96FC00EBA6F770EBB6F000EBC6FE2
:1049C00052EC0EF00001D76B0CD00001D751010A58
:1049D000D8B479D7D751020A96E0D751030AB3E089
:1049E000D2D71200AECF01F0ABA202D0AB98AB8809
:1049F00001C000F01200928A978E0F01258B258945
:104A0000120002019151000AD8A4F7D0000E006EE6
:104A10009051005C02E18F516408D8A0EDD0920E55
:104A2000976F020E986F8FC299F290C29AF2000EA1
:104A30009B6F9C6F030E9D6F0A0E9E6F1CEC1CF00B
:104A4000310EAE6F000EAF6F0A0EB06F000EB16F79
:104A5000080EB26F000EB36F100EB46F000EB56F7C
:104A6000080EB66F000EB76F100EB86F000EB96F5C
:104A7000040E046E92C200F0000E016E026E036E10
:104A8000045007E000360090013602360336FF0F6F
:104A9000F8D7830E0024BA6F6E0E0120BB6F000E94
:104AA0000220BC6F52EC0EF0390EAE6F000EAF6FED
:104AB0000A0EB06F000EB16F080EB26F000EB36F2A
:104AC000100EB46F000EB56F080EB66F000EB76F04
:104AD000100EB86F000EB96F040E046E93C200F092
:104AE000000E016E026E036E045007E00036009067
:104AF000013602360336FF0FF8D7830E0024BA6F53
:104B00006E0E0120BB6F000E0220BC6F52EC0EF047
:104B1000410EAE6F000EAF6F0A0EB06F000EB16F98
:104B2000080EB26F000EB36F100EB46F000EB56FAB
:104B3000080EB66F000EB76F100EB86F000EB96F8B
:104B4000040E046E94C200F0000E016E026E036E3D
:104B5000045007E000360090013602360336FF0F9E
:104B6000F8D7830E0024BA6F6E0E0120BB6F000EC3
:104B70000220BC6F52EC0EF0490EAE6F000EAF6F0C
:104B80000A0EB06F000EB16F080EB26F000EB36F59
:104B9000100EB46F000EB56F080EB66F000EB76F33
:104BA000100EB86F000EB96F430EBA6F6F0EBB6F69
:104BB000000EBC6F52EC0EF0510EAE6F000EAF6FD8
:104BC0000A0EB06F000EB16F080EB26F000EB36F19
:104BD000100EB46F000EB56F080EB66F000EB76FF3
:104BE000100EB86F000EB96F230EBA6F6F0EBB6F49
:104BF000000EBC6F52EC0EF011D19151010AD8A4F5
:104C00000DD1920E976F020E986F8FC299F290C2DB
:104C10009AF2000E9B6F9C6F030E9D6F0A0E9E6FA3
:104C20001CEC1CF0310EAE6F000EAF6F0A0EB06FB1
:104C3000000EB16F080EB26F000EB36F100EB46F9E
:104C4000000EB56F080EB66F000EB76F100EB86F7E
:104C5000000EB96F230EBA6F6F0EBB6F000EBC6FE4
:104C600052EC0EF02C0EAE6F000EAF6F0A0EB06F4E
:104C7000000EB16F080EB26F000EB36F100EB46F5E
:104C8000000EB56F080EB66F000EB76F100EB86F3E
:104C9000000EB96F040E046E92C200F0000E016E99
:104CA000026E036E045007E00036009001360236B3
:104CB0000336FF0FF8D7830E0024BA6F6E0E012063
:104CC000BB6F000E0220BC6F52EC0EF0340EAE6FC4
:104CD000000EAF6F0A0EB06F000EB16F080EB26F0C
:104CE000000EB36F100EB46F000EB56F080EB66FE6
:104CF000000EB76F100EB86F000EB96F040E046E81
:104D000093C200F0000E016E026E036E045007E0C5
:104D100000360090013602360336FF0FF8D7830EB7
:104D20000024BA6F6E0E0120BB6F000E0220BC6F14
:104D300052EC0EF03C0EAE6F000EAF6F0A0EB06F6D
:104D4000000EB16F080EB26F000EB36F100EB46F8D
:104D5000000EB56F080EB66F000EB76F100EB86F6D
:104D6000000EB96F330EBA6F6F0EBB6F000EBC6FC3
:104D700052EC0EF0440EAE6F000EAF6F0A0EB06F25
:104D8000000EB16F080EB26F000EB36F100EB46F4D
:104D9000000EB56F080EB66F000EB76F100EB86F2D
:104DA000000EB96F040E046E94C200F0000E016E86
:104DB000026E036E045007E00036009001360236A2
:104DC0000336FF0FF8D7830E0024BA6F6E0E012052
:104DD000BB6F000E0220BC6F52EC0EF04C0EAE6F9B
:104DE000000EAF6F0A0EB06F000EB16F080EB26FFB
:104DF000000EB36F100EB46F000EB56F080EB66FD5
:104E0000000EB76F100EB86F000EB96F530EBA6F69
:104E10006F0EBB6F000EBC6F52EC0EF012008E8650
:104E20008F868B848F888F908D9098909690978C9A
:104E3000978A98989896948094940F012487248553
:104E40009782978497969788258D258F948ECF0E7D
:104E5000AF6EAC8426EC1BF01200640E02018F6F63
:104E600005EC19F00201AE6BB5EC0DF00A0EAE6F59
:104E7000000EAF6FB06BB16B6C0EB26F000EB36F04
:104E8000100EB46F000EB56F6C0EB66F000EB76FDC
:104E9000100EB86F000EB96F430EBA6F710EBB6F74
:104EA000000EBC6F52EC0EF0650EAE6F000EAF6FD1
:104EB000B06B030EB16F010EB26F2BEC0BF05B0EFB
:104EC000AE6F000EAF6FB06B040EB16F010EB26F1C
:104ED0002BEC0BF00A0EAE6F000EAF6F300EB06F02
:104EE000000EB16F180EB26F000EB36F100EB46FDC
:104EF000000EB56F180EB66F000EB76F100EB86FBC
:104F0000000EB96F130EBA6F770EBB6F000EBC6F39
:104F100052EC0EF05E0EAE6F000EAF6F300EB06F43
:104F2000000EB16F180EB26F000EB36F100EB46F9B
:104F3000000EB56F180EB66F000EB76F100EB86F7B
:104F4000000EB96FE30EBA6F760EBB6F000EBC6F2A
:104F500052EC0EF01AEC0EF00052D8B493D0E50EDD
:104F6000AE6F010EAF6FE10EB06F010EB16FD7ECF7
:104F70000CF00050000AD8A485D0000E006E01018C
:104F8000E651005C02E1E5510A083AE2000EE65DF6
:104F900002E1220EE55D34E2000E006EE251005C9B
:104FA00002E1E15130082CE2000EE25D02E1400E28
:104FB000E15D26E20201AE6BB5EC0DF00A0EAE6FBC
:104FC000000EAF6F300EB06F000EB16F180EB26FE3
:104FD000000EB36F100EB46F000EB56F180EB66FE3
:104FE000000EB76F100EB86F000EB96F130EBA6FC8
:104FF000770EBB6F000EBC6F52EC0EF024EF2DF05D
:10500000000E006E0101E651005C02E1E5515E0810
:1050100039E2000EE65D02E1760EE55D33E2000E58
:10502000006EE251005C02E1E15130082BE2000E1B
:10503000E25D02E1400EE15D25E20201AE6BB5ECFE
:105040000DF05E0EAE6F000EAF6F300EB06F000E43
:10505000B16F180EB26F000EB36F100EB46F000E6A
:10506000B56F180EB66F000EB76F100EB86F000E4A
:10507000B96FE30EBA6F760EBB6F000EBC6F52ECC9
:105080000EF001D067D7060E0B6E130E0C6EAD0E30
:105090000D6E02010D2EFDD70C2EFBD70B2EF9D76E
:1050A00000000000AE6BB5EC0DF00A0EAE6F000E06
:1050B000AF6FB06BB16B6C0EB26F000EB36F100EB2
:1050C000B46F000EB56F6C0EB66F000EB76F100E9A
:1050D000B86F000EB96F6B0EBA6F700EBB6F000E1B
:1050E000BC6F52EC0EF00A0EAE6F000EAF6F100EDA
:1050F000B06F000EB16F2C0EB26F000EB36F0F0EBB
:10510000B46F000EB56F2C0EB66F000EB76F0F0E9A
:10511000B86F000EB96F390EBA6F740EBB6F000E08
:10512000BC6F52EC0EF0490EAE6F000EAF6F100E5A
:10513000B06F000EB16F2C0EB26F000EB36F0F0E7A
:10514000B46F000EB56F2C0EB66F000EB76F0F0E5A
:10515000B86F000EB96FE10EBA6F730EBB6F000E21
:10516000BC6F52EC0EF00A0EAE6F000EAF6F200E49
:10517000B06F000EB16F2C0EB26F000EB36F0F0E3A
:10518000B46F000EB56F2C0EB66F000EB76F0F0E1A
:10519000B86F000EB96F910EBA6F740EBB6F000E30
:1051A000BC6F52EC0EF0490EAE6F000EAF6F200ECA
:1051B000B06F000EB16F2C0EB26F000EB36F0F0EFA
:1051C000B46F000EB56F2C0EB66F000EB76F0F0EDA
:1051D000B86F000EB96F810EBA6F720EBB6F000E02
:1051E000BC6F52EC0EF00A0EAE6F000EAF6F300EB9
:1051F000B06F000EB16F2C0EB26F000EB36F0F0EBA
:10520000B46F000EB56F2C0EB66F000EB76F0F0E99
:10521000B86F000EB96F890EBA6F730EBB6F000EB8
:10522000BC6F52EC0EF0490EAE6F000EAF6F300E39
:10523000B06F000EB16F2C0EB26F000EB36F0F0E79
:10524000B46F000EB56F2C0EB66F000EB76F0F0E59
:10525000B86F000EB96F310EBA6F730EBB6F000ED0
:10526000BC6F52EC0EF01AEC0EF00052D8B4A5D17F
:10527000E50EAE6F010EAF6FE10EB06F010EB16FB4
:10528000D7EC0CF00050000AD8A497D1000E006EA5
:105290000101E651005C02E1E5510A083CE2000E22
:1052A000E65D02E1360EE55D36E2000E006EE2518B
:1052B000005C02E1E15110082EE2000EE25D02E125
:1052C0001F0EE15D28E20201AE6BB5EC0DF00A0E97
:1052D000AE6F000EAF6F100EB06F000EB16F2C0EE0
:1052E000B26F000EB36F0F0EB46F000EB56F2C0EC1
:1052F000B66F000EB76F0F0EB86F000EB96F390E94
:10530000BA6F740EBB6F000EBC6F52EC0EF0010E44
:105310000101F96F53D1000E006EE651005C02E10D
:10532000E55149083CE2000EE65D02E1750EE55DDF
:1053300036E2000E006EE251005C02E1E15110081D
:105340002EE2000EE25D02E11F0EE15D28E20201A5
:10535000AE6BB5EC0DF0490EAE6F000EAF6F100ED8
:10536000B06F000EB16F2C0EB26F000EB36F0F0E48
:10537000B46F000EB56F2C0EB66F000EB76F0F0E28
:10538000B86F000EB96FE10EBA6F730EBB6F000EEF
:10539000BC6F52EC0EF0020E0101F96F0FD1000E3E
:1053A000006EE651005C02E1E5510A083BE2000EA6
:1053B000E65D02E1360EE55D35E2000E006EE2517B
:1053C000005C02E1E15120082DE2000EE25D02E105
:1053D0002F0EE15D27E20201AE6BB5EC0DF00A0E77
:1053E000AE6F000EAF6F200EB06F000EB16F2C0EBF
:1053F000B26F000EB36F0F0EB46F000EB56F2C0EB0
:10540000B66F000EB76F0F0EB86F000EB96F910E2A
:10541000BA6F740EBB6F000EBC6F52EC0EF0010140
:10542000F96BCCD0000E006EE651005C02E1E55154
:1054300049083CE2000EE65D02E1750EE55D36E2EC
:10544000000E006EE251005C02E1E15120082EE204
:10545000000EE25D02E12F0EE15D28E20201AE6B7B
:10546000B5EC0DF0490EAE6F000EAF6F200EB06FB1
:10547000000EB16F2C0EB26F000EB36F0F0EB46F33
:10548000000EB56F2C0EB66F000EB76F0F0EB86F13
:10549000000EB96F810EBA6F720EBB6F000EBC6F3B
:1054A00052EC0EF0040E0101F96F88D0000E006E70
:1054B000E651005C02E1E5510A083CE2000EE65DBF
:1054C00002E1360EE55D36E2000E006EE251005C50
:1054D00002E1E15130082EE2000EE25D02E13F0EF2
:1054E000E15D28E20201AE6BB5EC0DF00A0EAE6F85
:1054F000000EAF6F300EB06F000EB16F2C0EB26F9A
:10550000000EB36F0F0EB46F000EB56F2C0EB66F9A
:10551000000EB76F0F0EB86F000EB96F890EBA6F1D
:10552000730EBB6F000EBC6F52EC0EF0030E010148
:10553000F96F44D0000E006EE651005C02E1E551C7
:1055400049083BE2000EE65D02E1750EE55D35E2DD
:10555000000E006EE251005C02E1E15130082DE2E4
:10556000000EE25D02E13F0EE15D27E20201AE6B5B
:10557000B5EC0DF0490EAE6F000EAF6F300EB06F90
:10558000000EB16F2C0EB26F000EB36F0F0EB46F22
:10559000000EB56F2C0EB66F000EB76F0F0EB86F02
:1055A000000EB96F310EBA6F730EBB6F000EBC6F79
:1055B00052EC0EF00101F96B01D055D6060E0B6EC0
:1055C000130E0C6EAD0E0D6E0D2EFED70C2EFCD7ED
:1055D0000B2EFAD7000000000201AE6BB5EC0DF007
:1055E0000A0EAE6F000EAF6FB06BB16B6C0EB26F88
:1055F000000EB36F100EB46F000EB56F6C0EB66F69
:10560000000EB76F100EB86F000EB96F930EBA6F21
:105610006F0EBB6F000EBC6F52EC0EF01B0EAE6F28
:10562000000EAF6F1B0EB06F000EB16F100EB26F99
:10563000000EB36F100EB46F000EB56F100EB66F84
:10564000000EB76F100EB86F000EB96F830EBA6FF1
:10565000770EBB6F000EBC6F52EC0EF0300EAE6FCB
:10566000000EAF6F1B0EB06F000EB16F200EB26F49
:10567000000EB36F100EB46F000EB56F200EB66F34
:10568000000EB76F100EB86F000EB96F890EBA6FAB
:10569000750EBB6F000EBC6F52EC0EF0550EAE6F68
:1056A000000EAF6F1B0EB06F000EB16F100EB26F19
:1056B000000EB36F100EB46F000EB56F100EB66F04
:1056C000000EB76F100EB86F000EB96F430EBA6FB1
:1056D000770EBB6F000EBC6F52EC0EF00A0EAE6F71
:1056E000000EAF6F300EB06F000EB16F2C0EB26FA8
:1056F000000EB36F0F0EB46F000EB56F2C0EB66FA9
:10570000000EB76F0F0EB86F000EB96F310EBA6F83
:10571000730EBB6F000EBC6F52EC0EF0490EAE6FF5
:10572000000EAF6F300EB06F000EB16F2C0EB26F67
:10573000000EB36F0F0EB46F000EB56F2C0EB66F68
:10574000000EB76F0F0EB86F000EB96FD90EBA6F9B
:10575000720EBB6F000EBC6F52EC0EF0350EAE6FCA
:10576000020EAF6F8FC2B0F2000EB16FB26FB36FA7
:10577000030EB46F300EB56FA6EC0AF0350EAE6FA7
:10578000020EAF6F370EB06F040EB16F020EB26F24
:105790002BEC0BF01AEC0EF00052D8B44FD1E50E02
:1057A000AE6F010EAF6FE10EB06F010EB16FD7ECAF
:1057B0000CF00050000AD8A441D1000E006E010187
:1057C000E651005C02E1E5511B084AE2000EE65D8D
:1057D00002E12B0EE55D44E2000E006EE251005C3A
:1057E00002E1E15118083CE2000EE25D02E1280E00
:1057F000E15D36E20A0E02018F5D016E01C08FF29B
:105800003C0E015C02E23C0E8F6F350EAE6F020E55
:10581000AF6F8FC2B0F2000EB16FB26FB36F030EF5
:10582000B46F300EB56FA6EC0AF0350EAE6F020EF7
:10583000AF6F370EB06F040EB16F010EB26F2BEC6D
:105840000BF0060E0B6E130E0C6EAD0E0D6E0D2EC4
:10585000FED70C2EFCD70B2EFAD700000000EED09E
:10586000000E006E0101E651005C02E1E5515508B1
:105870004AE2000EE65D02E1650EE55D44E2000EDF
:10588000006EE251005C02E1E15118083CE2000EBA
:10589000E25D02E1280EE15D36E20A0E02018F258B
:1058A000016E01C08FF20150A00802E2A00E8F6FBE
:1058B000350EAE6F020EAF6F8FC2B0F2000EB16F39
:1058C000B26FB36F030EB46F300EB56FA6EC0AF073
:1058D000350EAE6F020EAF6F370EB06F040EB16FA4
:1058E000010EB26F2BEC0BF0060E0B6E130E0C6E4E
:1058F000AD0E0D6E0D2EFED70C2EFCD70B2EFAD74B
:10590000000000009BD0000E006E0101E651005C1B
:1059100002E1E5510A0842E2000EE65D02E1360EC0
:10592000E55D3CE2000E006EE251005C02E1E151F7
:10593000300834E2000EE25D02E13F0EE15D2EE24E
:10594000640E02018F6F350EAE6F020EAF6F640EE4
:10595000B06F000EB16FB26FB36F030EB46F300E45
:10596000B56FA6EC0AF0350EAE6F020EAF6F370EB4
:10597000B06F040EB16F010EB26F2BEC0BF0060E80
:105980000B6E130E0C6EAD0E0D6E0D2EFED70C2E83
:10599000FCD70B2EFAD70000000050D0000E006E8E
:1059A0000101E651005C02E1E551490847E2000EC1
:1059B000E65D02E1750EE55D41E2000E006EE2512A
:1059C000005C02E1E151300839E2000EE25D02E1E3
:1059D0003F0EE15D33E20201AE6BB5EC0DF0490E16
:1059E000AE6F000EAF6F300EB06F000EB16F2C0EA9
:1059F000B26F000EB36F0F0EB46F000EB56F2C0EAA
:105A0000B66F000EB76F0F0EB86F000EB96FD90EDC
:105A1000BA6F720EBB6F000EBC6F52EC0EF0060E2A
:105A20000B6E130E0C6EAD0E0D6E0D2EFED70C2EE2
:105A3000FCD70B2EFAD70000000001D0ABD68FC2E6
:105A4000E7F1000E0101E86F12003C0ECA6E9D8264
:105A5000F90ECB6EC00EF26E1200140EC86E1BEC67
:105A60001BF0F5EC04F0C80E0201D16FFCEC03F062
:105A70000050000A01E00CD0010E0201D16FFCECD5
:105A800003F0E80E0201D16FFCEC03F077EC03F0B9
:105A90001200EAEC3BF002017C6B7D6B7E6B7F6B4E
:105AA000806B816B826B836B846B856B866B0A0E5C
:105AB000876F000E886F896B8A6B166B176BD4EC3F
:105AC0001FF0DCEC1FF078EC22F0D4EC1FF00FECB0
:105AD00027F0FBEC24F089988B9292989492020123
