:04000000EDEF30F000
:1000080000C016F001C015F09EAA0BD0010E010128
:100018007F25006E000E8021016E00C07FF101C0B7
:1000280080F19EA219D09E920201A75305E0A70570
:10003800006E00C0A7F202D00A0EA76F8A968B9CAA
:10004800A851A75D02E28A868B8CAF51B01104E0FB
:10005800010EAF5F000EB05B16C000F015C001F0D6
:02006800110085
:0C006A001A0E0D6E0D2EFED700001200C5
:0C0076003A0E0D6E0D2EFED70000120099
:080082000AAE029E000E1200FE
:10008A00830EC21645C300F0003600900036009079
:10009A000050C212EBDFC282C2A201D0FDD7C4CF88
:1000AA0001F0006A00C046F301C047F3C3500012D2
:1000BA00000E011200C046F301C047F3000E0014FF
:1000CA00026E0150800B036E000E031802E1000E4F
:1000DA00021803E00301466B476B46C300F047C3AF
:0400EA0001F012000F
:0C00EE00020E0D6E0D2EFED70000120059
:1000FA000B840BAE88EF00F0010E036E026A016AF0
:0A010A00006A0A360232FF0E1200EE
:0E011400026A016A006A086A036A000E12009D
:0A012200A3DF8D88A1DF8D98120085
:10012C000C6A0E6A0250D8A4AFEF00F001C002F0C6
:10013C0000C001F0006A0E860250D8A4AFEF00F0A8
:10014C0001C002F0016A0E960E880250D8B4C1EFBD
:10015C0000F00E50035ED8A4D8A0C6EF00F0D890E3
:10016C0002BECBEF00F0003601360236032EB6EF9E
:10017C0000F0C6EF00F0010E0C6EC6DFCEEF00F003
:10018C00020E0C6EB4DFCEEF00F0040E0C6E73DFBB
:02019C0012004F
:10019E000B1E0A1E091E081E082AD8B4092AD8B436
:0801AE000A2AD8B40B2A120042
:1001B6000450085E0550D8A0053C095E0650D8A03C
:1001C600063C0A5E0750D8A0073C0B5E0336070EB6
:1001D6000C6E0334083609360A360B36045003A073
:1001E6000ED0085E0550D8A0053C095E0650D8A082
:1001F600063C0A5E0750D8A0073C0B5E0DD00826C9
:100206000550D8B0053C09260650D8B0063C0A264B
:100216000750D8B0073C0B2603360C2EDAD702342B
:10022600083609360A360B36045003A00ED0085E8F
:100236000550D8A0053C095E0650D8A0063C0A5ECB
:100246000750D8A0073C0B5E0DD008260550D8B045
:10025600053C09260650D8B0063C0A260750D8B0F9
:10026600073C0B260236070E0C6E0234083609369A
:100276000A360B36045002A00ED0085E0550D8A0F0
:10028600053C095E0650D8A0063C0A5E0750D8A079
:10029600073C0B5E0DD008260550D8B0053C092654
:1002A6000650D8B0063C0A260750D8B0073C0B26A5
:1002B60002360C2EDAD70134083609360A360B36E2
:1002C600045002A00ED0085E0550D8A0053C095E79
:1002D6000650D8A0063C0A5E0750D8A0073C0B5E25
:1002E6000DD008260550D8B0053C09260650D8B0D2
:1002F600063C0A260750D8B0073C0B260136070EE7
:100306000C6E0134083609360A360B36045001A045
:100316000ED0085E0550D8A0053C095E0650D8A050
:10032600063C0A5E0750D8A0073C0B5E0DD0082697
:100336000550D8B0053C09260650D8B0063C0A261A
:100346000750D8B0073C0B2601360C2EDAD70034FE
:10035600083609360A360B36045001A00ED0085E60
:100366000550D8A0053C095E0650D8A0063C0A5E9A
:100376000750D8A0073C0B5E0DD008260550D8B014
:10038600053C09260650D8B0063C0A260750D8B0C8
:10039600073C0B260036070E0C6E0034083609366D
:1003A6000A360B36045000A00ED0085E0550D8A0C1
:1003B600053C095E0650D8A0063C0A5E0750D8A048
:1003C600073C0B5E0DD008260550D8B0053C092623
:1003D6000650D8B0063C0A260750D8B0073C0B2674
:1003E60000360C2EDAD700B00ED004500826055081
:1003F600D8B0053C09260650D8B0063C0A26075058
:08040600D8B0073C0B261200E0
:10040E00060E0C6E2B0E0D6E0D2EFED70C2EFCD77F
:02041E001200CA
:080420000B6A0B86FF0E1200AF
:100428000B820BAE1EEF02F00368026801680068D9
:080438000A360232FF0E120029
:10044000C7B409D01F0EC514016E0150000A03E1A4
:0A045000010E006E01D0006A1200D8
:10045A000B800BAE39EF02F0026A0AAEFF0E026E93
:0C046A00016E006E0A360232FF0E120016
:10047600F250026EF29E0500FF6A0150FE6E0050B9
:08048600FD6E02BEF28E1200B1
:10048E007F0E03014415016E01C044F301AC03D08D
:0C049E008A8A8A9802D08A9A8A88120002
:1004AA00340E0C6EF10E0D6E0D2EFED70C2EFCD7EF
:0604BA000000000012002A
:0E04C0008D988D8E8D9C44C383FF2BDE120021
:1004CE00FF0E956E0DDE0CDE8D8E8D988D8C8D88CB
:1004DE00C5DD83CF44F38D988D9C02DE01DE956AD7
:0604EE0044C300F01200FF
:1004F4007F0E03014415006E00C044F38D9E8D9C55
:10050400BF0E001600C044F3008C00C044F300C0CA
:0605140083FF05DE12006A
:10051A000B6A0A6A096A00500402F4CF09F0F3CFA1
:10052A0008F001500502F4CF0BF0F3CF0AF00050A7
:10053A000502F3500926F4500A22E86A0B220150F8
:10054A000402F3500926F4500A22E86A0B2208C072
:10055A0000F009C001F00AC002F00BC003F012005B
:10056A000B0E0C6E620E0D6E0D2EFED70C2EFCD7E6
:04057A00000012006B
:10057E008D9E8D9CB80E03014411836ECBDD12004F
:10058E0003013C51070801E28CD0020183510301A3
:10059E003A5D006E84C201F0000E015687C204F06F
:1005AE00000E056EB3DF00C042F301C043F33BC340
:1005BE0044F399DF3CC344F3DBDF3E6B020187510A
:1005CE0003013E5D4FE23B517F0801E26AD03BC31F
:1005DE0044F356DF3CC344F3CBDF3BC344F383DF2A
:1005EE006FDF00C03FF36CDF00C03FF33BC344F34B
:1005FE0047DF3CC344F3BCDF3BC344F374DF4251DB
:10060E0002018925F66E0301435102018A21F76E1C
:10061E00000E030143BFFF0E02018B21F86E09008D
:10062E00F5CF00F000C040F30301424B432B001CFA
:10063E00416F09D041C33FF30FD040C33FF30CD0FD
:10064E0040513F1B09D03D51000AF4E03D51010AD3
:10065E00F4E03D51020AF4E03FC344F32ADF3B2BA2
:10066E003E2BACD73BC344F30BDF3CC344F380DFDC
:10067E003BC344F338DFFF0E406F416B0CD040C3D9
:10068E003FF340C344F315DF0CD041C33FF341C3E6
:10069E0044F30FDF06D03D51000AF1E03D51010A4F
:0406AE00F4E0120062
:1006B2009E96C5869EB601D0FDD7C9CF01F0030133
:1006C2003A51000A02E1C58A01D0C59A9E96C588B0
:0C06D2009EB601D0FDD701C000F0120060
:1006DE000050086E0150006E016A026A036A0B6ACE
:1006EE000C6A960E036E0A6A00C001F008C000F094
:0806FE00086A026A14DD120013
:04070600C584120094
:10070A0089988B82000E02017B1902E1800E7A1908
:10071A0008E1000E7E1902E1400E7D1902E172DE47
:10072A0001D0BEDEADC2E1FFAEC2E2FF7CC2E6FF8F
:0C073A00ABC200F0ACC201F099DE12006E
:10074600220E0C6E086A096A0A6A0B6A0C06D8B48D
:100756001FD0D8900B320A320932083203320232E5
:1007660001320032D8A0F2D70C06D8B409D0045012
:1007760008260550092206500A2207500B22EAD7FE
:10078600045008260550092206500A2207500B225B
:0207960012004F
:1007980089888B92000E02017B1902E1800E7A197A
:1007A80008E1000E7E1902E1400E7D1902E12BDE00
:1007B80001D077DEADC2E1FFAEC2E2FFA2C2E6FF22
:0C07C800ABC200F0ACC201F052DE120027
:1007D40089888B9268DEADC2E1FFAEC2E2FFA2C29D
:0E07E400E6FFABC200F0ACC201F043DE120033
:1007F20089988B8259DEADC2E1FFAEC2E2FF7CC2B4
:0E080200E6FFABC200F0ACC201F034DE120023
:100810009E963AC3C9FFC7A401D0FDD79EB601D0AA
:10082000FDD7C5BC02D0006A03D0C584020E006E9D
:020830001200B4
:0A083200C582C5A201D0FDD7120057
:10083C0089988B9234DEADC2E1FFAEC2E2FF7CC27E
:10084C00E6FFABC200F0ACC201F00FDE01500201BA
:10085C008D5D02E100508C5D010ED8B0000E0301DD
:10086C003A6F7DDE7CDEADC2E1FFAEC2E2FF7CC240
:10087C00E6FFABC200F0ACC201F0F7DD01500201A3
:10088C008D5D02E100508C5D010ED8B0000E026E41
:0E089C00025003013A15006E00C03AF312003C
:1008AA000450000A12E10550000A0FE10650000A3E
:1008BA000CE10750000A09E1FF0E006EFF0E016EFF
:1008CA00FF0E026E7F0E036E98D00C6A07BE0C2ACA
:1008DA000D6A0B6A0A6A096A086A03500210011053
:1008EA000010D8B484D0035007180E6E0EBE0D1E29
:1008FA0007AE0BD0041E051E061E071E042AD8B416
:10090A00052AD8B4062AD8B4072A03AE0BD0001E8B
:10091A00011E021E031E002AD8B4012AD8B4022AD4
:10092A00D8B4032A035007100E6E0EBE1CD03EDC4C
:10093A000CBE36D00DAE5BD0001E011E021E031E79
:10094A00002AD8B4012AD8B4022AD8B4032A081E25
:10095A00091E0A1E0B1E082AD8B4092AD8B40A2A64
:10096A00D8B40B2A44D007AE15D003BE0DD003501D
:10097A000B6E02500A6E0150096E0050086E036A2F
:10098A00026A016A006AD6D7036A026A016A006AC1
:10099A00002A000C031E021E011E001E0C8EC7D761
:1009AA00082AD8B4092AD8B40A2AD8B40B2A045077
:1009BA00085CD8A4BFD70550095CD8A4BBD7065099
:1009CA000A5CD8A4B7D707500B5CD8A4B3D70B6A74
:1009DA000A6A096A086A002AD8B4012AD8B4022A1B
:1009EA00D8B4032A03AEA6D70E6A0E88FF0C0E6A85
:0C09FA000CA002D0CFEC00F0000F1200A7
:100A060003013A6B3B6B3B51120802E13A518E08E7
:100A160008E313DD005201E004D003013A4B3B2BFF
:100A2600F2D70301120E3B5D02E18F0E3A5D03E33E
:100A36007B0E006E05D0C580C5A001D0FDD7006A2B
:020A460012009C
:100A48000B6A0A6A096A086A0E6A0334083604508F
:100A5800085E0550D8A0053C095E0650D8A0063CA3
:100A68000A5E0750D8A0073C0B5EE86AD8A0010EC2
:100A78000E5E0336070E0C6E0334083609360A3646
:100A88000B360E36045003A012D0085E0550D8A0CD
:100A9800053C095E0650D8A0063C0A5E0750D8A05F
:100AA800073C0B5EE86AD8A0010E0E5E11D008263E
:100AB8000550D8B0053C09260650D8B0063C0A2691
:100AC8000750D8B0073C0B26E86AD8B0010E0E26AE
:100AD80003360C2ED1D70234083609360A360B36BF
:100AE8000E36045003A012D0085E0550D8A0053C6D
:100AF800095E0650D8A0063C0A5E0750D8A0073CFD
:100B08000B5EE86AD8A0010E0E5E11D008260550CB
:100B1800D8B0053C09260650D8B0063C0A2607502E
:100B2800D8B0073C0B26E86AD8B0010E0E2602366C
:100B3800070E0C6E0234083609360A360B360E36A6
:100B4800045002A012D0085E0550D8A0053C095EEA
:100B58000650D8A0063C0A5E0750D8A0073C0B5E9A
:100B6800E86AD8A0010E0E5E11D008260550D8B04C
:100B7800053C09260650D8B0063C0A260750D8B0CE
:100B8800073C0B26E86AD8B0010E0E2602360C2E5A
:100B9800D1D70134083609360A360B360E360450DA
:100BA80002A012D0085E0550D8A0053C095E065088
:100BB800D8A0063C0A5E0750D8A0073C0B5EE86A3E
:100BC800D8A0010E0E5E11D008260550D8B0053CFD
:100BD80009260650D8B0063C0A260750D8B0073C6C
:100BE8000B26E86AD8B0010E0E260136070E0C6EE9
:100BF8000134083609360A360B360E36045001A081
:100C080012D0085E0550D8A0053C095E0650D8A051
:100C1800063C0A5E0750D8A0073C0B5EE86AD8A0DD
:100C2800010E0E5E11D008260550D8B0053C0926E5
:100C38000650D8B0063C0A260750D8B0073C0B2609
:100C4800E86AD8B0010E0E2601360C2ED1D7003432
:100C5800083609360A360B360E36045001A012D073
:100C6800085E0550D8A0053C095E0650D8A0063C91
:100C78000A5E0750D8A0073C0B5EE86AD8A0010EB0
:100C88000E5E11D008260550D8B0053C092606503E
:100C9800D8B0063C0A260750D8B0073C0B26E86AAD
:100CA800D8B0010E0E260036070E0C6E003408363A
:100CB80009360A360B360E36045000A012D0085EEC
:100CC8000550D8A0053C095E0650D8A0063C0A5E2F
:100CD8000750D8A0073C0B5EE86AD8A0010E0E5E4C
:100CE80011D008260550D8B0053C09260650D8B0C2
:100CF800063C0A260750D8B0073C0B26E86AD8B04D
:100D0800010E0E2600360C2ED1D700B00ED004509E
:100D180008260550D8B0053C09260650D8B0063C30
:0C0D28000A260750D8B0073C0B2612002A
:100D3400016A026A03013E51025C02E13D51015C19
:100D44000BE201503A25E16E02503B21E26E3CC3B6
:0A0D5400E6FF014A022AEED7120062
:100D5E000B6A0C6A0A6A086A0350D8B437EF07F0B8
:100D6E00028E9E0E035E03BEC2EF06F0D8B4C2EF33
:100D7E0006F027EF07F0036C080E035CD8A0F4EF23
:100D8E0006F0036E083600C008F001C000F002C085
:100D9E0001F0026A080E035CD8A0F4EF06F0036EB1
:100DAE00083600C008F001C000F0016A080E035CAE
:100DBE00D8A0F4EF06F0036E083600C008F0006A03
:100DCE00080E035CD8A0F4EF06F0036E0836086A2E
:100DDE000350D8A4D89000EF07F00350D8B400EF1A
:100DEE0007F0D8900232013200320832032EF8EFAB
:100DFE0006F00BBC08A011EF07F0D8A011EF07F01A
:100E0E00082AD8B4002AD8B4012AD8B4022A02BEBD
:100E1E003BEF07F00AAE37EF07F0021E011E001E71
:100E2E00081E082AD8B4002AD8B4012AD8B4022A37
:100E3E0037EF07F0026A016A006A086A37EF07F0B7
:100E4E000B800BAE41EF07F0026A0AAE41EF07F0DE
:100E5E00026E016E006E086E0A36023241EF07F026
:100E6E00000E0C6A42EF07F0010E0C6E2DEC02F034
:100E7E0042EF07F0FF0E0250036E0150026E00505B
:080E8E00016E0850006E120015
:100E9600086A096A000E07620364D0EF07F0025081
:100EA60006180A6E075003267E0ED8A061EF07F0DB
:100EB600035ED8B0D5EF07F065EF07F0035ED8A064
:100EC600DAEF07F0028E068E02C00EF001C00BF0BC
:100ED60000C00DF000500402F4CF0CF001500502E2
:100EE600F4CF00F0F3CF08F00402F3500C26F450D0
:100EF6000822000E00220D500502F3500C26F45075
:100F06000822000E002202500402F3500826F45074
:100F1600002202500502016A000E0122F35000264B
:100F2600F45001220D500602F3500826F450002218
:100F3600026A000E012202220B500602F35000261E
:100F4600F4500122000E02220E500602F350012632
:100F5600F450022202BEB8EF07F00836003601361A
:100F660002360306D8B4DAEF07F0CBEF07F0D880E5
:100F7600800E08640030000E002201220222D8A052
:100F8600CBEF07F0023201320032034AD5EF07F009
:100F96000AAE029E000EDDEF07F0010E8AEC00F0AD
:100FA600DDEF07F0020E14EC02F0DDEF07F0040EA1
:060FB6007DEC00F01200CA
:100FBC000450000A12E10550000A0FE10650000A25
:100FCC000CE10750000A09E1FF0E006EFF0E016EE6
:100FDC007F0E026EFF0E036EA8D0086A096A0750D6
:100FEC00D8B489EF08F00350D8B48EEF08F0025053
:100FFC0006180A6E028E068E0E6A02C008F001C038
:10100C000CF000C00DF004500D5E0550D8A0053C4E
:10101C000C5E0650D8A0063C085E086A0C6A0D6A85
:10102C00D8A020EF08F0D8900232013200320832FA
:10103C00010E0E6E0750035ED8A02DEF08F07E0E49
:10104C000E240326D8B093EF08F033EF08F07E0E91
:10105C000E240326D8A098EF08F0180E0B6E0D3650
:10106C000C3608360036013602360E360450005E59
:10107C000550D8A0053C015E0650D8A0063C025E87
:10108C0006340E120EA04EEF08F00D8059EF08F04A
:10109C00045000260550D8B0053C01260650D8B0A7
:1010AC00062802260D900B2E35EF08F07FEF08F086
:1010BC00D8900036013602360E360450005E0550CC
:1010CC00D8A0053C015E0650D8A0063C025E063452
:1010DC000E10010B0D26D8B00C2AD8B4082AD8A4AF
:1010EC007FEF08F008320C320D32032AD8B493EF9C
:1010FC0008F00AAE089E0850026E0C50016E0D509E
:10110C00006E9BEF08F0010E10EC02F09BEF08F064
:10111C00020E8AEC00F09BEF08F0040E14EC02F0C7
:0C112C009BEF08F0080E7DEC00F01200B4
:101138000B6A0C6A0A6A0350D8B4E6EF08F0028E0C
:101148008E0E035E03BEAEEF08F0D8B4AEEF08F023
:10115800EAEF08F0036C080E035CD8A0C5EF08F0AE
:10116800036E013602C001F0026A080E035CD8A0C3
:10117800C5EF08F00136016A0350D8A4D890CFEF24
:1011880008F00350D8B4CFEF08F0D89002320132FB
:10119800032EC9EF08F00BBC01A0DCEF08F0D8A0C3
:1011A800DCEF08F0012AD8B4022A02BEF9EF08F0F1
:1011B8000AAEFFEF08F0021E011E012AD8B4022A67
:1011C800FFEF08F0026A016AFFEF08F00B800BAE30
:1011D80003EF09F0026A0AAE03EF09F0FF0E026E90
:1011E800016E0A36023203EF09F0010E0C6E2DEC87
:1011F80002F005EF09F0000E0C6E05EF09F0FF0E86
:0C1208000C6E0150006E0250016E1200CE
:101214007FA202D00000FCD77F9C18C363FF17C3D2
:1012240062FF19C361FF7F9E7F84F2CF00F0F29EBC
:10123400550E7E6EAA0E7E6E7F8200BE02D0F29E96
:0812440001D0F28E7F9412002C
:10124C001EEC04F0005201E1FBD7000E02017B19E9
:10125C0002E1800E7A1919E1000E7E1902E1400EAE
:10126C007D1913E1EAEC03F0050E00240201816FF5
:10127C00000E0120826FF9EC03F0050E0024020130
:10128C007F6F000E0120806F12D0EAEC03F0030E8A
:10129C0000240201816F000E0120826FF9EC03F033
:1012AC00030E002402017F6F000E0120806F1200DC
:1012BC0003011D51000A03E1010E006E7CD017C31F
:1012CC003AF318C33BF31EC33CF31DC33DF3000EAE
:1012DC003E6F2ADD1D511725E16E000E1821E26EBE
:1012EC00E66A1D071D511725E16E000E1821E26EEE
:1012FC00300EE66E1C51000808E11B51000805E198
:10130C001A51000802E11951000854E21D51172529
:10131C001F6F000E1821206F0A0E046E000E056E52
:10132C00066E076E19C300F01AC301F01BC302F05E
:10133C001CC303F024EC05F008C000F009C001F058
:10134C000AC002F00BC003F0300E00261FC3E1FFF1
:10135C0020C3E2FF00C0E6FF0A0E046E000E056E0D
:10136C00066E076E19C300F01AC301F01BC302F01E
:10137C001CC303F024EC05F000C019F301C01AF3F0
:10138C0002C01BF303C01CF31DC301F01D07015069
:10139C00000A0FE11C51000808E11B51000805E18F
:1013AC001A51000802E11951000803E2010E006E07
:0813BC0002D0A0D7006A120064
:1013C4000301176B186B196B0201C56BC66BB96B04
:1013D400BA6BBF6BC06B03EC05F0C80E03013A6F28
:1013E40008EC04F000C017F30050000A03E017C330
:1013F40000F089D1020E03013A6F08EC04F019ECF5
:1014040004F0C90E03013A6F08EC04F0010E030165
:101414003A6F59EC03F000C018F3000E0301196F82
:1014240018C319F3186B010E3A6F59EC03F0000E50
:10143400016E0301185100121951011200C018F372
:1014440001C019F300C0B3F201C0B4F283EC03F09D
:10145400030E0B6E080E0C6E770E0D6E0D2EFED75E
:101464000C2EFCD70B2EFAD703EC05F0C80E0301A3
:101474003A6F08EC04F000C017F30050000A03E0D0
:1014840017C300F040D1080E03013A6F08EC04F0D2
:1014940019EC04F0C90E03013A6F08EC04F0010ED4
:1014A40003013A6F59EC03F000C018F3000E030176
:1014B400196F18C319F3186B010E3A6F59EC03F046
:1014C400000E016E0301185100121951011200C0DF
:1014D40018F301C019F300C0B9F201C0BAF283ECE9
:1014E40003F04D0E0201B925006E010EBA21016E02
:1014F40000C0B9F201C0BAF26FEC03F0000E046E42
:10150400000E056E6C0E066E860E076EC2DC000EB3
:10151400046EFF0E056E7F0E066E8E0E076E4CDD9A
:101524001CDC00C0C7F201C0C8F20301186B196BC0
:10153400030E0B6E080E0C6E770E0D6E0D2EFED77D
:101544000C2EFCD70B2EFAD703EC05F0C80E0301C2
:101554003A6F08EC04F000C017F30050000A03E0EF
:1015640017C300F0D0D00E0E03013A6F08EC04F05C
:1015740000C017F30050000A03E017C300F0C3D003
:1015840019EC04F0C90E03013A6F08EC04F000C032
:1015940017F30050000A03E017C300F0B4D0010EA3
:1015A40003013A6F59EC03F000C018F3000E030175
:1015B400196F18C319F3186B010E3A6F59EC03F045
:1015C400000E016E0301185100121951011200C0DE
:1015D40018F301C019F300C0BFF201C0C0F283ECDC
:1015E40003F00201C0517F0802E1BF51FF0814E279
:1015F400010ED56FFF0EBF5D016E7F0EC059026EE6
:1016040001C0BFF202C0C0F2000E025C02E1140E7F
:10161400015CD8A0D56B0CD0D56BBF51FF08006E10
:10162400C0C201F07F0E015600C0BFF201C0C0F27B
:10163400BFC200F0C0C201F06FEC03F04DC104F072
:101644004EC105F04FC106F050C107F022DCAFECEB
:1016540006F0FF0E046E7F0E056E000E066E076E1A
:1016640024EC05F000C0C9F201C0CAF20301186BF2
:10167400196B030E0B6E080E0C6E770E0D6E0D2E8D
:10168400FED70C2EFCD70B2EFAD703EC05F0C80EB0
:1016940003013A6F08EC04F000C017F30050000A8D
:1016A40003E017C300F02FD0140E03013A6F08ECC7
:1016B40004F019EC04F0C90E03013A6F08EC04F0CD
:1016C400010E03013A6F59EC03F000C018F3000E49
:1016D4000301196F18C319F3186B010E3A6F59EC13
:1016E40003F0000E016E030118510012195101128A
:1016F40000C018F301C019F300C0C5F201C0C6F25E
:0817040083EC03F0006A1200FF
:10170C000CB0C8EF0BF00CA270EF0CF00E6A000ED0
:10171C000264DFEF0BF0F00E0214D8A4AAEF0BF06A
:10172C00023A01380F0B02260138F00B016E00381B
:10173C000F0B01260038F00B006E08380F0B00263B
:10174C000838F00B086E0E84D89002BEC3EF0BF075
:10175C0008360036013602360E2A02BEC3EF0BF0F5
:10176C0008360036013602360E2A02BEC3EF0BF0E5
:10177C0008360036013602360E2A0E50036464EF2A
:10178C000CF0035E0BBC08AE6AEF0CF0D880800E38
:10179C0008640030000E002201220222D8A06AEF59
:1017AC000CF0023201320032034A70EF0CF06AEF97
:1017BC000CF001C002F000C001F008C000F0086A93
:1017CC00000E0E86026416EF0CF0F00E0214D8A474
:1017DC00FEEF0BF0023A01380F0B02260138F00B2A
:1017EC00016E00380F0B01260038F00B006E0E84D2
:1017FC00D89002BEC3EF0BF00036013602360E2A2B
:10180C0002BEC3EF0BF00036013602360E2A02BEC2
:10181C00C3EF0BF00036013602360E2AC3EF0BF085
:10182C0001C002F000C001F0006A000E0E960E8896
:10183C00026443EF0CF0F00E0214D8A42EEF0CF05F
:10184C00023A01380F0B02260138F00B016E0E84A0
:10185C00D89002BEC3EF0BF0013602360E2A02BE40
:10186C00C3EF0BF0013602360E2A02BEC3EF0BF0AB
:10187C00013602360E2AC3EF0BF001C002F0016AEA
:10188C00000E0E86026476EF0CF0F00E0214D8A453
:10189C0052EF0CF0023A0E84D89002BEC3EF0BF05C
:1018AC0002360E2A02BEC3EF0BF002360E2A02BE1F
:1018BC00C3EF0BF002360E2AC3EF0BF0010E0C6EC9
:1018CC007DEC00F07AEF0CF0020E0C6E41EC00F0A7
:1018DC007AEF0CF0040E0C6E14EC02F07AEF0CF0B4
:0A18EC00080E0C6E8AEC00F01200EA
:1018F6001EEC04F0005201E1FBD7000E02017B1939
:1019060002E1800E7A1919E1000E7E1902E1400EFD
:101916007D1913E1EAEC03F00A0E005C0201A06FE8
:10192600000E0158A16FF9EC03F00A0E005C0201EB
:101936009E6F000E01589F6F12D0EAEC03F0030E63
:10194600005C0201A06F000E0158A16FF9EC03F0D4
:10195600030E005C02019E6F000E01589F6F12007D
:10196600CCEC03F00201A051005C03011B6F0201E5
:10197600A151015803011C6F85EC03F002019E5131
:10198600005C0301276F02019F5101580301286F74
:1019960027C31DF328C31EF31BC300F01CC301F0AD
:1019A600000E1CBFFF0E026E036E7AC204F07BC2ED
:1019B60005F0000E066E076EA3EC03F00201A051BF
:1019C600815D046EA1518259056E000E066E076E8A
:1019D60055EC04F000C023F301C024F302C025F344
:1019E60003C026F323C31BF324C31CF327C300F051
:1019F60028C301F0000E030128BFFF0E026E036E1E
:101A06007DC204F07EC205F0000E066E076EA3ECE2
:101A160003F002019E517F5D046E9F518059056E51
:101A2600000E066E076E55EC04F0005002017D5D57
:101A360003011D6F015002017E5903011E6F800EC6
:101A46002419006E800E005C02E1000E235D0BE39C
:101A560002017B5103011C5D04E102017A5103017D
:101A66001B5D01E203D0010E006E72D0800E1E19BE
:101A7600006E800E005C02E1000E1D5D0BE30201AC
:101A86007E5103011E5D04E102017D5103011D5DCE
:101A960001E203D0010E006E5BD00201A5510301E5
:101AA6001B5D016E0201A65103011C59026E01C0A5
:101AB6001FF302C020F30201A35103011D5D216F34
:101AC6000201A45103011E59226F1BC3A5F21CC3B8
:101AD600A6F21DC3A3F21EC3A4F2800E000A006E76
:101AE600800E0218005C02E1015005081DE3800E1D
:101AF600000A006E800E2219005C02E121510508E1
:101B060013E3800E2019006E7F0E005C02E1FB0ECF
:101B16001F5D0AE3800E2219006E7F0E005C02E153
:101B2600FB0E215D01E303D0010E006E11D017C339
:101B3600E1FF18C3E2FF1BC3E6FF1CC3E6FF19C3A0
:101B4600E1FF1AC3E2FF1DC3E6FF1EC3E6FF006AFC
:021B560012007B
:101B580003011C6B0201AA51000A0EE1050E876FF2
:101B6800070E886FC80E896F710E8A6F000E8B6F13
:101B7800200E836F000E846F03011C511725E96E38
:101B8800000E1821EA6EEE5219E01C511725E96E75
:101B9800000E1821EA6EEECF3AF319C33BF31AC3CD
:101BA8003CF31BC33DF3C7EC02F002018751010F60
:0E1BB800006E0050030119271C2BDED712000F
:101BC60089988B9207EC02F0ADC2E1FFAEC2E2FF4C
:101BD6007CC2E6FFABC200F0ACC201F03BEC02F007
:101BE600015002018D5D02E100508C5D010ED8B0FE
:101BF600000E0301176F07EC02F0ADC2E1FFAEC2A3
:101C0600E2FF7CC2E6FFABC200F0ACC201F03BECE7
:101C160002F0015002018D5D02E100508C5D010E63
:101C2600D8B0000E026E025003011715006E00C0F8
:041C360017F312008E
:101C3A00000E0301175D0AE317517F0807E3000E40
:101C4A00185D04E318513F0801E301D052D017C3CD
:101C5A0044F347EC02F018C344F34433449F44333B
:101C6A00449F4433449FBFEC02F017C344F37AEC19
:101C7A0002F067EC02F000C01CF367EC02F000C04F
:101C8A001CF318C344F34433449F4433449F4433FE
:101C9A00449FBFEC02F017C344F37AEC02F0070E3C
:101CAA001815006E00C01AF300C001F0010E006E94
:101CBA00015004E000360090FF0FFBD700C01AF372
:101CCA00001C1B6F09D01B511C170FD01A511C1373
:101CDA000CD01A511C1B09D01951000AF4E01951F1
:101CEA00010AF4E01951020AF4E01CC344F360EC5F
:041CFA0002F01200E2
:101CFE008A9A8A880301196B1951070810E319C3D0
:101D0E0044F3BFEC02F0186B18513F0806E317C3FB
:101D1E0044F360EC02F0182BF7D7192BEDD78A9805
:101D2E008A8A196B1951070810E319C344F3BFECE3
:101D3E0002F0186B18513F0806E317C344F360EC2A
:0C1D4E0002F0182BF7D7192BEDD712006C
:101D5A0003012C6B2D6B2E6B2F6B306B316B326B3F
:101D6A00336B1B511725006E1C511821016E010E91
:101D7A00005C026E000E0158036E000E006E0350E6
:101D8A00005C02E102507F0807E2175180081B6FCE
:101D9A0018C31CF3000E1C571D511925006E1E5145
:101DAA001A21016E010E005C026E000E0158036ECC
:101DBA00000E006E0350005C02E102503F0807E289
:101DCA00195140081D6F1AC31EF3000E1E5719C37E
:101DDA0000F01AC301F001320032019E01320032D2
:101DEA00019E01320032019E00C026F31D511925C1
:101DFA00056E1E511A21066E010E055C036E000E59
:101E0A000658046E03C000F004C001F0013200322B
:101E1A00019E01320032019E01320032019E00C051
:101E2A0027F3070E1915006E1AC301F0000E0116EA
:101E3A0000C029F3070E0514006E06C001F0000E5B
:101E4A00011600C02AF322511E5D02E121511D5DD7
:101E5A0003E227C32BF31BD021511925006E22510F
:101E6A001A21016E010E005C036E000E0158046E09
:101E7A0003C000F004C001F001320032019E0132B9
:101E8A000032019E01320032019E00C02BF3070E80
:101E9A002115016E22C302F0000E0216000E02186E
:101EAA0002E1000E011818E121C300F022C301F07B
:101EBA0001320032019E01320032019E01320032AB
:101ECA00019E1FC304F020C305F08DEC02F000C090
:101EDA0036F301C037F319D021C300F022C301F051
:101EEA0001320032019E01320032019E013200327B
:101EFA00019E004A012A1FC304F020C305F08DEC9D
:101F0A0002F000C036F301C037F326C32CF3000EEB
:101F1A002D6F000E006E2D51005C02E12C51275DE1
:101F2A00D8A003D1346B356B2E6B2F6B1C512F5DF0
:101F3A0002E11B512E5DD8B0E7D02E511725446F10
:101F4A0047EC02F02CC344F3BFEC02F020512F5DA2
:101F5A0002E11F512E5D3DE2000E006E2D51005C24
:101F6A0002E12C512B5D35E3000E2D1902E12651B9
:101F7A002C1902E1386B12D032513425006E3351DC
:101F8A003521016E00502325F66E01502421F76E8B
:101F9A00000E2521F86E0900F5CF38F33751315D6F
:101FAA0002E13651305D02E3396B12D030513425EB
:101FBA00006E31513521016E00502325F66E015015
:101FCA002421F76E000E2521F86E0900F5CF39F3AA
:101FDA0002D0396B386B39C328F3295100081AE249
:101FEA0029510808006E016A000E015A38C328F305
:101FFA00005004E02833289FFF0FFBD729C301F0C4
:10200A0039C300F0015004E000360090FF0FFBD7FF
:10201A0000502813000E2D1902E126512C192DE12A
:10202A00295100082AE22E511725446F7AEC02F052
:10203A0067EC02F067EC02F029510808016E026AA7
:10204A00000E025A01C002F0FF0E016E025004E0B7
:10205A000132019EFF0FFBD701500014026E29C303
:10206A0001F0FF0E006E015004E000360090FF0FF1
:10207A00FBD70050281702502813000E2D1902E131
:10208A0027512C192DE12A5100082AE22E51172531
:10209A00446F7AEC02F067EC02F067EC02F02AC3B4
:1020AA0002F0FF0E016E025004E001360190FF0FAC
:1020BA00FBD701500014026E2A510808006E016A0B
:1020CA00000E015A00C001F0FF0E006E015004E03C
:1020DA000032009EFF0FFBD700502817025028132A
:1020EA0020512F5D02E11F512E5D02E2344B352B48
:1020FA002E511725446F7AEC02F028C344F360ECA2
:10210A0002F02E4B2F2B12D7000E2D5D02E12B5120
:10211A002C5D08E230C332F331C333F31F51302749
:0C212A00205131232C4B2D2BF4D6120039
:102136007F9C0CC363FF0BC362FF7F9E7F8061CFD2
:0421460000F0120093
:10214A000BC3E1FF0CC3E2FFA0C2E6FFA1C2E6FF98
:10215A000DC3E1FF0EC3E2FF81C2E6FF82C2E6FFC2
:10216A000FC3E1FF10C3E2FF9EC2E6FF9FC2E6FF74
:10217A0011C3E1FF12C3E2FF7FC2E6FF80C2E6FF9E
:02218A00120041
:10218C000301176B3F0E186F010E196F50DD410ED6
:10219C00176F000E186F0C0E196F030E1A6F010ECD
:1021AC001B6FD4DC7BEC0CF0290E0B6E960E0C6EB8
:1021BC007F0E0D6E0D2EFED70C2EFCD70B2EFAD7E4
:1021CC000301176B3F0E186F196B31DD7F0E176F04
:1021DC00186B010E196F2BDD8F0E176F000E186F19
:1021EC000C0E196F030E1A6F010E1B6FAFDC7D0EF8
:1021FC00176F000E186F0C0E196F040E1A6F010E6C
:10220C001B6FA4DC26EC09F0290E0B6E960E0C6EDF
:10221C007F0E0D6E0D2EFED70C2EFCD70B2EFAD783
:02222C0012009E
:10222E00020E0301176F000E186F196B1A6B1F0E3B
:10223E001B6F000E1C6F100E1D6F000E1E6F1F0EFB
:10224E001F6F000E206F100E216F000E226FB30E47
:10225E00236F7E0E246F000E256F78DD020E176F32
:10226E00000E186F196B1A6B1F0E1B6F000E1C6F72
:10227E00100E1D6F000E1E6F1F0E1F6F000E206FB3
:10228E00100E216F000E226F750E236F7E0E246FBF
:10229E00000E256F5BDD230E176F000E186F196B86
:1022AE001A6B070E1B6F000E1C6F100E1D6F000EAB
:1022BE001E6F070E1F6F000E206F100E216F000E87
:1022CE00226F6B0E236F800E246F000E256F3EDD86
:0222DE001200EC
:1022E000025006180E6E086A096A0B6A03500764EA
:1022F00063EF12F006500A6E068E028E03500B6ECC
:102300000750036E000E0B64B3EF11F00B50075E25
:10231000D8B454EF12F0070E076422EF12F0075EF4
:1023200000C008F001C000F002C001F0026A074ED0
:1023300054EF12F00764F7EF11F0075E00C008F0E9
:1023400001C000F0016A074E54EF12F00764D5EFA8
:1023500011F0075E00C008F0006A074E54EF12F05B
:102360000764BCEF11F00AC002F005C001F004C020
:1023700000F0086A80EF13F0030E0764C7EF11F056
:10238000075E08380F0B086E074E54EF12F0D89016
:102390000832074E54EF12F0D8900832074E54EF2F
:1023A00012F0D890083254EF12F0030E0764E6EFF3
:1023B00011F0075E08380F0B086E0038F00B082686
:1023C00000380F0B006E074E54EF12F0D890003219
:1023D0000832074E54EF12F0D89000320832074E00
:1023E00054EF12F0D8900032083254EF12F0030E7E
:1023F00007640EEF12F0075E08380F0B086E003806
:10240000F00B082600380F0B006E0138F00B002689
:1024100001380F0B016E074E54EF12F0D8900132C5
:1024200000320832074E54EF12F0D89001320032D9
:102430000832074E54EF12F0D890013200320832C1
:1024400054EF12F0030E07643FEF12F0075E0838F6
:102450000F0B086E0038F00B082600380F0B006ECB
:102460000138F00B002601380F0B016E0238F00B1B
:10247000012602380F0B026E074E54EF12F0D8906F
:102480000232013200320832074E54EF12F0D89077
:102490000232013200320832074E54EF12F0D89067
:1024A0000232013200320832096A000E0EAE48EFE5
:1024B00013F0081E001E011E021E082A002201221F
:1024C000022248EF13F00750D8A469EF12F080EF12
:1024D00013F0096A02C00AF0028E068E0750035CF0
:1024E000076ED8B43BEF13F0070E076409EF13F043
:1024F000075E0450096E0550046E0650056E066AAC
:10250000074E3BEF13F0070E0764DEEF12F0075E95
:102510000450096E0550046E056A074E3BEF13F038
:10252000070E0764BCEF12F0075E0450096E046AE0
:10253000074E3BEF13F0070E0764A3EF12F00AC03B
:1025400002F080EF13F0030E0764AEEF12F0075EA7
:1025500009380F0B096E074E3BEF13F0D890093284
:10256000074E3BEF13F0D8900932074E3BEF13F0C4
:10257000D89009323BEF13F0030E0764CDEF12F051
:10258000075E09380F0B096E0438F00B0926043872
:102590000F0B046E074E3BEF13F0D8900432093254
:1025A000074E3BEF13F0D89004320932074E3BEF51
:1025B00013F0D890043209323BEF13F0030E076496
:1025C000F5EF12F0075E09380F0B096E0438F00BB7
:1025D000092604380F0B046E0538F00B0426053865
:1025E0000F0B056E074E3BEF13F0D8900532043207
:1025F0000932074E3BEF13F0D8900532043209320E
:10260000074E3BEF13F0D8900532043209323BEF0E
:1026100013F0030E076426EF13F0075E09380F0B63
:10262000096E0438F00B092604380F0B046E0538C8
:10263000F00B042605380F0B056E0638F00B052647
:1026400006380F0B066E074E3BEF13F0D89006329C
:10265000053204320932074E3BEF13F0D8900632B0
:10266000053204320932074E3BEF13F0D8900632A0
:10267000053204320932086A000E0EAE48EF13F03C
:10268000091E041E051E061E092A04220522062212
:10269000095008260450002205500122065002224B
:1026A0000EBE5FEF13F0D8A06EEF13F002320132CE
:1026B00000320832033E6EEF13F07AEF13F0D8B019
:1026C00074EF13F0000E081E001E011E021E082AE1
:1026D0000022012202220A7E74EF13F0010E0C6E1A
:1026E00086EC0BF082EF13F0020E0C6E86EC0BF012
:1026F00082EF13F0040E0C6E14EC02F082EF13F074
:06270000000E0C6E120039
:10270600086A096A100E0C6E013408360936045040
:10271600085E0550D8A0053C095ED8B007D0045025
:1027260008260550D8B0053C0926D8900036013653
:062736000C2EEAD7120090
:10273C0003011151000A03E1010E006E7BD00BC3A3
:10274C003AF30CC33BF312C33CF311C33DF3000E3D
:10275C003E6F9AEC06F011510B25E16E000E0C2128
:10276C00E26EE66A110711510B25E16E000E0C2189
:10277C00E26E0A0EE66E1051000808E10F510008D7
:10278C0005E10E51000802E10D51000852E2115111
:10279C000B25136F000E0C21146F0A0E046E000E25
:1027AC00056E066E076E0DC300F00EC301F00FC36D
:1027BC0002F010C303F024EC05F008C000F009C0CF
:1027CC0001F00AC002F00BC003F013C3E1FF14C305
:1027DC00E2FF00C0E6FF0A0E046E000E056E066EE8
:1027EC00076E0DC300F00EC301F00FC302F010C34F
:1027FC0003F024EC05F000C00DF301C00EF302C091
:10280C000FF303C010F311C301F011070150000ABC
:10281C000FE11051000808E10F51000805E10E51BD
:10282C00000802E10D51000803E2010E006E02D017
:06283C00A2D7006A1200A1
:102842000BC3A0F20CC3A1F20DC381F20EC382F23C
:102852000FC39EF210C39FF211C37FF212C380F224
:02286200120062
:1028640003010B6B0C6B0D6B0E6B0F6B106B116B11
:10287400126B176B7FEC0EF00A0E176F000E186FB9
:10288400196B1A6B6C0E1B6F000E1C6F100E1D6FF4
:10289400000E1E6F6C0E1F6F000E206F100E216F46
:1028A400000E226FD10E236F790E246F000E256F58
:1028B400ADEC0EF0A10E176F000E186F196B030E1E
:1028C4001A6F010E1B6FACEC0DF0C70E176F000EE4
:1028D400186F196B040E1A6F010E1B6FACEC0DF020
:1028E4000A0E176F000E186F300E196F000E1A6F54
:1028F400180E1B6F000E1C6F100E1D6F000E1E6F46
:10290400180E1F6F000E206F100E216F000E226F25
:10291400AB0E236F7F0E246F000E256FADEC0EF00F
:102924005E0E176F000E186F300E196F000E1A6FBF
:10293400180E1B6F000E1C6F100E1D6F000E1E6F05
:10294400180E1F6F000E206F100E216F000E226FE5
:10295400DB0E236F7F0E246F000E256FADEC0EF09F
:10296400E3EC0DF00052D8B4AAD04F0E176F020E4C
:10297400186F640E196F020E1A6FB3EC0CF000504E
:10298400000AD8A49CD0000E006E02015051005CD5
:1029940002E14F510A0845E2000E505D02E1220EA9
:1029A4004F5D3FE2000E006E6551005C02E1645130
:1029B400300837E2000E655D02E1400E645D31E2ED
:1029C4000301176B7FEC0EF00A0E176F000E186FE1
:1029D400300E196F000E1A6F180E1B6F000E1C6F4D
:1029E400100E1D6F000E1E6F180E1F6F000E206F4D
:1029F400100E216F000E226FAB0E236F7F0E246F1B
:102A0400000E256FADEC0EF0010E0201E46F280EEE
:102A14000301176F000E186F010E196F0AEC09F00D
:102A24004FD0000E006E02015051005C02E14F5184
:102A34005E0845E2000E505D02E1760E4F5D3FE216
:102A4400000E006E6551005C02E16451300837E20B
:102A5400000E655D02E1400E645D31E20301176B17
:102A64007FEC0EF05E0E176F000E186F300E196FAC
:102A7400000E1A6F180E1B6F000E1C6F100E1D6FC8
:102A8400000E1E6F180E1F6F000E206F100E216FA8
:102A9400000E226FDB0E236F7F0E246F000E256F56
:102AA400ADEC0EF0020E0201E46F280E0301176F65
:102AB400000E186F020E196F0AEC09F001D050D7FE
:102AC4000301176B7FEC0EF00A0E176F000E186FE0
:102AD400196B1A6B6C0E1B6F000E1C6F100E1D6FA2
:102AE400000E1E6F6C0E1F6F000E206F100E216FF4
:102AF400000E226F210E236F780E246F000E256FB7
:102B0400ADEC0EF0B10E176F000E186F196B030EBB
:102B14001A6F010E1B6FACEC0DF0570E176F000E01
:102B2400186F196B040E1A6F010E1B6FACEC0DF0CD
:102B34000A0E176F000E186F300E196F000E1A6F01
:102B4400180E1B6F000E1C6F100E1D6F000E1E6FF3
:102B5400180E1F6F000E206F100E216F000E226FD3
:102B6400AB0E236F7F0E246F000E256FADEC0EF0BD
:102B74005E0E176F000E186F300E196F000E1A6F6D
:102B8400180E1B6F000E1C6F100E1D6F000E1E6FB3
:102B9400180E1F6F000E206F100E216F000E226F93
:102BA400DB0E236F7F0E246F000E256FADEC0EF04D
:102BB400E3EC0DF00052D8B4A3D04F0E176F020E01
:102BC400186F640E196F020E1A6FB3EC0CF00050FC
:102BD400000AD8A495D0000E006E02015051005C8A
:102BE40002E14F510A084AE2000E505D02E1220E52
:102BF4004F5D44E2000E006E6551005C02E16451D9
:102C040030083CE2000E655D02E1400E645D36E290
:102C14000301176B7FEC0EF00A0E176F000E186F8E
:102C2400300E196F000E1A6F180E1B6F000E1C6FFA
:102C3400100E1D6F000E1E6F180E1F6F000E206FFA
:102C4400100E216F000E226FAB0E236F7F0E246FC8
:102C5400000E256FADEC0EF0000E1D6E000E1E6E04
:102C64007A0E1F6E890E206E000E01014D6F800ECC
:102C74004E6F1B0E4F6F8D0E506FE9D2000E006E1B
:102C840002015051005C02E14F515E0839E2000E2E
:102C9400505D02E1760E4F5D33E2000E006E655129
:102CA400005C02E1645130082BE2000E655D02E134
:102CB400400E645D25E20301176B7FEC0EF05E0E9F
:102CC400176F000E186F300E196F000E1A6F180E62
:102CD4001B6F000E1C6F100E1D6F000E1E6F180E62
:102CE4001F6F000E206F100E216F000E226FDB0E7F
:102CF400236F7F0E246F000E256FADEC0EF001D014
:102D040057D7290E0B6E960E0C6E7F0E0D6E0D2E80
:102D1400FED70C2EFCD70B2EFAD7E2EC09F0290EC5
:102D24000B6E960E0C6E7F0E0D6E0D2EFED70C2EB6
:102D3400FCD70B2EFAD7E2EC09F0BFC200F0C0C2F8
:102D440001F06FEC03F000C00BF301C00CF302C000
:102D54000DF303C00EF3000E046E7C0E056E120E0E
:102D6400066E920E076E4BEC07F000C00BF301C029
:102D74000CF302C00DF303C00EF3000E046EFE0E3E
:102D8400056E7F0E066E8D0E076EDEEC07F000C03A
:102D940013F301C014F302C015F303C016F313C3F5
:102DA4000BF314C30CF315C30DF316C30EF313C3C3
:102DB4001DF014C31EF015C31FF016C320F013C377
:102DC40004F014C305F015C306F016C307F0C00ED3
:102DD400006EE10E016E640E026E980E036EDEEC60
:102DE40007F000C04DF101C04EF102C04FF103C025
:102DF40050F1000E046E000E056E200E066E820E5B
:102E0400076E4BEC07F000C04DF101C04EF102C05B
:102E14004FF103C050F113C300F014C301F015C304
:102E240002F016C303F0AFEC06F000C00FF301C0CC
:102E340010F302C011F303C012F36A0E0301176FFB
:102E4400020E186F00C019F301C01AF302C01BF37D
:102E540003C01CF3050E1D6F300E1E6F5EEC09F0EF
:102E6400530E176F000E186F196B1A6B010E1B6F40
:102E7400ACEC0DF06A0E176F020E186F1E0E196F70
:102E84001A6B010E1B6FACEC0DF01DC004F01EC0DC
:102E940005F01FC006F020C007F0800E006E960EED
:102EA400016E180E026E950E036EDEEC07F000C084
:102EB4000BF301C00CF302C00DF303C00EF3AFEC2F
:102EC40006F000C00FF301C010F302C011F303C0F9
:102ED40012F36A0E0301176F020E186F00C019F384
:102EE40001C01AF302C01BF303C01CF3050E1D6FCF
:102EF400300E1E6F5EEC09F06B0E176F000E186F2C
:102F0400196B010E1A6F010E1B6FACEC0DF06A0EFB
:102F1400176F020E186F1E0E196F010E1A6F010E35
:102F24001B6FACEC0DF00BC300F00CC301F00DC330
:102F340002F00EC303F07B0E046E140E056E2E0E0B
:102F4400066E7D0E076E4BEC07F000C00BF301C05C
:102F54000CF302C00DF303C00EF3AFEC06F000C097
:102F64000FF301C010F302C011F303C012F36A0E91
:102F7400176F020E186F00C019F301C01AF302C0D4
:102F84001BF303C01CF3050E1D6F300E1E6F5EECA9
:102F940009F0770E176F000E186F196B020E1A6F77
:102FA400010E1B6FACEC0DF06A0E176F020E186F5A
:102FB4001E0E196F020E1A6F010E1B6FACEC0DF092
:102FC400000E046E000E056E000E066E810E076E76
:102FD4000BC300F00CC301F00DC302F00EC303F0E9
:102FE400DEEC07F000C00BF301C00CF302C00DF3DC
:102FF40003C00EF3AFEC06F000C00FF301C010F3F2
:1030040002C011F303C012F36A0E0301176F020E1C
:10301400186F00C019F301C01AF302C01BF303C0F8
:103024001CF3050E1D6F300E1E6F5EEC09F0710E61
:10303400176F000E186F196B030E1A6F010E1B6FBA
:10304400ACEC0DF06A0E176F020E186F1E0E196F9E
:10305400030E1A6F010E1B6FACEC0DF00BC304F0E2
:103064000CC305F00DC306F00EC307F0000E006E8E
:10307400000E016E7A0E026E880E036EDEEC07F00F
:103084009CEC08F000C053F201C054F200C055F2A9
:1030940001C056F26A0E0301176F020E186F53C275
:1030A40019F354C21AF3000E1B6F1C6F050E1D6F2B
:1030B400300E1E6F5EEC09F0910E176F010E186F43
:1030C400196B040E1A6F010E1B6FACEC0DF06A0E37
:1030D400176F020E186F1E0E196F040E1A6F010E71
:1030E4001B6FACEC0DF06A0E176F020E186FBFC2A7
:1030F40019F3C0C21AF3000E1B6F1C6F050E1D6F6F
:10310400300E1E6F5EEC09F06A0E176F020E186F18
:10311400196B050E1A6F010E1B6FACEC0DF01DC080
:1031240000F01EC001F01FC002F020C003F0AFEC9D
:1031340006F000C00FF301C010F302C011F303C086
:1031440012F36A0E176F020E186F00C019F301C054
:103154001AF302C01BF303C01CF3050E1D6F300EDF
:103164001E6F5EEC09F06A0E176F020E186F3C0EAC
:10317400196F050E1A6F010E1B6FACEC0DF0CB0E20
:103184000B6EEC0E0C6E840E0D6E0D2EFED70C2EF7
:10319400FCD70B2EFAD7000010C300F011C301F0C6
:1031A40012C302F0036A200E176F000E186F00C0DE
:1031B40019F30AEC09F0FF0E03010F15196F210E24
:1031C400176F000E186F0AEC09F04DC100F04EC1E4
:1031D40001F04FC102F050C103F0AFEC06F000C0A3
:1031E4000FF301C010F302C011F303C012F301C0C6
:1031F40004F002C005F003C006F0076A220E0301C2
:10320400176F000E186F04C019F30AEC09F0FF0ED3
:1032140003010F15196F230E176F000E186F0AECB8
:1032240009F0300E0301176F000E186F550E196F59
:103234000AEC09F0CB0E0B6EEC0E0C6E840E0D6EC8
:103244000D2EFED70C2EFCD70B2EFAD70000120041
:1032540000C008F00B6A0C6A9E0E036E0A6A026ACA
:0E326400016A006A020E0C6E86EC0BF012007E
:103272000201E551020A20E1020E0301176F000E5E
:10328200186F196B1A6B1F0E1B6F000E1C6F100E3E
:103292001D6F000E1E6F1F0E1F6F000E206F100E8F
:1032A200216F000E226F6D0E236F7F0E246F000EB2
:1032B200256FADEC0EF085D00201E551030A20E145
:1032C200020E0301176F000E186F196B1A6B1F0E97
:1032D2001B6F000E1C6F100E1D6F000E1E6F1F0E57
:1032E2001F6F000E206F100E216F000E226F2F0E27
:1032F200236F7F0E246F000E256FADEC0EF061D0B0
:103302000201E551010A20E1020E0301176F000ECE
:10331200186F196B1A6B1F0E1B6F000E1C6F100EAD
:103322001D6F000E1E6F1F0E1F6F000E206F100EFE
:10333200216F000E226FF10E236F7E0E246F000E9E
:10334200256FADEC0EF03DD00301020E176F000E9B
:10335200186F196B1A6B1F0E1B6F000E1C6F100E6D
:103362001D6F000E1E6F1F0E1F6F000E206F100EBE
:10337200216F000E226FB30E236F7E0E246F000E9C
:10338200256FADEC0EF0230E176F000E186F196B40
:103392001A6B070E1B6F000E1C6F100E1D6F000EB6
:1033A2001E6F070E1F6F000E206F100E216F000E92
:1033B200226F6B0E236F800E246F000E256FADEC13
:0433C2000EF01200F7
:1033C6000301006B02010751010A0EE11C0E030105
:1033D600176F020E186F190E196F030E1A6F010E72
:1033E6001B6FACEC0DF056D20201E651000A73E1F8
:1033F600D951D8196FE0D8C2D9F20301176B7FEC07
:103406000EF0080E176F020E186F070E196F020ED8
:103416001A6F010E1B6FACEC0DF0B20E176F010E9A
:10342600186F0F0E196F050E1A6F010E1B6FACEC9D
:103436000DF0270E176F000E186F1A0E196F000E7B
:103446001A6F330E1B6F000E1C6F0E0E1D6F000ED3
:103456001E6F330E1F6F000E206F0E0E216F000EB3
:10346600226FA90E236F7A0E246F000E256FADEC26
:103476000EF02C0E176F000E186F1D0E196F000E32
:103486001A6F270E1B6F000E1C6F080E1D6F000EA5
:103496001E6F270E1F6F000E206F080E216F000E85
:1034A600226F270E006E000E016E026E036ED8C2EA
:1034B60004F0000E056E066E076EA3EC03F0A80E70
:1034C6000024236F730E0120246F000E0220256F47
:1034D600ADEC0EF0DFD10201D951D819D8B4D9D04C
:1034E600D8C2D9F2060E0301176F000E186F1A0E16
:1034F600196F000E1A6F100E1B6F000E1C6F100E48
:103506001D6F000E1E6F100E1F6F000E206F100E27
:10351600216F000E226F0B0E236F800E246F000E9C
:10352600256FADEC0EF0610E176F000E186F196B5C
:103536001A6B1F0E1B6F000E1C6F100E1D6F000EF8
:103546001E6F1F0E1F6F000E206F100E216F000ED4
:10355600226F370E236F7E0E246F000E256FADECA3
:103566000EF0270E176F000E186F1A0E196F000E49
:103576001A6F330E1B6F000E1C6F0E0E1D6F000EA2
:103586001E6F330E1F6F000E206F0E0E216F000E82
:10359600226FA90E236F7A0E246F000E256FADECF5
:1035A6000EF02C0E176F000E186F1D0E196F000E01
:1035B6001A6F270E1B6F000E1C6F080E1D6F000E74
:1035C6001E6F270E1F6F000E206F080E216F000E54
:1035D600226F270E006E000E016E026E036ED8C2B9
:1035E60004F0000E056E066E076EA3EC03F0A80E3F
:1035F6000024236F730E0120246F000E0220256F16
:10360600ADEC0EF00201EA51010A22E1700E03014F
:10361600176F000E186F100E196F000E1A6F100E2E
:103626001B6F000E1C6F200E1D6F000E1E6F100EFE
:103636001F6F000E206F200E216F000E226FB70E37
:10364600236F7D0E246F000E256FADEC0EF021D09A
:103656000301700E176F000E186F100E196F000E13
:103666001A6F100E1B6F000E1C6F200E1D6F000EC2
:103676001E6F100E1F6F000E206F200E216F000EA2
:10368600226F770E236F7D0E246F000E256FADEC33
:103696000EF00201D8510A0802E20A0ED86FD8C20B
:1036A60000F3D551010A38E1270E0301176F010E09
:1036B600186F020E196F060E1A6F010E1B6FACEC17
:1036C6000DF0176B186B380E196F000E1A6F260E59
:1036D6001B6F000E1C6F080E1D6F000E1E6F260E50
:1036E6001F6F000E206F080E216F000E226F650EF1
:1036F600236F760E246F000E256FADEC0EF01B0EB9
:10370600176F010E186F3E0E196F070E1A6F010E16
:103716001B6FACEC0DF0BED00301D8C2D9F2270E58
:10372600176F000E186F1A0E196F000E1A6F330EF0
:103736001B6F000E1C6F0E0E1D6F000E1E6F330EDC
:103746001F6F000E206F0E0E216F000E226FA90E46
:10375600236F7A0E246F000E256FADEC0EF02C0E43
:10376600176F000E186F1D0E196F000E1A6F270EB9
:103776001B6F000E1C6F080E1D6F000E1E6F270EAE
:103786001F6F000E206F080E216F000E226F270E8E
:10379600006E000E016E026E036ED8C204F0000EBB
:1037A600056E066E076EA3EC03F0A80E0024236FC9
:1037B600730E0120246F000E0220256FADEC0EF073
:1037C6000201E451020A0DE1E80E046E030E056ED5
:1037D600C9C200F0CAC201F083EC13F000C000F3C6
:1037E6000CD0F40E046E010E056EC9C200F0CAC2FA
:1037F60001F083EC13F000C000F30301005105084B
:1038060002E2050E006F2C0E176F010E186F020EE6
:10381600196F060E1A6F010E1B6FACEC0DF0176BCD
:10382600186B380E196F000E1A6F260E1B6F000EDE
:103836001C6F080E1D6F000E1E6F260E1F6F000EEA
:10384600206F080E216F000E226F260E006E000EEE
:10385600016E026E036E00C304F0000E056E066E66
:10386600076EA3EC03F0650E0024236F760E01208D
:10387600246F000E0220256FADEC0EF0320E176F8E
:10388600010E186F3E0E196F070E1A6F010E1B6F91
:06389600ACEC0DF0120085
:10389C008A0E0201AB6F000EAC6F450EAD6F030EBE
:0E38AC00AE6FC26A0F0EC012C08EC280120034
:1038BA0089988B9292989492840E02018C6F030ECF
:1038CA008D6F01C37AF202C37BF203C37DF204C394
:1038DA007EF205C3A2F206C37CF2A56BA66BA36BAC
:0438EA00A46B1200B9
:0C38EE000F01579FF19E8A849384120002
:1038FA000201AA6B856B866B969A9698969E969C01
:10390A00939A93988D9A956A8D9E8D9C8A9A8A88A5
:10391A008D8A3F0E836E91EC00F0C00E836E91EC9F
:10392A0000F08A8A8A983F0E836E91EC00F0C00EEE
:08393A00836E91EC00F0120015
:10394200949894968B988B9694889486C79EC79CDD
:06395200380EC66E1200E3
:1039580003010B6B0C6B9BEC10F00050BB0A74E07E
:10396800C6EC10F0190E03010B6F000E0C6F170E4A
:103978000D6F000E0E6F1B0E0F6F000E106F210ED5
:10398800116F000E126FA5EC10F01AC000F0016A5A
:10399800100E176F000E186F00C019F30AEC09F02B
:1039A800FF0E19140301196F110E176F000E186F0F
:1039B8000AEC09F018C000F0016A120E0301176F33
:1039C800000E186F00C019F30AEC09F0FF0E171467
:1039D8000301196F130E176F000E186F0AEC09F028
:1039E8001CC000F0016A140E0301176F000E186F57
:1039F80000C019F30AEC09F0FF0E1B140301196F3C
:103A0800150E176F000E186F0AEC09F022C000F0AF
:103A1800016A160E0301176F000E186F00C019F324
:103A28000AEC09F0FF0E21140301196F170E176F26
:103A3800000E186F0AEC09F00301176B186BBB0E28
:103A4800196F0AEC09F075D0100E03010B6F000E08
:103A58000C6F9BEC10F000C019F0000E1A6E19C024
:103A68001AF0196A110E0B6F000E0C6F9BEC10F018
:103A780000501912000E1A12120E0B6F000E0C6F66
:103A88009BEC10F000C017F0000E186E17C018F06D
:103A9800176A130E0B6F000E0C6F9BEC10F00050A2
:103AA8001712000E1812140E0B6F000E0C6F9BEC01
:103AB80010F000C01BF0000E1C6E1BC01CF01B6A2F
:103AC800150E0B6F000E0C6F9BEC10F000501B12C4
:103AD800000E1C12160E0B6F000E0C6F9BEC10F0F4
:103AE80000C021F0000E226E21C022F0216A170EBC
:103AF8000B6F000E0C6F9BEC10F0000E016E215046
:103B080000122250011200C021F001C022F019C099
:103B18000BF31AC00CF317C00DF318C00EF31BC03B
:103B28000FF31CC010F300C011F301C012F321EC15
:103B380014F00301300E0B6F000E0C6F9BEC10F0AD
:103B48000050550A03E032EC14F0BCD0200E0301FB
:103B58000B6F000E0C6F9BEC10F02AEC19F000C0F4
:103B68001DF001C01EF002C01FF003C020F0000EBF
:103B7800046E000E056E7F0E066E860E076E4BEC09
:103B880007F000C01DF001C01EF002C01FF003C006
:103B980020F0210E0B6F000E0C6F9BEC10F02AEC3E
:103BA80019F01DC004F01EC005F01FC006F020C0AB
:103BB80007F070EC11F000C000F301C001F302C07F
:103BC80002F303C003F300C31DF001C31EF002C3D8
:103BD8001FF003C320F000C304F001C305F002C3C3
:103BE80006F003C307F0C00E006EE10E016E640E0E
:103BF800026E980E036EDEEC07F000C04DF101C0B6
:103C08004EF102C04FF103C050F1000E046E000ED9
:103C1800056E200E066E820E076E4BEC07F000C094
:103C28004DF101C04EF102C04FF103C050F100C385
:103C380004F001C305F002C306F003C307F0800EC9
:103C4800006E960E016E180E026E950E036EDEEC77
:103C580007F07B0E046E140E056E2E0E066E7D0E9A
:103C6800076E4BEC07F0000E046E000E056E000E9A
:103C7800066E810E076EDEEC07F000C004F001C08E
:103C880005F002C006F003C007F0000E006E000E3B
:103C9800016E7A0E026E880E036EDEEC07F09CEC65
:103CA80008F000C053F201C054F200C055F201C040
:103CB80056F2280E03010B6F000E0C6F9BEC10F0F0
:063CC80000C0E4F212004E
:0A3CCE0001C38CF202C38DF2120054
:103CD800FF0E0201926FFF0E936FFF0E946FFF0E9F
:103CE800956FCE0E8E6F500E8F6F000E906F000E78
:103CF800916FC40E966F500E976F000E986F000E5E
:103D0800996FFF0E9A6FFF0E9B6F000E9C6F000E4F
:103D18009D6FAC8A900EAB6E948E949C9EAA03D035
:083D2800AECF00F0FBD7120042
:103D300003010251010A13E107D08A820FD08B8C54
:103D40000DD08A800BD00AD00151010AF6E0015152
:103D5000030AF5E00151020AF4E0F5D716D002514A
:103D6000000A13E107D08A920FD08B9C0DD08A9065
:103D70000BD00AD00151010AF6E00151030AF5E027
:0C3D80000151020AF4E0F5D700D0120057
:103D8C008A8C8A8E03010151010A02E18A9E0AD0B3
:103D9C000151020A02E18A9C05D00151030A02E199
:063DAC008A9E8A9C1200B1
:103DB20003010751000A03E1010E006EA3D007C3FD
:103DC20000F301C33AF302C33BF3300E3C6F07C367
:103DD2003DF3000E3E6F9AEC06F007510125E16EAD
:103DE200000E0221E26EE66A070707510125E16E25
:103DF200000E0221E26E08C3E6FF070707C300F3C5
:103E020007070651000808E10551000805E10451C1
:103E1200000802E10351000854E207510125096F2D
:103E2200000E02210A6F0A0E046E000E056E066E67
:103E3200076E03C300F004C301F005C302F006C31A
:103E420003F024EC05F008C000F009C001F00AC03C
:103E520002F00BC003F0300E002609C3E1FF0AC3D3
:103E6200E2FF00C0E6FF0A0E046E000E056E066E4B
:103E7200076E03C300F004C301F005C302F006C3DA
:103E820003F024EC05F000C003F301C004F302C008
:103E920005F303C006F307C301F007070150000A48
:103EA2000FE10651000808E10551000805E104513F
:103EB200000802E10351000803E2010E006E22D065
:103EC200A0D700510125E16E000E0221E26E00052D
:103ED200006E016A000E015A00500125E96E015080
:103EE2000221EA6EEECFE6FF0005006E016A000EC7
:103EF200015A00500125E16E01500221E26E2E0EA0
:063F0200E66E006A1200E9
:103F080003010751000A03E1010E006EBDD007C38B
:103F180000F301C33AF302C33BF3300E3C6F07C30F
:103F28003DF3000E3E6F9AEC06F007510125E16E55
:103F3800000E0221E26EE66A070707510125E16ECD
:103F4800000E0221E26E08C3E6FF070707C300F36D
:103F580007070651000808E10551000805E104516A
:103F6800000802E10351000854E207510125096FD6
:103F7800000E02210A6F0A0E046E000E056E066E10
:103F8800076E03C300F004C301F005C302F006C3C3
:103F980003F024EC05F008C000F009C001F00AC0E5
:103FA80002F00BC003F0300E002609C3E1FF0AC37C
:103FB800E2FF00C0E6FF0A0E046E000E056E066EF4
:103FC800076E03C300F004C301F005C302F006C383
:103FD80003F024EC05F000C003F301C004F302C0B1
:103FE80005F303C006F307C301F007070150000AF1
:103FF8000FE10651000808E10551000805E10451E8
:10400800000802E10351000803E2010E006E3CD0F3
:10401800A0D700510125E16E000E0221E26E0005D5
:10402800006E016A000E015A00500125E96E015028
:104038000221EA6EEECFE6FF0005006E016A000E6F
:10404800015A00500125E16E01500221E26E020E74
:10405800005D006E016A000E015A00500125E96EEC
:1040680001500221EA6EEECFE6FF020E005D006EFF
:10407800016A000E015A00500125E16E015002212B
:0A408800E26E2E0EE66E006A1200D2
:104092004CD1060E0301456F45EC00F000C001F360
:1040A20001C002F3000E0301036F046F01C300F0AD
:1040B20002C301F003C302F004C303F0940E046EC2
:1040C200000E056E066E076EA3EC03F000C001F34E
:1040D20001C002F302C003F303C004F3070E086E2B
:1040E20000C004F001C005F002C006F003C007F0F2
:1040F200085007E00732063205320432079EFF0FEE
:10410200F8D704C001F305C002F306C003F307C0E9
:1041120004F304C0DAF205C0DBF20201472B16D128
:10412200070E0301456F45EC00F000C001F301C02A
:1041320002F3000E0301036F046F01C300F002C318
:1041420001F003C302F004C303F0940E046E000EE8
:10415200056E066E076EA3EC03F000C001F301C00A
:1041620002F302C003F303C004F3070E086E00C09B
:1041720004F001C005F002C006F003C007F00850C9
:1041820007E00732063205320432079EFF0FF8D7E6
:1041920004C001F305C002F306C003F307C004F331
:1041A20004C0DCF205C0DDF20201472BCFD00B0EBA
:1041B2000301456F45EC00F000C001F301C002F3BA
:1041C200000E0301036F046F000E045D08E1000E90
:1041D200035D05E1000E025D02E1780E015D3AE346
:1041E20001C300F002C301F003C302F004C303F0F1
:1041F200780E005E000E015A025A035A00C001F303
:1042020001C002F302C003F303C004F3770E046E8D
:10421200000E056E066E076EA3EC03F000C001F3FC
:1042220001C002F302C003F303C004F30A0E046EDA
:1042320000C001F301C002F302C003F303C004F3A0
:10424200045007E00433033302330133049FFF0FAA
:10425200F8D704D0016B026B036B046B01C3DEF26F
:1042620002C3DFF20201472B71D00A0E0301456F30
:1042720045EC00F000C001F301C002F3000E03019F
:10428200036F046F000E045D08E1000E035D05E19B
:10429200000E025D02E1780E015D3AE301C300F017
:1042A20002C301F003C302F004C303F0780E005E00
:1042B200000E015A025A035A00C001F301C002F370
:1042C20002C003F303C004F3770E046E000E056E02
:1042D200066E076EA3EC03F000C001F301C002F307
:1042E20002C003F303C004F3090E046E00C001F31D
:1042F20001C002F302C003F303C004F3045007E059
:104302000433033302330133049FFF0FF8D704D081
:10431200016B026B036B046B01C3E0F202C3E1F2B7
:104322000201476B13D0476B11D002014751000ABB
:10433200D8B4AFD64751010AD8B4F2D64751020ACF
:0E434200D8B435D74751030A90E0EDD71200EA
:1043500002010751010A04E0E651000A01E001D020
:1043600056D2000EC85D02E1690EC75D09E3000E7A
:10437000006EC851005C02E1C751A00801E301D002
:1043800046D203010351000AD8A424D1000E006EC6
:104390000251005C02E101516408D8A01AD1040E58
:1043A0000B6F030E0C6F01C30DF302C30EF3000E6F
:1043B0000F6F106F030E116F0A0E126F9EEC13F049
:1043C000000E021902E1000E0119D8B4066B000EAE
:1043D000025D02E1640E015D20E22C0E176F000EFB
:1043E000186F0A0E196F000E1A6F080E1B6F000E61
:1043F0001C6F100E1D6F000E1E6F080E1F6F000E3B
:10440000206F100E216F000E226FF50E236F750EB8
:10441000246F000E256FADEC0EF02C0E176F000E02
:10442000186F0A0E196F000E1A6F080E1B6F000E20
:104430001C6F100E1D6F000E1E6F080E1F6F000EFA
:10444000206F100E216F000E226F040E046E04C345
:1044500000F0000E016E026E036E045007E000369D
:104460000090013602360336FF0FF8D7550E0024B0
:10447000236F750E0120246F000E0220256FADEC16
:104480000EF0340E176F000E186F0A0E196F000E23
:104490001A6F080E1B6F000E1C6F100E1D6F000EA2
:1044A0001E6F080E1F6F000E206F100E216F000E82
:1044B000226F040E046E05C300F0000E016E026E42
:1044C000036E045007E000360090013602360336D2
:1044D000FF0FF8D7550E0024236F750E0120246FAF
:1044E000000E0220256FADEC0EF03C0E176F000E93
:1044F000186F0A0E196F000E1A6F080E1B6F000E50
:104500001C6F100E1D6F000E1E6F080E1F6F000E29
:10451000206F100E216F000E226F040E046E06C372
:1045200000F0000E016E026E036E045007E00036CC
:104530000090013602360336FF0FF8D7550E0024DF
:10454000236F750E0120246F000E0220256FADEC45
:104550000EF0440E176F000E186F0A0E196F000E42
:104560001A6F080E1B6F000E1C6F100E1D6F000ED1
:104570001E6F080E1F6F000E206F100E216F000EB1
:10458000226F150E236F760E246F000E256FADEC93
:104590000EF04C0E176F000E186F0A0E196F000EFA
:1045A0001A6F080E1B6F000E1C6F100E1D6F000E91
:1045B0001E6F080E1F6F000E206F100E216F000E71
:1045C000226FF50E236F750E246F000E256FADEC74
:1045D0000EF01DD10351010AD8A419D1040E0B6F9E
:1045E000030E0C6F01C30DF302C30EF3000E0F6F29
:1045F000106F030E116F126B9EEC13F0000E021978
:1046000002E1000E0119D8B4066B000E025D02E152
:10461000640E015D20E22C0E176F000E186F0A0E5B
:10462000196F000E1A6F080E1B6F000E1C6F100E14
:104630001D6F000E1E6F080E1F6F000E206F100EF4
:10464000216F000E226FF50E236F750E246F000E82
:10465000256FADEC0EF02C0E176F000E186F0A0EC2
:10466000196F000E1A6F080E1B6F000E1C6F100ED4
:104670001D6F000E1E6F080E1F6F000E206F100EB4
:10468000216F000E226F040E046E04C300F0000EB2
:10469000016E026E036E045007E000360090013692
:1046A00002360336FF0FF8D7550E0024236F750E20
:1046B0000120246F000E0220256FADEC0EF0340EA9
:1046C000176F000E186F0A0E196F000E1A6F080E82
:1046D0001B6F000E1C6F100E1D6F000E1E6F080E5C
:1046E0001F6F000E206F100E216F000E226F040E40
:1046F000046E05C300F0000E016E026E036E0450DE
:1047000007E000360090013602360336FF0FF8D777
:10471000550E0024236F750E0120246F000E022019
:10472000256FADEC0EF03C0E176F000E186F0A0EE1
:10473000196F000E1A6F080E1B6F000E1C6F100E03
:104740001D6F000E1E6F080E1F6F000E206F100EE3
:10475000216F000E226F050E236F760E246F000E60
:10476000256FADEC0EF0440E176F000E186F0A0E99
:10477000196F000E1A6F080E1B6F000E1C6F100EC3
:104780001D6F000E1E6F080E1F6F000E206F100EA3
:10479000216F000E226F040E046E06C300F0000E9F
:1047A000016E026E036E045007E000360090013681
:1047B00002360336FF0FF8D7550E0024236F750E0F
:1047C0000120246F000E0220256FADEC0EF04C0E80
:1047D000176F000E186F0A0E196F000E1A6F080E71
:1047E0001B6F000E1C6F100E1D6F000E1E6F080E4B
:1047F0001F6F000E206F100E216F000E226F250E0E
:10480000236F760E246F000E256FADEC0EF01200B4
:1048100003010051010A05E18B8A010E0201E66FD6
:104820000BD003010051000A04E18B9A0201E66BF0
:1048300003D0010E006E0FD03D0E0B6EE10E0C6E1C
:104840003F0E0D6E0D2EFED70C2EFCD70B2EFAD779
:0848500000000000006A1200E4
:1048580015D10201E56B8E868F860101976B826BFD
:10486800816B8F880A0E0201EB6F010EE86F010160
:104878008351000A02E117EC11F03ED10201DB512D
:10488800040802E1DA514C0803E20A0EE86F02D08C
:10489800020EE86F31D18E96010E0101826F030E70
:1048A8000201E86F0A0EEB6F27D1EB51000A03E112
:1048B800040EE86F04D0EB05006E00C0EBF21CD1CB
:1048C800DD51050802E1DC5196080AE2140EE86F92
:1048D8008F98010E0101816F020E0201E56F02D06F
:1048E800050EE86F09D1DD51020802E1DC51BC0870
:1048F80005E20A0EEB6F1F0EE86F01D0E86BFCD0E3
:10490800EB51000A0AE18E96050EEB6F010E0101CC
:10491800826F0B0E0201E86F04D0EB05006E00C039
:10492800EBF2EAD0EB51000A0CE18F960A0EEB6F1E
:10493800010E0101976F0C0E0201E86F010EE56F81
:1049480004D0EB05006E00C0EBF2D6D0040EDB5DA0
:1049580002E14C0EDA5D02E2E56BE86BCDD0EB517B
:10496800000A09E1150EE86F8F961E0EEB6F010E17
:104978000101976F0CD00201EB05006E00C0EBF24D
:10498800DB51040802E1DA514C08D8A0E86BB4D036
:104998000201EB51000A06E1160EE86F8F98FA0E35
:1049A800EB6F0BD0EB05006E00C0EBF2DB51040897
:1049B80002E1DA514C08D8A0E86B9ED0DB5104081C
:1049C80002E1DA514C0802E2E86B12D0000EDF5D1A
:1049D80002E1020EDE5D0AE2EB51000A02E1E86B39
:1049E80004D0EB05006E00C0EBF202D0FA0EEB6FBC
:1049F80083D01F0EE86F80D0EB51000A0BE1200E28
:104A0800E86F8F96030EE56F640EEB6F010E0101E0
:104A1800976F0DD00201EB05006E00C0EBF2DB5181
:104A2800040802E1DA514C0802E20A0EE86F64D089
:104A38000201EB51000A03E1210EE86F0CD0EB05EF
:104A4800006E00C0EBF2DB51040802E1DA514C08B9
:104A580002E20A0EE86F50D0DB51040802E1DA5195
:104A68004C0802E2E86B07D0020EDD5D02E1BC0EE5
:104A7800DC5DD8A0E86B40D0E86B3ED00201E8517D
:104A8800000AD8B4E6D6E851010AD8B4F7D6E851F6
:104A9800020AD8B400D7E851030AD8B406D7E851B7
:104AA800040AD8B40DD7E851050AD8B41CD7E85180
:104AB8000A0AD8B425D7E8510B0AD8B433D7E85135
:104AC8000C0AD8B443D7E851140AD8B448D7E851E7
:104AD800150AD8B45DD7E851160AD8B46FD7E8518B
:104AE8001E0A87E0E8511F0A87E0E851200AA0E083
:0A4AF800E851210AB1E0C0D7120016
:104B02008E868F868B848F888F908D9098909690CA
:104B1200978C978A98989896948094940F012487FA
:104B220024859782978497969788258D258F948ED2
:0C4B3200CF0EAF6EAC946CEC1EF01200C5
:104B3E000201FB6BFC6BFB6BFC6B000EC85D02E1B4
:104B4E00690EC75D09E3000E006EC851005C02E1FC
:104B5E00C751A00801E303D0006A016A28D0FBC246
:104B6E0000F0FCC201F00036009001362B0E00243E
:104B7E00D96E020E0120DA6EDECF01F0DECF02F02A
:104B8E00C851025C02E1C751015C03E2FB4BFC2BF6
:104B9E00E6D7FBC200F0FCC201F00A0E046E000E56
:104BAE00056E8DEC02F000C0FBF201C0FCF21200AB
:104BBE000F01199B199D199F93929390949C939C0E
:0E4BCE00939E8A928A908B9C8A8C8A8E12000B
:064BDC00949A8B9A12006E
:104BE2000201E651010AD8A416D1D551000A29E1E1
:104BF200000ECA1902E1000EC9190DE00A0E006E7C
:104C0200C9C2FBF2CAC2FCF2005005E0FC33FB331E
:104C1200FC9FFF0FFAD7FB516C08016EFCC202F039
:104C2200000E025601C05DF202C05EF2000E025C8E
:104C320002E15F0E015C04E25F0E5D6F000E5E6FCB
:104C420004D06C0E5D6F000E5E6FC8515E5D02E1B6
:104C5200C7515D5D73E35F5160110BE0010E5F5D53
:104C6200006E000E6059016E00C05FF201C060F27A
:104C720064D0020E0301016F026B98EC1EF0020178
:104C8200E76BE86B520E0B6E2B0E0C6E000E0D6E68
:104C92000D2EFED70C2EFCD70B2EFAD700000301E7
:104CA200006BB5DD010E0301016F026B98EC1EF083
:104CB200000E8BBC010E016F026B98EC1EF0700EA1
:104CC200176F000E186F100E196F000E1A6F100E6C
:104CD2001B6F000E1C6F200E1D6F000E1E6F100E3C
:104CE2001F6F000E206F200E216F000E226F770EB5
:104CF200236F7D0E246F000E256FADEC0EF00201C6
:104D0200E66BEA6BA86BCF6BD06BD86BFF0ED96FDB
:104D1200D36BD46BC96BCA6BE2EC09F049EC20F09F
:104D2200020E0301016F010E026FC6EC1EF00A0EA5
:104D320002015F6F000E606FE86B6CD05A51C85D64
:104D420002E15951C75DD8A065D0076B0A0E5F6FAB
:104D5200000E606F320E616F000E626F69510208C1
:104D620002E168518A0807E36751020802E16651CD
:104D72008A0801E30FD0010E0301016F010E026FD9
:104D820098EC1EF08F86020E016F010E026FC6ECC8
:104D92001EF040D00301010E016F010E026FC6EC3E
:104DA2001EF0020E0201695D02E1580E685D07E223
:104DB200020E675D02E1580E665DD8A08F966951BA
:104DC200010802E16851900807E36751010802E116
:104DD2006651900801E308D0010E0301016F010E34
:104DE200026F98EC1EF016D0010E0201695D02E11D
:104DF2005E0E685D0FE2010E675D02E15E0E665DAA
:104E020009E2E751000A06E1010E0301016F026B9C
:104E120098EC1EF04CD00B0E0201E85D46E3030154
:104E2200176B7FEC0EF06A0E176F020E186FE8C256
:104E320019F3000E1A6F1B6F1C6F020E1D6F300EDE
:104E42001E6F5EEC09F06A0E176F020E186F280EC5
:104E5200196F060E1A6F010E1B6FACEC0DF0010EEE
:104E62000201E66F010E0301006FD1DC150E0B6E1D
:104E72004B0E0C6EBE0E0D6E0D2EFED70C2EFCD7F9
:104E82000B2EFAD70000E7DC150E0B6E4B0E0C6EE4
:104E9200BE0E0D6E0D2EFED70C2EFCD70B2EFAD7A2
:104EA20000000201EB6BD7DC02D00201E66B1200BC
:104EB2000201FB6BFC6BFD6BFE6B050E0301456F84
:104EC20045EC00F000C0FBF201C0FCF2000E020152
:104ED200FD6FFE6FFE51000808E1FD51000805E17B
:104EE200FC51010802E1FB5190083CE2FBC200F0D8
:104EF200FCC201F0FDC202F0FEC203F0900E005EA1
:104F0200010E015A000E025A035A00C0FBF201C000
:104F1200FCF202C0FDF203C0FEF2640E046E000E4B
:104F2200056E066E076EA3EC03F000C0FBF201C033
:104F3200FCF202C0FDF203C0FEF2C30E046E000ECC
:104F4200056E066E076E24EC05F000C0FBF201C090
:104F5200FCF202C0FDF203C0FEF200C068F201C022
:104F620069F202D0686B696B040E0301456F45EC70
:104F720000F000C0FBF201C0FCF2000E0201FD6F66
:104F8200FE6FFE51000808E1FD51000805E1FC51E9
:104F9200010802E1FB5190083CE2FBC200F0FCC2B6
:104FA20001F0FDC202F0FEC203F0900E005E010E9F
:104FB200015A000E025A035A00C0FBF201C0FCF271
:104FC20002C0FDF203C0FEF2640E046E000E056E16
:104FD200066E076EA3EC03F000C0FBF201C0FCF208
:104FE20002C0FDF203C0FEF2C30E046E000E056E97
:104FF200066E076E24EC05F000C0FBF201C0FCF265
:1050020002C0FDF203C0FEF200C066F201C067F208
:0850120002D0666B676B12000F
:10501A000900F5CFE6FF0006FBE10106F9E11200FF
:10502A000F01256B246B236B258125839280928245
:10503A00929894929696969293968D868D82969A47
:10504A008D9A050E0B6E0F0E0C6EF10E0D6E0D2E57
:10505A00FED70C2EFCD70B2EFAD78D8A77EC1CF0D4
:10506A007DEC1CF00301176B7FEC0EF00F012E9FF5
:10507A004EEC1CF0C16ABE0EC06E800E0301016FB9
:10508A00000E026F400E036F000E046F010E056FD3
:10509A00066B5DEC1CF0A00E0301016F0F0E026F90
:0A50AA0067EC1EF09294929612003B
:1050B4003C0ECA6E9D82F90ECB6EC00EF26E1200CB
:0A50C400000E9EBA010E006E1200ED
:1050CE00AECF01F0ABA202D0AB98AB8801C000F01E
:0250DE001200BE
:1050E0000301176B7FEC0EF0630E0201D96F010113
:1050F0004B51000A09E1CFC201F3D0C202F3030110
:10510000036BA8EC21F009D0C7C201F3C8C202F3B7
:10511000010E0301036FA8EC21F039EC19F0E3EC68
:0A51200019F0FF0E0101316F1200BB
:10512A0082D0230E0301176F000E186F196B1A6BCA
:10513A00070E1B6F000E1C6F100E1D6F000E1E6FE8
:10514A00070E1F6F000E206F100E216F000E226FC8
:10515A006B0E236F800E246F000E256FADEC0EF0E0
:10516A006ED00301230E176F000E186F196B1A6B9E
:10517A00070E1B6F000E1C6F100E1D6F000E1E6FA8
:10518A00070E1F6F000E206F100E216F000E226F88
:10519A00790E236F800E246F000E256FADEC0EF092
:1051AA004ED00301230E176F000E186F196B1A6B7E
:1051BA00070E1B6F000E1C6F100E1D6F000E1E6F68
:1051CA00070E1F6F000E206F100E216F000E226F48
:1051DA006B0E236F800E246F000E256FADEC0EF060
:1051EA002ED00301230E176F000E186F196B1A6B5E
:1051FA00070E1B6F000E1C6F100E1D6F000E1E6F28
:10520A00070E1F6F000E206F100E216F000E226F07
:10521A00790E236F800E246F000E256FADEC0EF011
:10522A0001014C6B0CD001014C51010AD8B479D759
:10523A004C51020A96E04C51030AB3E0D2D712004D
:10524A00640E0201FB6F6C0EFC6F020EFD6F000E06
:10525A00FE6F000EFF6FACEC1CF00301176B7FECC6
:10526A000EF00A0E176F000E186F196B1A6B6C0E80
:10527A001B6F000E1C6F100E1D6F000E1E6F6C0E42
:10528A001F6F000E206F100E216F000E226F210E6D
:10529A00236F780E246F000E256FADEC0EF02D0EE5
:1052AA00176F000E186F196B030E1A6F010E1B6F22
:1052BA00ACEC0DF0230E176F000E186F196B040E6D
:1052CA001A6F010E1B6FACEC0DF00A0E176F000E71
:1052DA00186F300E196F000E1A6F180E1B6F000E22
:1052EA001C6F100E1D6F000E1E6F180E1F6F000E22
:1052FA00206F100E216F000E226FAB0E236F7F0EF0
:10530A00246F000E256FADEC0EF05E0E176F000EC7
:10531A00186F300E196F000E1A6F180E1B6F000EE1
:10532A001C6F100E1D6F000E1E6F180E1F6F000EE1
:10533A00206F100E216F000E226FDB0E236F7F0E7F
:10534A00246F000E256FADEC0EF0E3EC0DF0005269
:10535A00D8B494D04F0E176F020E186F640E196FDF
:10536A00020E1A6FB3EC0CF00050000AD8A485D0D4
:10537A00000E006E02015051005C02E14F510A0812
:10538A003AE2000E505D02E1220E4F5D34E2000E59
:10539A00006E6551005C02E1645130082CE2000E97
:1053AA00655D02E1400E645D26E20301176B7FEC46
:1053BA000EF00A0E176F000E186F300E196F000EDE
:1053CA001A6F180E1B6F000E1C6F100E1D6F000E49
:1053DA001E6F180E1F6F000E206F100E216F000E29
:1053EA00226FAB0E236F7F0E246F000E256FADEC7C
:1053FA000EF05CEF2FF0000E006E02015051005CBF
:10540A0002E14F515E0839E2000E505D02E1760E6C
:10541A004F5D33E2000E006E6551005C02E164519B
:10542A0030082BE2000E655D02E1400E645D25E264
:10543A000301176B7FEC0EF05E0E176F000E186FEC
:10544A00300E196F000E1A6F180E1B6F000E1C6FAC
:10545A00100E1D6F000E1E6F180E1F6F000E206FAC
:10546A00100E216F000E226FDB0E236F7F0E246F4A
:10547A00000E256FADEC0EF03FD03DD0340E0C6E11
:10548A00F10E0D6E0D2EFED70C2EFCD7000000007B
:10549A000201FC51FD11FE11FF1107E0010EFC5F34
:1054AA00000EFD5BFE5BFF5B26D00301176B7FECF2
:1054BA000EF00A0E176F000E186F300E196F000EDD
:1054CA001A6F180E1B6F000E1C6F100E1D6F000E48
:1054DA001E6F180E1F6F000E206F100E216F000E28
:1054EA00226FAB0E236F7F0E246F000E256FADEC7B
:1054FA000EF05CEF2FF029D7150E0B6E4B0E0C6ECB
:10550A00BE0E0D6E03010D2EFDD70C2EFBD70B2EF2
:10551A00F9D70000176B7FEC0EF00A0E176F000E1A
:10552A00186F196B1A6B6C0E1B6F000E1C6F100E26
:10553A001D6F000E1E6F6C0E1F6F000E206F100E77
:10554A00216F000E226FF90E236F780E246F000E62
:10555A00256FADEC0EF00A0E176F000E186F100EC5
:10556A00196F000E1A6F2C0E1B6F000E1C6F0F0E98
:10557A001D6F000E1E6F2C0E1F6F000E206F0F0E78
:10558A00216F000E226FBF0E236F7B0E246F000E59
:10559A00256FADEC0EF0490E176F000E186F100E46
:1055AA00196F000E1A6F2C0E1B6F000E1C6F0F0E58
:1055BA001D6F000E1E6F2C0E1F6F000E206F0F0E38
:1055CA00216F000E226F1F0E236F7D0E246F000EB7
:1055DA00256FADEC0EF00A0E176F000E186F200E35
:1055EA00196F000E1A6F2C0E1B6F000E1C6F0F0E18
:1055FA001D6F000E1E6F2C0E1F6F000E206F0F0EF8
:10560A00216F000E226FC70E236F7C0E246F000ECF
:10561A00256FADEC0EF0490E176F000E186F200EB5
:10562A00196F000E1A6F2C0E1B6F000E1C6F0F0ED7
:10563A001D6F000E1E6F2C0E1F6F000E206F0F0EB7
:10564A00216F000E226F6F0E236F7C0E246F000EE7
:10565A00256FADEC0EF00A0E176F000E186F300EA4
:10566A00196F000E1A6F2C0E1B6F000E1C6F0F0E97
:10567A001D6F000E1E6F2C0E1F6F000E206F0F0E77
:10568A00216F000E226F0F0E236F7B0E246F000E08
:10569A00256FADEC0EF0490E176F000E186F300E25
:1056AA00196F000E1A6F2C0E1B6F000E1C6F0F0E57
:1056BA001D6F000E1E6F2C0E1F6F000E206F0F0E37
:1056CA00216F000E226F170E236F7C0E246F000EBF
:1056DA00256FADEC0EF0E3EC0DF00052D8B4A5D175
:1056EA004F0E176F020E186F640E196F020E1A6FA3
:1056FA00B3EC0CF00050000AD8A497D1000E006E4B
:10570A0002015051005C02E14F510A083CE2000ECE
:10571A00505D02E1360E4F5D36E2000E006E6551B5
:10572A00005C02E1645110082EE2000E655D02E1A0
:10573A001F0E645D28E20301176B7FEC0EF00A0E60
:10574A00176F000E186F100E196F000E1A6F2C0EBD
:10575A001B6F000E1C6F0F0E1D6F000E1E6F2C0E9E
:10576A001F6F000E206F0F0E216F000E226FBF0EEB
:10577A00236F7B0E246F000E256FADEC0EF0010E29
:10578A000201636F53D1000E006E5051005C02E1BA
:10579A004F5149083CE2000E505D02E1750E4F5D23
:1057AA0036E2000E006E6551005C02E16451100899
:1057BA002EE2000E655D02E11F0E645D28E2030120
:1057CA00176B7FEC0EF0490E176F000E186F100E54
:1057DA00196F000E1A6F2C0E1B6F000E1C6F0F0E26
:1057EA001D6F000E1E6F2C0E1F6F000E206F0F0E06
:1057FA00216F000E226F1F0E236F7D0E246F000E85
:10580A00256FADEC0EF0020E0201636F0FD1000E90
:10581A00006E5051005C02E14F510A083BE2000E53
:10582A00505D02E1360E4F5D35E2000E006E6551A5
:10583A00005C02E1645120082DE2000E655D02E180
:10584A002F0E645D27E20301176B7FEC0EF00A0E40
:10585A00176F000E186F200E196F000E1A6F2C0E9C
:10586A001B6F000E1C6F0F0E1D6F000E1E6F2C0E8D
:10587A001F6F000E206F0F0E216F000E226FC70ED2
:10588A00236F7C0E246F000E256FADEC0EF0020123
:10589A00636BCCD0000E006E5051005C02E14F5198
:1058AA0049083CE2000E505D02E1750E4F5D36E29A
:1058BA00000E006E6551005C02E1645120082EE280
:1058CA00000E655D02E12F0E645D28E20301176B8D
:1058DA007FEC0EF0490E176F000E186F200E196F2D
:1058EA00000E1A6F2C0E1B6F000E1C6F0F0E1D6F11
:1058FA00000E1E6F2C0E1F6F000E206F0F0E216FF1
:10590A00000E226F6F0E236F7C0E246F000E256F20
:10591A00ADEC0EF0040E0201636F88D0000E006E2B
:10592A005051005C02E14F510A083CE2000E505D02
:10593A0002E1360E4F5D36E2000E006E6551005CE4
:10594A0002E1645130082EE2000E655D02E13F0E6D
:10595A00645D28E20301176B7FEC0EF00A0E176FE5
:10596A00000E186F300E196F000E1A6F2C0E1B6F77
:10597A00000E1C6F0F0E1D6F000E1E6F2C0E1F6F78
:10598A00000E206F0F0E216F000E226F0F0E236F75
:10599A007B0E246F000E256FADEC0EF0030E020194
:1059AA00636F44D0000E006E5051005C02E14F510B
:1059BA0049083BE2000E505D02E1750E4F5D35E28B
:1059CA00000E006E6551005C02E1645130082DE260
:1059DA00000E655D02E13F0E645D27E20301176B6D
:1059EA007FEC0EF0490E176F000E186F300E196F0C
:1059FA00000E1A6F2C0E1B6F000E1C6F0F0E1D6F00
:105A0A00000E1E6F2C0E1F6F000E206F0F0E216FDF
:105A1A00000E226F170E236F7C0E246F000E256F67
