:020000040000FA
:10000000DBEF2DF0FFFFFFFF00C016F001C015F081
:100010009EAA0BD0010E01014525006E000E46215F
:10002000016E00C045F101C046F19EA218D0010149
:100030009E92FB5305E0FB05006E00C0FBF102D071
:100040000A0EFB6F8A96FA51FB5DD8A08A860201E0
:100050006551661104E0010E655F000E665B16C017
:1000600000F015C001F01100060E0D6E0D2EFED72A
:10007000000012000E0E0D6E0D2EFED700001200B5
:100080000AAE029E000E1200830EC216E0C200F0FD
:1000900000360090003600900050C212EBDFC282A2
:1000A000C2A201D0FDD7C4CF01F0006A00C0E1F2C6
:1000B00001C0E2F2C3500012000E011200C0E1F2D2
:1000C00001C0E2F2000E0014026E0150800B036EBC
:1000D000000E031802E1000E021803E00201E16BBA
:1000E000E26BE1C200F0E2C201F012000000000089
:1000F00012000B840BAE84EF00F0010E036E026A57
:10010000016A006A0A360232FF0E1200026A016AB0
:10011000006A086A036A000E1200A6DF8D88A4DF59
:100120008D9812000C6A0E6A0250D8A4ABEF00F052
:1001300001C002F000C001F0006A0E860250D8A48F
:10014000ABEF00F001C002F0016A0E960E8802507B
:10015000D8B4BDEF00F00E50035ED8A4D8A0C2EF13
:1001600000F0D89002BEC7EF00F00036013602362C
:10017000032EB2EF00F0C2EF00F0010E0C6EC6DFEE
:10018000CAEF00F0020E0C6EB4DFCAEF00F0040EEE
:100190000C6E76DF12000B1E0A1E091E081E082AAE
:1001A000D8B4092AD8B40A2AD8B40B2A12000450A9
:1001B000085E0550D8A0053C095E0650D8A0063C54
:1001C0000A5E0750D8A0073C0B5E0336070E0C6E84
:1001D0000334083609360A360B36045003A00ED015
:1001E000085E0550D8A0053C095E0650D8A0063C24
:1001F0000A5E0750D8A0073C0B5E0DD008260550BC
:10020000D8B0053C09260650D8B0063C0A2607504F
:10021000D8B0073C0B2603360C2EDAD7023408364A
:1002200009360A360B36045003A00ED0085E05507E
:10023000D8A0053C095E0650D8A0063C0A5E0750CF
:10024000D8A0073C0B5E0DD008260550D8B0053C61
:1002500009260650D8B0063C0A260750D8B0073CFD
:100260000B260236070E0C6E0234083609360A36A3
:100270000B36045002A00ED0085E0550D8A0053CF5
:10028000095E0650D8A0063C0A5E0750D8A0073C7D
:100290000B5E0DD008260550D8B0053C0926065047
:1002A000D8B0063C0A260750D8B0073C0B260236C9
:1002B0000C2EDAD70134083609360A360B360450CC
:1002C00002A00ED0085E0550D8A0053C095E06507D
:1002D000D8A0063C0A5E0750D8A0073C0B5E0DD0A4
:1002E00008260550D8B0053C09260650D8B0063C73
:1002F0000A260750D8B0073C0B260136070E0C6EB5
:100300000134083609360A360B36045001A00ED0E7
:10031000085E0550D8A0053C095E0650D8A0063CF2
:100320000A5E0750D8A0073C0B5E0DD0082605508A
:10033000D8B0053C09260650D8B0063C0A2607501E
:10034000D8B0073C0B2601360C2EDAD7003408361D
:1003500009360A360B36045001A00ED0085E05504F
:10036000D8A0053C095E0650D8A0063C0A5E07509E
:10037000D8A0073C0B5E0DD008260550D8B0053C30
:1003800009260650D8B0063C0A260750D8B0073CCC
:100390000B260036070E0C6E0034083609360A3676
:1003A0000B36045000A00ED0085E0550D8A0053CC6
:1003B000095E0650D8A0063C0A5E0750D8A0073C4C
:1003C0000B5E0DD008260550D8B0053C0926065016
:1003D000D8B0063C0A260750D8B0073C0B2600369A
:1003E0000C2EDAD700B00ED0045008260550D8B035
:1003F000053C09260650D8B0063C0A260750D8B05E
:10040000073C0B261200020E0C6E490E0D6E0D2ECF
:10041000FED70C2EFCD70000000012000B6A0B86E2
:10042000FF0E12000B820BAE1CEF02F00368026895
:10043000016800680A360232FF0E1200C7B409D004
:100440001F0EC514016E0150000A03E1010E006E7B
:1004500001D0006A12000B800BAE37EF02F0026A87
:100460000AAEFF0E026E016E006E0A360232FF0EF9
:100470001200F250026EF29E0500FF6A0150FE6EFD
:100480000050FD6E02BEF28E12007F0E0201DF15DB
:10049000016E01C0DFF201AC03D08A8A8A9802D0D3
:1004A0008A9A8A8812000D0E0C6EFB0E0D6E0D2EB0
:1004B000FED70C2EFCD70000000012008D988D8E08
:1004C0008D9CDFC283FF29DE1200FF0E956E0EDECB
:1004D0000DDE8D8E8D988D8C8D88C6DD83CFDFF2FD
:1004E0008D988D9C03DE02DE956ADFC200F012005B
:1004F0007F0E0201DF15006E00C0DFF28D9E8D9C25
:10050000BF0E001600C0DFF2008C00C0DFF200C09A
:1005100083FF03DE12000B6A0A6A096A00500402B4
:10052000F4CF09F0F3CF08F001500502F4CF0BF03F
:10053000F3CF0AF000500502F3500926F4500A22C6
:10054000E86A0B2201500402F3500926F4500A22F3
:10055000E86A0B2208C000F009C001F00AC002F0EE
:100560000BC003F01200030E0C6E970E0D6E0D2ED5
:10057000FED70C2EFCD70000000012008D9E8D9C33
:10058000B80E0201DF11836EC8DD12000201D751DF
:10059000070801E282D06C51D55D006E6DC201F09A
:1005A000000E01566BC204F0000E056EB4DF00C0F1
:1005B000DDF201C0DEF2D6C2DFF29ADFD7C2DFF28F
:1005C000DDDFD96B6B51D95D49E2D6517F0801E27D
:1005D00064D0D6C2DFF259DFD7C2DFF2CFDFD6C296
:1005E000DFF286DF72DF00C0DAF26FDF00C0DAF21E
:1005F000D6C2DFF24ADFD7C2DFF2C0DFD6C2DFF2F7
:1006000077DFDD516125F66EDE516221F76E000E57
:10061000DEBFFF0E6321F86E0900F5CF00F000C0C9
:10062000DBF2DD4BDE2B001CDC6F09D0DCC2DAF222
:100630000FD0DBC2DAF20CD0DB51DA1B09D0D85173
:10064000000AF4E0D851010AF4E0D851020AF4E0BB
:10065000DAC2DFF233DFD62BD92BB4D7D6C2DFF222
:1006600014DFD7C2DFF28ADFD6C2DFF241DFFF0E2E
:10067000DB6FDC6B0CD0DBC2DAF2DBC2DFF21EDF39
:100680000CD0DCC2DAF2DCC2DFF218DF06D0D851BF
:10069000000AF1E0D851010AF4E012009E96C586E6
:1006A0009EB601D0FDD7C9CF01F00201D551000A95
:1006B00002E1C58A01D0C59A9E96C5889EB601D032
:1006C000FDD701C000F012000050086E0150006E0E
:1006D000016A026A036A0B6A0C6A960E036E0A6A62
:1006E00000C001F008C000F0086A026A1BDD1200B9
:1006F000C584120089988B82000E02013A1902E12A
:10070000800E391908E1000E3F1902E1400E3E1932
:1007100002E179DE01D0C7DE69C2E1FF6AC2E2FF11
:1007200044C2E6FF67C200F068C201F0A2DE120018
:10073000220E0C6E086A096A0A6A0B6A0C06D8B4A3
:100740001FD0D8900B320A320932083203320232FB
:1007500001320032D8A0F2D70C06D8B409D0045028
:1007600008260550092206500A2207500B22EAD714
:10077000045008260550092206500A2207500B2271
:10078000120089888B92000E02013A1902E1800E54
:10079000391908E1000E3F1902E1400E3E1902E14D
:1007A00032DE01D080DE69C2E1FF6AC2E2FF3BC2F5
:1007B000E6FF67C200F068C201F05BDE12008988C4
:1007C0008B9271DE69C2E1FF6AC2E2FF3BC2E6FFC3
:1007D00067C200F068C201F04CDE120089988B827B
:1007E00062DE69C2E1FF6AC2E2FF44C2E6FF67C29D
:1007F00000F068C201F03DDE12009E96D5C2C9FF2E
:10080000C7A401D0FDD79EB601D0FDD7C5BC02D08C
:10081000006A03D0C584020E006E1200C582C5A214
:1008200001D0FDD7120089988B923DDE69C2E1FFAD
:100830006AC2E2FF44C2E6FF67C200F068C201F08C
:1008400018DE01500201415D02E10050405D010EE1
:10085000D8B0000ED56F87DE86DE69C2E1FF6AC2BE
:10086000E2FF44C2E6FF67C200F068C201F001DEA9
:1008700001500201415D02E10050405D010ED8B01F
:10088000000E026E0250D515006E00C0D5F21200A7
:100890000450000A12E10550000A0FE10650000A58
:1008A0000CE10750000A09E1FF0E006EFF0E016E19
:1008B000FF0E026E7F0E036E98D00C6A07BE0C2AE4
:1008C0000D6A0B6A0A6A096A086A0350021001106D
:1008D0000010D8B484D0035007180E6E0EBE0D1E43
:1008E00007AE0BD0041E051E061E071E042AD8B430
:1008F000052AD8B4062AD8B4072A03AE0BD0001EA6
:10090000011E021E031E002AD8B4012AD8B4022AEE
:10091000D8B4032A035007100E6E0EBE1CD047DC5D
:100920000CBE36D00DAE5BD0001E011E021E031E93
:10093000002AD8B4012AD8B4022AD8B4032A081E3F
:10094000091E0A1E0B1E082AD8B4092AD8B40A2A7E
:10095000D8B40B2A44D007AE15D003BE0DD0035037
:100960000B6E02500A6E0150096E0050086E036A49
:10097000026A016A006AD6D7036A026A016A006ADB
:10098000002A000C031E021E011E001E0C8EC7D77B
:10099000082AD8B4092AD8B40A2AD8B40B2A045091
:1009A000085CD8A4BFD70550095CD8A4BBD70650B3
:1009B0000A5CD8A4B7D707500B5CD8A4B3D70B6A8E
:1009C0000A6A096A086A002AD8B4012AD8B4022A35
:1009D000D8B4032A03AEA6D70E6A0E88FF0C0E6A9F
:1009E0000CA002D0CBEC00F0000F12000201D56B7E
:1009F000D66BD651120802E1D5518E0808E31EDDF0
:100A0000005201E004D00201D54BD62BF2D70201EF
:100A1000120ED65D02E18F0ED55D03E37B0E006EF4
:100A200005D0C580C5A001D0FDD7006A12000B6AB1
:100A30000A6A096A086A0E6A033408360450085EB6
:100A40000550D8A0053C095E0650D8A0063C0A5EB9
:100A50000750D8A0073C0B5EE86AD8A0010E0E5ED6
:100A60000336070E0C6E0334083609360A360B3689
:100A70000E36045003A012D0085E0550D8A0053CE5
:100A8000095E0650D8A0063C0A5E0750D8A0073C75
:100A90000B5EE86AD8A0010E0E5E11D00826055044
:100AA000D8B0053C09260650D8B0063C0A260750A7
:100AB000D8B0073C0B26E86AD8B0010E0E260336E4
:100AC0000C2ED1D70234083609360A360B360E36CC
:100AD000045003A012D0085E0550D8A0053C095E62
:100AE0000650D8A0063C0A5E0750D8A0073C0B5E13
:100AF000E86AD8A0010E0E5E11D008260550D8B0C5
:100B0000053C09260650D8B0063C0A260750D8B046
:100B1000073C0B26E86AD8B0010E0E260236070EF7
:100B20000C6E0234083609360A360B360E3604507F
:100B300002A012D0085E0550D8A0053C095E065000
:100B4000D8A0063C0A5E0750D8A0073C0B5EE86AB6
:100B5000D8A0010E0E5E11D008260550D8B0053C75
:100B600009260650D8B0063C0A260750D8B0073CE4
:100B70000B26E86AD8B0010E0E2602360C2ED1D70D
:100B80000134083609360A360B360E36045002A0F8
:100B900012D0085E0550D8A0053C095E0650D8A0CA
:100BA000063C0A5E0750D8A0073C0B5EE86AD8A056
:100BB000010E0E5E11D008260550D8B0053C09265E
:100BC0000650D8B0063C0A260750D8B0073C0B2682
:100BD000E86AD8B0010E0E260136070E0C6E0134FD
:100BE000083609360A360B360E36045001A012D0EC
:100BF000085E0550D8A0053C095E0650D8A0063C0A
:100C00000A5E0750D8A0073C0B5EE86AD8A0010E28
:100C10000E5E11D008260550D8B0053C09260650B6
:100C2000D8B0063C0A260750D8B0073C0B26E86A25
:100C3000D8B0010E0E2601360C2ED1D7003408365E
:100C400009360A360B360E36045001A012D0085E63
:100C50000550D8A0053C095E0650D8A0063C0A5EA7
:100C60000750D8A0073C0B5EE86AD8A0010E0E5EC4
:100C700011D008260550D8B0053C09260650D8B03A
:100C8000063C0A260750D8B0073C0B26E86AD8B0C5
:100C9000010E0E260036070E0C6E0034083609369B
:100CA0000A360B360E36045000A012D0085E0550EE
:100CB000D8A0053C095E0650D8A0063C0A5E075045
:100CC000D8A0073C0B5EE86AD8A0010E0E5E11D0DA
:100CD00008260550D8B0053C09260650D8B0063C79
:100CE0000A260750D8B0073C0B26E86AD8B0010E98
:100CF0000E2600360C2ED1D700B00ED00450082698
:100D00000550D8B0053C09260650D8B0063C0A2646
:100D10000750D8B0073C0B261200016A026A020194
:100D2000D951025C02E1D851015C0BE20150D5259A
:100D3000E16E0250D621E26ED7C2E6FF014A022AD6
:100D4000EED712000B6A0C6A0A6A086A0350D8B41C
:100D50002AEF07F0028E9E0E035E03BEB5EF06F08B
:100D6000D8B4B5EF06F01AEF07F0036C080E035C79
:100D7000D8A0E7EF06F0036E083600C008F001C007
:100D800000F002C001F0026A080E035CD8A0E7EF91
:100D900006F0036E083600C008F001C000F0016ADA
:100DA000080E035CD8A0E7EF06F0036E083600C01B
:100DB00008F0006A080E035CD8A0E7EF06F0036EA7
:100DC0000836086A0350D8A4D890F3EF06F0035011
:100DD000D8B4F3EF06F0D890023201320032083274
:100DE000032EEBEF06F00BBC08A004EF07F0D8A031
:100DF00004EF07F0082AD8B4002AD8B4012AD8B4DE
:100E0000022A02BE2EEF07F00AAE2AEF07F0021EFA
:100E1000011E001E081E082AD8B4002AD8B4012AD0
:100E2000D8B4022A2AEF07F0026A016A006A086A47
:100E30002AEF07F00B800BAE34EF07F0026A0AAE20
:100E400034EF07F0026E016E006E086E0A36023251
:100E500034EF07F0000E0C6A35EF07F0010E0C6E50
:100E60002BEC02F035EF07F0FF0E0250036E01503D
:100E7000026E0050016E0850006E1200086A096A86
:100E8000000E07620364C3EF07F0025006180A6EF3
:100E9000075003267E0ED8A054EF07F0035ED8B0AB
:100EA000C8EF07F058EF07F0035ED8A0CDEF07F0CA
:100EB000028E068E02C00EF001C00BF000C00DF0D5
:100EC00000500402F4CF0CF001500502F4CF00F002
:100ED000F3CF08F00402F3500C26F4500822000E61
:100EE00000220D500502F3500C26F4500822000E8B
:100EF000002202500402F3500826F450002202504F
:100F00000502016A000E0122F3500026F45001226E
:100F10000D500602F3500826F4500022026A000E1B
:100F2000012202220B500602F3500026F450012247
:100F3000000E02220E500602F3500126F450022247
:100F400002BEABEF07F00836003601360236030664
:100F5000D8B4CDEF07F0BEEF07F0D880800E08645C
:100F60000030000E002201220222D8A0BEEF07F0BE
:100F7000023201320032034AC8EF07F00AAE029E85
:100F8000000ED0EF07F0010E86EC00F0D0EF07F076
:100F9000020E12EC02F0D0EF07F0040E79EC00F034
:100FA00012000450000A12E10550000A0FE1065039
:100FB000000A0CE10750000A09E1FF0E006EFF0E67
:100FC000016E7F0E026EFF0E036EA8D0086A096ADA
:100FD0000750D8B47CEF08F00350D8B481EF08F084
:100FE000025006180A6E028E068E0E6A02C008F0C3
:100FF00001C00CF000C00DF004500D5E0550D8A0EB
:10100000053C0C5E0650D8A0063C085E086A0C6AD7
:101010000D6AD8A013EF08F0D890023201320032E6
:101020000832010E0E6E0750035ED8A020EF08F0C4
:101030007E0E0E240326D8B086EF08F026EF08F0C7
:101040007E0E0E240326D8A08BEF08F0180E0B6E30
:101050000D360C3608360036013602360E36045090
:10106000005E0550D8A0053C015E0650D8A0063CA5
:10107000025E06340E120EA041EF08F00D804CEF18
:1010800008F0045000260550D8B0053C0126065053
:10109000D8B0062802260D900B2E28EF08F072EF2C
:1010A00008F0D8900036013602360E360450005E45
:1010B0000550D8A0053C015E0650D8A0063C025E53
:1010C00006340E10010B0D26D8B00C2AD8B4082A0D
:1010D000D8A472EF08F008320C320D32032AD8B4CB
:1010E00086EF08F00AAE089E0850026E0C50016EA2
:1010F0000D50006E8EEF08F0010E0EEC02F08EEF38
:1011000008F0020E86EC00F08EEF08F0040E12ECF0
:1011100002F08EEF08F0080E79EC00F012000B6A76
:101120000C6A0A6A0350D8B4D9EF08F0028E8E0E0A
:10113000035E03BEA1EF08F0D8B4A1EF08F0DDEF25
:1011400008F0036C080E035CD8A0B8EF08F0036E3B
:10115000013602C001F0026A080E035CD8A0B8EFA5
:1011600008F00136016A0350D8A4D890C2EF08F005
:101170000350D8B4C2EF08F0D89002320132032EE7
:10118000BCEF08F00BBC01A0CFEF08F0D8A0CFEF68
:1011900008F0012AD8B4022A02BEECEF08F00AAE29
:1011A000F2EF08F0021E011E012AD8B4022AF2EF63
:1011B00008F0026A016AF2EF08F00B800BAEF6EF5E
:1011C00008F0026A0AAEF6EF08F0FF0E026E016E3A
:1011D0000A360232F6EF08F0010E0C6E2BEC02F02C
:1011E000F8EF08F0000E0C6EF8EF08F0FF0E0C6E32
:1011F0000150006E0250016E12000CB03FEF09F07A
:101200000CA2E7EF09F00E6A000E026456EF09F037
:10121000F00E0214D8A421EF09F0023A01380F0BA6
:1012200002260138F00B016E00380F0B0126003842
:10123000F00B006E08380F0B00260838F00B086E14
:101240000E84D89002BE3AEF09F008360036013617
:1012500002360E2A02BE3AEF09F008360036013691
:1012600002360E2A02BE3AEF09F008360036013681
:1012700002360E2A0E500364DBEF09F0035E0BBC4E
:1012800008AEE1EF09F0D880800E08640030000E4F
:10129000002201220222D8A0E1EF09F0023201323D
:1012A0000032034AE7EF09F0E1EF09F001C002F074
:1012B00000C001F008C000F0086A000E0E8602644B
:1012C0008DEF09F0F00E0214D8A475EF09F0023A80
:1012D00001380F0B02260138F00B016E00380F0B9E
:1012E00001260038F00B006E0E84D89002BE3AEF53
:1012F00009F00036013602360E2A02BE3AEF09F036
:101300000036013602360E2A02BE3AEF09F00036E8
:10131000013602360E2A3AEF09F001C002F000C091
:1013200001F0006A000E0E960E880264BAEF09F012
:10133000F00E0214D8A4A5EF09F0023A01380F0B01
:1013400002260138F00B016E0E84D89002BE3AEFEF
:1013500009F0013602360E2A02BE3AEF09F00136D4
:1013600002360E2A02BE3AEF09F0013602360E2A84
:101370003AEF09F001C002F0016A000E0E86026425
:10138000EDEF09F0F00E0214D8A4C9EF09F0023A0B
:101390000E84D89002BE3AEF09F002360E2A02BE41
:1013A0003AEF09F002360E2A02BE3AEF09F0023691
:1013B0000E2A3AEF09F0010E0C6E79EC00F0F1EF15
:1013C00009F0020E0C6E40EC00F0F1EF09F0040E93
:1013D0000C6E12EC02F0F1EF09F0080E0C6E86ECC8
:1013E00000F0120013EC04F0005201E1FBD7000EF4
:1013F0003A1902E1800E391919E1000E3F1902E194
:10140000400E3E1913E1DFEC03F00A0E005C02010E
:101410005B6F000E01585C6FEEEC03F00A0E005C8F
:101420000201596F000E01585A6F12D0DFEC03F021
:10143000030E005C02015B6F000E01585C6FEEEC66
:1014400003F0030E005C0201596F000E01585A6F41
:101450001200000E0201B25D0AE3B2517F0807E3F9
:10146000000EB35D04E3B3513F0801E301D052D055
:10147000B2C2DFF245EC02F0B3C2DFF2DF33DF9F2E
:10148000DF33DF9FDF33DF9FBEEC02F0B2C2DFF25B
:1014900078EC02F065EC02F000C0B7F265EC02F007
:1014A00000C0B7F2B3C2DFF2DF33DF9FDF33DF9F6D
:1014B000DF33DF9FBEEC02F0B2C2DFF278EC02F065
:1014C000070EB315006E00C0B5F200C001F0010EAA
:1014D000006E015004E000360090FF0FFBD700C003
:1014E000B5F2001CB66F09D0B651B7170FD0B55181
:1014F000B7130CD0B551B71B09D0B451000AF4E0B2
:10150000B451010AF4E0B451020AF4E0B7C2DFF2C8
:101510005EEC02F012007FA202D00000FCD77F9C9C
:10152000B3C263FFB2C262FFB4C261FF7F9E7F8419
:10153000F2CF00F0F29E550E7E6EAA0E7E6E7F8276
:1015400000BE02D0F29E01D0F28E7F941200020102
:10155000B851000A03E1010E006E7DD0B2C2D5F28F
:10156000B3C2D6F2B9C2D7F2B8C2D8F2000ED96F60
:101570008DEC06F0B851B225E16E000EB321E26E9B
:10158000E66AB807B851B225E16E000EB321E26EEB
:10159000300EE66EB751000808E1B651000805E1CB
:1015A000B551000802E1B451000854E2B851B22527
:1015B000BA6F000EB321BB6F0A0E046E000E056EEB
:1015C000066E076EB4C200F0B5C201F0B6C202F0FA
:1015D000B7C203F017EC05F008C000F009C001F035
:1015E0000AC002F00BC003F0300E0026BAC2E1FFC1
:1015F000BBC2E2FF00C0E6FF0A0E046E000E056EDD
:10160000066E076EB4C200F0B5C201F0B6C202F0B9
:10161000B7C203F017EC05F000C0B4F201C0B5F298
:1016200002C0B6F203C0B7F2B8C201F0B807015069
:10163000000A0FE1B751000808E1B651000805E1C2
:10164000B551000802E1B451000803E2010E006E3A
:1016500002D0A0D7006A12000201B76B4351000A02
:101660000EE1050E6B6F070E426F1A0E616F6A0E68
:10167000626F000E636F200E6C6F000E6D6FB751BE
:10168000B225E96E000EB321EA6EEE5217E0B751B3
:10169000B225E96E000EB321EA6EEECFD5F2B4C2E8
:1016A000D6F2B5C2D7F2B6C2D8F2C6EC02F06B5190
:1016B000010F006E0050B427B72BE1D712000201D2
:1016C000B26BB36BB46B106B116B046B056B0A6B75
:1016D0000B6BF6EC04F0C80E0201D56FFDEC03F0C5
:1016E00000C0B2F20050000A03E0B2C200F07ED1A6
:1016F000020E0201D56FFDEC03F00EEC04F0C90EF2
:101700000201D56FFDEC03F0010E0201D56F4EEC26
:1017100003F000C0B3F2000E0201B46FB3C2B4F222
:10172000B36B010ED56F4EEC03F0000E016E02019B
:10173000B3510012B451011200C0B3F201C0B4F2AF
:1017400000C0FEF101C0FFF178EC03F0820E0C6ED8
:10175000DD0E0D6E0D2EFED70C2EFCD70000000006
:10176000F6EC04F0C80E0201D56FFDEC03F000C0EA
:10177000B2F20050000A03E0B2C200F037D1080E06
:101780000201D56FFDEC03F00EEC04F0C90E02016E
:10179000D56FFDEC03F0010E0201D56F4EEC03F0A6
:1017A00000C0B3F2000E0201B46FB3C2B4F2B36B67
:1017B000010ED56F4EEC03F0000E016E0201B35125
:1017C0000012B451011200C0B3F201C0B4F200C063
:1017D00004F201C005F278EC03F004C200F005C287
:1017E00001F064EC03F0000E046E000E056E6C0E4A
:1017F000066E860E076E3EEC07F0000E046EFF0EBE
:10180000056E7F0E066E8E0E076ED1EC07F0A2EC11
:1018100006F000C012F201C013F20201B36BB46B08
:10182000820E0C6EDD0E0D6E0D2EFED70C2EFCD72B
:1018300000000000F6EC04F0C80E0201D56FFDECCC
:1018400003F000C0B2F20050000A03E0B2C200F0A0
:10185000CDD00E0E0201D56FFDEC03F000C0B2F248
:101860000050000A03E0B2C200F0C0D00EEC04F059
:10187000C90E0201D56FFDEC03F000C0B2F20050BA
:10188000000A03E0B2C200F0B1D0010E0201D56F30
:101890004EEC03F000C0B3F2000E0201B46FB3C20D
:1018A000B4F2B36B010ED56F4EEC03F0000E016E77
:1018B0000201B3510012B451011200C0B3F201C0D1
:1018C000B4F200C00AF201C00BF278EC03F00B5145
:1018D0007F0802E10A51FF0814E2010E206FFF0E9B
:1018E0000A5D016E7F0E0B59026E01C00AF202C042
:1018F0000BF2000E025C02E1140E015CD8A0206B1A
:101900000CD0206B0A51FF08006E0BC201F07F0E55
:10191000015600C00AF201C00BF20AC200F00BC26D
:1019200001F064EC03F006C104F007C105F008C142
:1019300006F009C107F03EEC07F0A2EC06F0FF0E3E
:10194000046E7F0E056E000E066E076E17EC05F036
:1019500000C014F201C015F2B36BB46B820E0C6EB2
:10196000DD0E0D6E0D2EFED70C2EFCD700000000F4
:10197000F6EC04F0C80E0201D56FFDEC03F000C0D8
:10198000B2F20050000A03E0B2C200F02FD0140EF1
:101990000201D56FFDEC03F00EEC04F0C90E02015C
:1019A000D56FFDEC03F0010E0201D56F4EEC03F094
:1019B00000C0B3F2000E0201B46FB3C2B4F2B36B55
:1019C000010ED56F4EEC03F0000E016E0201B35113
:1019D0000012B451011200C0B3F201C0B4F200C051
:1019E00010F201C011F278EC03F0006A1200C1ECB1
:1019F00003F002015B51005CB66F5C510158B76F98
:101A00007AEC03F002015951005CC26F5A5101583F
:101A1000C36FC2C2B8F2C3C2B9F2B6C200F0B7C255
:101A200001F0000EB7BFFF0E026E036E39C204F064
:101A30003AC205F0000E066E076E98EC03F05B519B
:101A40005F5D046E5C516059056E000E066E076E98
:101A500048EC04F000C0BEF201C0BFF202C0C0F208
:101A600003C0C1F2BEC2B6F2BFC2B7F2C2C200F03A
:101A7000C3C201F0000E0201C3BFFF0E026E036E6F
:101A80003EC204F03FC205F0000E066E076E98ECF1
:101A900003F059515D5D046E5A515E59056E000E9A
:101AA000066E076E48EC04F0005002013E5DB86F10
:101AB00001503F59B96F800EBF19006E800E005C57
:101AC00002E1000EBE5D07E33A51B75D02E1395114
:101AD000B65D01E203D0010E006E66D0800EB9192A
:101AE000006E800E005C02E1000EB85D07E33F511E
:101AF000B95D02E13E51B85D01E203D0010E006E16
:101B000053D03C51B65D016E3D51B759026E01C0D4
:101B1000BAF202C0BBF24751B85DBC6F4851B95927
:101B2000BD6FB6C23CF2B7C23DF2B8C247F2B9C20D
:101B300048F2800E000A006E800E0218005C02E17E
:101B4000015005081DE3800E000A006E800EBD19CD
:101B5000005C02E1BC51050813E3800EBB19006E66
:101B60007F0E005C02E1FB0EBA5D0AE3800EBD1938
:101B7000006E7F0E005C02E1FB0EBC5D01E303D052
:101B8000010E006E11D0B2C2E1FFB3C2E2FFB6C2D5
:101B9000E6FFB7C2E6FFB4C2E1FFB5C2E2FFB8C2DA
:101BA000E6FFB9C2E6FF006A12008A9A8A8802013B
:101BB000B46BB451070810E3B4C2DFF2BEEC02F01C
:101BC000B36BB3513F0806E3B2C2DFF25EEC02F042
:101BD000B32BF7D7B42BEDD78A988A8AB46BB4515C
:101BE000070810E3B4C2DFF2BEEC02F0B36BB351EE
:101BF0003F0806E3B2C2DFF25EEC02F0B32BF7D788
:101C0000B42BEDD7120013EC04F0005201E1FBD726
:101C1000000E3A1902E1800E391919E1000E3F1940
:101C200002E1400E3E1913E1DFEC03F0050E002443
:101C300002015F6F000E0120606FEEEC03F0050EF5
:101C4000002402015D6F000E01205E6F12D0DFECF8
:101C500003F0030E002402015F6F000E0120606F8D
:101C6000EEEC03F0030E002402015D6F000E012074
:101C70005E6F120089988B9203EC02F069C2E1FF5B
:101C80006AC2E2FF44C2E6FF67C200F068C201F028
:101C900039EC02F001500201415D02E10050405D6B
:101CA000010ED8B0000EB26F03EC02F069C2E1FF82
:101CB0006AC2E2FF44C2E6FF67C200F068C201F0F8
:101CC00039EC02F001500201415D02E10050405D3B
:101CD000010ED8B0000E026E0250B215006E00C0A8
:101CE000B2F212000201C76BC86BC96BCA6BCB6B37
:101CF000CC6BCD6BCE6BB651B225006EB751B32114
:101D0000016E010E005C026E000E0158036E000EA3
:101D1000006E0350005C02E102507F0807E2B251FE
:101D20008008B66FB3C2B7F2000EB757B851B425EA
:101D3000006EB951B521016E010E005C026E000EFD
:101D40000158036E000E006E0350005C02E1025069
:101D50003F0807E2B4514008B86FB5C2B9F2000EAF
:101D6000B957B4C200F0B5C201F001320032019E91
:101D700001320032019E01320032019E00C0C1F2E8
:101D8000B851B425056EB951B521066E010E055C3A
:101D9000036E000E0658046E03C000F004C001F08C
:101DA00001320032019E01320032019E01320032C6
:101DB000019E00C0C2F2070EB415006EB5C201F05C
:101DC000000E011600C0C4F2070E0514006E06C016
:101DD00001F0000E011600C0C5F2BD51B95D02E16F
:101DE000BC51B85D03E2C2C2C6F21BD0BC51B425DF
:101DF000006EBD51B521016E010E005C036E000E38
:101E00000158046E03C000F004C001F0013200323A
:101E1000019E01320032019E01320032019E00C05B
:101E2000C6F2070EBC15016EBDC202F0000E02160E
:101E3000000E021802E1000E011818E1BCC200F009
:101E4000BDC201F001320032019E01320032019E1A
:101E500001320032019EBAC204F0BBC205F08BEC25
:101E600002F000C0D1F201C0D2F219D0BCC200F021
:101E7000BDC201F001320032019E01320032019EEA
:101E800001320032019E004A012ABAC204F0BBC2EC
:101E900005F08BEC02F000C0D1F201C0D2F2C1C259
:101EA000C7F2000EC86F000E006EC851005C02E160
:101EB000C751C25DD8A003D1CF6BD06BC96BCA6BC1
:101EC000B751CA5D02E1B651C95DD8B0E7D0C9517A
:101ED000B225DF6F45EC02F0C7C2DFF2BEEC02F0C4
:101EE000BB51CA5D02E1BA51C95D3DE2000E006E10
:101EF000C851005C02E1C751C65D35E3000EC81948
:101F000002E1C151C71902E1D36B12D0CD51CF25E7
:101F1000006ECE51D021016E0050BE25F66E0150EC
:101F2000BF21F76E000EC021F86E0900F5CFD3F285
:101F3000D251CC5D02E1D151CB5D02E3D46B12D022
:101F4000CB51CF25006ECC51D021016E0050BE2563
:101F5000F66E0150BF21F76E000EC021F86E090029
:101F6000F5CFD4F202D0D46BD36BD4C2C3F2C45138
:101F700000081AE2C4510808006E016A000E015AF6
:101F8000D3C2C3F2005004E0C333C39FFF0FFBD79B
:101F9000C4C201F0D4C200F0015004E00036009049
:101FA000FF0FFBD70050C313000EC81902E1C15147
:101FB000C7192DE1C45100082AE2C951B225DF6FCB
:101FC00078EC02F065EC02F065EC02F0C451080810
:101FD000016E026A000E025A01C002F0FF0E016E8D
:101FE000025004E00132019EFF0FFBD701500014A4
:101FF000026EC4C201F0FF0E006E015004E0003614
:102000000090FF0FFBD70050C3170250C313000E00
:10201000C81902E1C251C7192DE1C55100082AE2D1
:10202000C951B225DF6F78EC02F065EC02F065EC87
:1020300002F0C5C202F0FF0E016E025004E001364C
:102040000190FF0FFBD701500014026EC551080824
:10205000006E016A000E015A00C001F0FF0E006E12
:10206000015004E00032009EFF0FFBD70050C31761
:102070000250C313BB51CA5D02E1BA51C95D02E20D
:10208000CF4BD02BC951B225DF6F78EC02F0C3C221
:10209000DFF25EEC02F0C94BCA2B12D7000EC85D0E
:1020A00002E1C651C75D08E2CBC2CDF2CCC2CEF28E
:1020B000BA51CB27BB51CC23C74BC82BF4D6120047
:1020C000A6C2E1FFA7C2E2FF5BC2E6FF5CC2E6FF79
:1020D000A8C2E1FFA9C2E2FF5FC2E6FF60C2E6FF5D
:1020E000AAC2E1FFABC2E2FF59C2E6FF5AC2E6FF55
:1020F000ACC2E1FFADC2E2FF5DC2E6FF5EC2E6FF39
:1021000012000201B26B3F0EB36F010EB46F29ECE7
:102110000AF07B0EB26F010EB36F0C0EB46F030E9C
:10212000B56F010EB66F2CEC0BF0F2EC09F00B0E54
:102130000B6E260E0C6E5D0E0D6E0D2EFED70C2E48
:10214000FCD70B2EFAD700000000B26B3F0EB36F26
:10215000B46B29EC0AF07F0EB26FB36B010EB46F53
:1021600029EC0AF0650EB26F010EB36F0C0EB46F5E
:10217000030EB56F010EB66F2CEC0BF0530EB26F61
:10218000010EB36F0C0EB46F040EB56F010EB66F77
:102190002CEC0BF038DD0B0E0B6E260E0C6E5D0E6C
:1021A0000D6E0D2EFED70C2EFCD70B2EFAD700008D
:1021B000000012007F9CA7C263FFA6C262FF7F9E41
:1021C0007F8061CF00F0120000C008F00B6A0C6A3B
:1021D0009E0E036E0A6A026A016A006A020E0C6EA3
:1021E000FDEC08F01200025006180E6E086A096A2B
:1021F0000B6A03500764E6EF11F006500A6E068E74
:10220000028E03500B6E0750036E000E0B6436EF08
:1022100011F00B50075ED8B4D7EF11F0070E07642A
:10222000A5EF11F0075E00C008F001C000F002C089
:1022300001F0026A074ED7EF11F007647AEF11F050
:10224000075E00C008F001C000F0016A074ED7EF3A
:1022500011F0076458EF11F0075E00C008F0006A43
:10226000074ED7EF11F007643FEF11F00AC002F0FC
:1022700005C001F004C000F0086A03EF13F0030E7C
:1022800007644AEF11F0075E08380F0B086E074E1F
:10229000D7EF11F0D8900832074ED7EF11F0D89051
:1022A0000832074ED7EF11F0D8900832D7EF11F06F
:1022B000030E076469EF11F0075E08380F0B086E14
:1022C0000038F00B082600380F0B006E074ED7EFD2
:1022D00011F0D89000320832074ED7EF11F0D890A5
:1022E00000320832074ED7EF11F0D8900032083292
:1022F000D7EF11F0030E076491EF11F0075E083875
:102300000F0B086E0038F00B082600380F0B006E1C
:102310000138F00B002601380F0B016E074ED7EF86
:1023200011F0D890013200320832074ED7EF11F089
:10233000D890013200320832074ED7EF11F0D89012
:10234000013200320832D7EF11F0030E0764C2EFFA
:1023500011F0075E08380F0B086E0038F00B0826E6
:1023600000380F0B006E0138F00B002601380F0B00
:10237000016E0238F00B012602380F0B026E074E79
:10238000D7EF11F0D8900232013200320832074EF6
:10239000D7EF11F0D8900232013200320832074EE6
:1023A000D7EF11F0D8900232013200320832096AB8
:1023B000000E0EAECBEF12F0081E001E011E021E14
:1023C000082A002201220222CBEF12F00750D8A4E3
:1023D000ECEF11F003EF13F0096A02C00AF0028E6D
:1023E000068E0750035C076ED8B4BEEF12F0070EDE
:1023F00007648CEF12F0075E0450096E0550046EFE
:102400000650056E066A074EBEEF12F0070E07640F
:1024100061EF12F0075E0450096E0550046E056A04
:10242000074EBEEF12F0070E07643FEF12F0075E93
:102430000450096E046A074EBEEF12F0070E0764DF
:1024400026EF12F00AC002F003EF13F0030E076448
:1024500031EF12F0075E09380F0B096E074EBEEF21
:1024600012F0D8900932074EBEEF12F0D890093220
:10247000074EBEEF12F0D8900932BEEF12F0030EF5
:10248000076450EF12F0075E09380F0B096E04382D
:10249000F00B092604380F0B046E074EBEEF12F046
:1024A000D89004320932074EBEEF12F0D8900432B1
:1024B0000932074EBEEF12F0D89004320932BEEF57
:1024C00012F0030E076478EF12F0075E09380F0B65
:1024D000096E0438F00B092604380F0B046E05381A
:1024E000F00B042605380F0B056E074EBEEF12F0F9
:1024F000D890053204320932074EBEEF12F0D89060
:10250000053204320932074EBEEF12F0D890053280
:1025100004320932BEEF12F0030E0764A9EF12F085
:10252000075E09380F0B096E0438F00B09260438D2
:102530000F0B046E0538F00B042605380F0B056EE3
:102540000638F00B052606380F0B066E074EBEEF59
:1025500012F0D8900632053204320932074EBEEF2F
:1025600012F0D8900632053204320932074EBEEF1F
:1025700012F0D8900632053204320932086A000E91
:102580000EAECBEF12F0091E041E051E061E092A10
:102590000422052206220950082604500022055074
:1025A0000122065002220EBEE2EF12F0D8A0F1EF97
:1025B00012F00232013200320832033EF1EF12F023
:1025C000FDEF12F0D8B0F7EF12F0000E081E001E5B
:1025D000011E021E082A0022012202220A7EF7EFB3
:1025E00012F0010E0C6EFDEC08F005EF13F0020E78
:1025F0000C6EFDEC08F005EF13F0040E0C6E12ECFF
:1026000002F005EF13F0000E0C6E12000201A66B33
:10261000A76BA86BA96BAA6BAB6BAC6BAD6BB26B0A
:10262000D5EC0DF00A0EB26F000EB36FB46BB56B44
:102630006C0EB66F000EB76F100EB86F000EB96F4C
:102640006C0EBA6F000EBB6F100EBC6F000EBD6F2C
:10265000330EBE6F720EBF6F000EC06F72EC0EF0C5
:102660008A0EB26F000EB36FB46B030EB56F010E1E
:10267000B66F2CEC0BF02D0EB26F000EB36FB46B77
:10268000040EB56F010EB66F2CEC0BF00A0EB26F94
:10269000000EB36F300EB46F000EB56F180EB66F2C
:1026A000000EB76F100EB86F000EB96F180EBA6F2C
:1026B000000EBB6F100EBC6F000EBD6F7F0EBE6FA5
:1026C000780EBF6F000EC06F72EC0EF05E0EB26F30
:1026D000000EB36F300EB46F000EB56F180EB66FEC
:1026E000000EB76F100EB86F000EB96F180EBA6FEC
:1026F000000EBB6F100EBC6F000EBD6F4F0EBE6F95
:10270000780EBF6F000EC06F72EC0EF03AEC0EF058
:102710000052D8B4A2D0F60EB26F010EB36FF80E0D
:10272000B46F010EB56FF7EC0CF00050000AD8A49E
:1027300094D0000E006E0101F751005C02E1F651E9
:102740000A084AE2000EF75D02E1220EF65D44E25D
:10275000000E006EF951005C02E1F85130083CE2D5
:10276000000EF95D02E1400EF85D36E20201B26B47
:10277000D5EC0DF00A0EB26F000EB36F300EB46FD1
:10278000000EB56F180EB66F000EB76F100EB86F53
:10279000000EB96F180EBA6F000EBB6F100EBC6F33
:1027A000000EBD6F7F0EBE6F780EBF6F000EC06F44
:1027B00072EC0EF0000E416E000E426E7A0E436E09
:1027C000890E446E000E0101066F800E076F1B0E0E
:1027D000086F8D0E096FEED2000E006EF751005C8F
:1027E00002E1F6515E0839E2000EF75D02E1760E75
:1027F000F65D33E2000E006EF951005C02E1F85123
:1028000030082BE2000EF95D02E1400EF85D25E292
:102810000201B26BD5EC0DF05E0EB26F000EB36F1D
:10282000300EB46F000EB56F180EB66F000EB76F96
:10283000100EB86F000EB96F180EBA6F000EBB6F96
:10284000100EBC6F000EBD6F4F0EBE6F780EBF6FC7
:10285000000EC06F72EC0EF001D058D70B0E0B6E4D
:10286000260E0C6E5D0E0D6E0D2EFED70C2EFCD7B7
:102870000B2EFAD7000000005FEC0BF00B0E0B6E76
:10288000260E0C6E5D0E0D6E0D2EFED70C2EFCD797
:102890000B2EFAD7000000005FEC0BF00AC200F02C
:1028A0000BC201F064EC03F000C0A6F201C0A7F275
:1028B00002C0A8F203C0A9F2000E046E7C0E056EE1
:1028C000120E066E920E076E3EEC07F000C0A6F2E6
:1028D00001C0A7F202C0A8F203C0A9F2000E046E64
:1028E000FE0E056E7F0E066E8D0E076ED1EC07F0A4
:1028F00000C0AEF201C0AFF202C0B0F203C0B1F24C
:10290000AEC2A6F2AFC2A7F2B0C2A8F2B1C2A9F29B
:10291000AEC241F0AFC242F0B0C243F0B1C244F027
:10292000AEC204F0AFC205F0B0C206F0B1C207F00B
:10293000C00E006EE10E016E640E026E980E036E04
:10294000D1EC07F000C006F101C007F102C008F1A8
:1029500003C009F1000E046E000E056E200E066E17
:10296000820E076E3EEC07F000C006F101C007F1D1
:1029700002C008F103C009F1AEC200F0AFC201F01D
:10298000B0C202F0B1C203F0A2EC06F000C0AAF29D
:1029900001C0ABF202C0ACF203C0ADF2290E0201DD
:1029A000B26F020EB36F00C0B4F201C0B5F202C044
:1029B000B6F203C0B7F2050EB86F300EB96FA7ECD0
:1029C0000AF0290EB26F000EB36FB46BB56B010E37
:1029D000B66F2CEC0BF0290EB26F020EB36F1E0E09
:1029E000B46FB56B010EB66F2CEC0BF041C004F068
:1029F00042C005F043C006F044C007F0800E006EF0
:102A0000960E016E180E026E950E036ED1EC07F055
:102A100000C0A6F201C0A7F202C0A8F203C0A9F24A
:102A2000A2EC06F000C0AAF201C0ABF202C0ACF208
:102A300003C0ADF2290E0201B26F020EB36F00C0E7
:102A4000B4F201C0B5F202C0B6F203C0B7F2050E8F
:102A5000B86F300EB96FA7EC0AF01D0EB26F000E02
:102A6000B36FB46B010EB56F010EB66F2CEC0BF0AB
:102A7000290EB26F020EB36F1E0EB46F010EB56F4A
:102A8000010EB66F2CEC0BF0A6C200F0A7C201F04D
:102A9000A8C202F0A9C203F07B0E046E140E056EEC
:102AA0002E0E066E7D0E076E3EEC07F000C0A6F2FD
:102AB00001C0A7F202C0A8F203C0A9F2A2EC06F07E
:102AC00000C0AAF201C0ABF202C0ACF203C0ADF28A
:102AD000290EB26F020EB36F00C0B4F201C0B5F29E
:102AE00002C0B6F203C0B7F2050EB86F300EB96F70
:102AF000A7EC0AF0170EB26F000EB36FB46B020EA4
:102B0000B56F010EB66F2CEC0BF0290EB26F020EF2
:102B1000B36F1E0EB46F020EB56F010EB66F2CECC4
:102B20000BF0000E046E000E056E000E066E810E98
:102B3000076EA6C200F0A7C201F0A8C202F0A9C2A7
:102B400003F0D1EC07F000C0A6F201C0A7F202C06A
:102B5000A8F203C0A9F2A2EC06F000C0AAF201C0DC
:102B6000ABF202C0ACF203C0ADF2290E0201B26FAB
:102B7000020EB36F00C0B4F201C0B5F202C0B6F2EB
:102B800003C0B7F2050EB86F300EB96FA7EC0AF0AC
:102B9000230EB26F000EB36FB46B030EB56F010E50
:102BA000B66F2CEC0BF0290EB26F020EB36F1E0E37
:102BB000B46F030EB56F010EB66F2CEC0BF0A6C20E
:102BC00004F0A7C205F0A8C206F0A9C207F0000EE3
:102BD000006E000E016E7A0E026E880E036ED1EC4E
:102BE00007F08FEC08F000C0E5F101C0E6F100C08D
:102BF000E7F101C0E8F1290E0201B26F020EB36FD6
:102C0000E5C1B4F2E6C1B5F2000EB66FB76F050EBE
:102C1000B86F300EB96FA7EC0AF0450EB26F000E18
:102C2000B36FB46B040EB56F010EB66F2CEC0BF0E6
:102C3000290EB26F020EB36F1E0EB46F040EB56F85
:102C4000010EB66F2CEC0BF0290EB26F020EB36FB3
:102C50000AC2B4F20BC2B5F2000EB66FB76F050E22
:102C6000B86F300EB96FA7EC0AF0290EB26F020EE2
:102C7000B36FB46B050EB56F010EB66F2CEC0BF095
:102C800041C000F042C001F043C002F044C003F074
:102C9000A2EC06F000C0AAF201C0ABF202C0ACF296
:102CA00003C0ADF2290EB26F020EB36F00C0B4F2D2
:102CB00001C0B5F202C0B6F203C0B7F2050EB86F9C
:102CC000300EB96FA7EC0AF0290EB26F020EB36F87
:102CD0003C0EB46F050EB56F010EB66F2CEC0BF009
:102CE000330E0B6EBB0E0C6EDF0E0D6E0D2EFED76F
:102CF0000C2EFCD70B2EFAD700000000ABC200F060
:102D0000ACC201F0ADC202F0036A200EB26F000E39
:102D1000B36F00C0B4F28BEC0AF0FF0E0201AA15EB
:102D2000B46F210EB26F000EB36F8BEC0AF006C1C8
:102D300000F007C101F008C102F009C103F0A2ECE4
:102D400006F000C0AAF201C0ABF202C0ACF203C0B0
:102D5000ADF201C004F002C005F003C006F0076A3E
:102D6000220E0201B26F000EB36F04C0B4F28BECFE
:102D70000AF0FF0E0201AA15B46F230EB26F000E07
:102D8000B36F8BEC0AF0300E0201B26F000EB36F1E
:102D9000550EB46F8BEC0AF0330E0B6EBB0E0C6E3F
:102DA000DF0E0D6E0D2EFED70C2EFCD70B2EFAD794
:102DB000000000001200A6C25BF2A7C25CF2A8C22B
:102DC0005FF2A9C260F2AAC259F2ABC25AF2ACC217
:102DD0005DF2ADC25EF21200CB50010F006E016ACF
:102DE000000E01229BC204F0000E056E8BEC02F077
:102DF000060E026E00C004F001C005F0025005E0AE
:102E000005320432059EFF0FFAD7040E016E04C08E
:102E100000F0015004E000360090FF0FFBD7300EA9
:102E20000014036E04C000F005C001F0013200324E
:102E3000019E01320032019E00C0BCFF0F0EBB1686
:102E40000350BB1212009696CA840C0E0F01431356
:102E500012000F01446B4399439B1200020124515D
:102E60002319D8B4F4D023C224F2060EB26F000E98
:102E7000B36F240EB46F000EB56F100EB66F000E58
:102E8000B76F100EB86F000EB96F100EBA6F000E4C
:102E9000BB6F100EBC6F000EBD6FCF0EBE6F780EF5
:102EA000BF6F000EC06F72EC0EF0610EB26F000EBD
:102EB000B36FB46BB56B1F0EB66F000EB76F100E0D
:102EC000B86F000EB96F1F0EBA6F000EBB6F100EF9
:102ED000BC6F000EBD6FB90EBE6F760EBF6F000ED9
:102EE000C06F72EC0EF0000E135D02E1690E125D10
:102EF00009E3000E006E1351005C02E11251A008BC
:102F000001E310D0B26BD5EC0DF0D40EB26F000E11
:102F1000B36F190EB46F030EB56F010EB66F2CECC4
:102F20000BF051D0270EB26F000EB36F1A0EB46FB4
:102F3000000EB56F330EB66F000EB76F0E0EB86F82
:102F4000000EB96F330EBA6F000EBB6F0E0EBC6F62
:102F5000000EBD6F0B0EBE6F730EBF6F000EC06F05
:102F600072EC0EF02C0EB26F000EB36F1D0EB46F2C
:102F7000000EB56F270EB66F000EB76F080EB86F54
:102F8000000EB96F270EBA6F000EBB6F080EBC6F34
:102F9000000EBD6F270E006E000E016E026E036EF6
:102FA00023C204F0000E056E066E076E98EC03F067
:102FB000C60E0024BE6F6D0E0120BF6F000E0220F2
:102FC000C06F72EC0EF07D51010A21E1700EB26FFC
:102FD000000EB36F100EB46F000EB56F100EB66F0B
:102FE000000EB76F280EB86F000EB96F100EBA6FD3
:102FF000000EBB6F280EBC6F000EBD6FD90EBE6FEA
:10300000750EBF6F000EC06F72EC0EF020D0700E08
:10301000B26F000EB36F100EB46F000EB56F100ECE
:10302000B66F000EB76F280EB86F000EB96F100E96
:10303000BA6F000EBB6F280EBC6F000EBD6F290E5D
:10304000BE6F760EBF6F000EC06F72EC0EF0235194
:10305000090803E2090E236F57D02051010A01E14C
:1030600053D023C224F2270EB26F000EB36F1A0E94
:10307000B46F000EB56F330EB66F000EB76F0E0E45
:10308000B86F000EB96F330EBA6F000EBB6F0E0E25
:10309000BC6F000EBD6F0B0EBE6F730EBF6F000EC8
:1030A000C06F72EC0EF02C0EB26F000EB36F1D0EDF
:1030B000B46F000EB56F270EB66F000EB76F080E17
:1030C000B86F000EB96F270EBA6F000EBB6F080EF7
:1030D000BC6F000EBD6F270E006E000E016E026EFB
:1030E000036E23C204F0000E056E066E076E98ECA8
:1030F00003F0C60E0024BE6F6D0E0120BF6F000EE0
:103100000220C06F72EC0EF0120002017851020A28
:103110003FE1020EB26F000EB36FB46BB56B1F0EC2
:10312000B66F000EB76F100EB86F000EB96F1F0E9E
:10313000BA6F000EBB6F100EBC6F000EBD6F730E2A
:10314000BE6F770EBF6F000EC06F72EC0EF0040EF4
:10315000B26F000EB36F120EB46F000EB56F180E83
:10316000B66F000EB76F100EB86F000EB96F180E65
:10317000BA6F000EBB6F100EBC6F000EBD6FEF0E6E
:10318000BE6F770EBF6F000EC06F72EC0EF0E0D016
:103190007851030A3FE1040EB26F000EB36F120EB6
:1031A000B46F000EB56F180EB66F000EB76F100E2D
:1031B000B86F000EB96F180EBA6F000EBB6F100E0D
:1031C000BC6F000EBD6F1F0EBE6F780EBF6F000E7E
:1031D000C06F72EC0EF0020EB26F000EB36FB46BE4
:1031E000B56B1F0EB66F000EB76F100EB86F000EE6
:1031F000B96F1F0EBA6F000EBB6F100EBC6F000EC2
:10320000BD6FB10EBE6F770EBF6F000EC06F72EC58
:103210000EF09ED07851010A3FE1040EB26F000E0D
:10322000B36F120EB46F000EB56F180EB66F000EAE
:10323000B76F100EB86F000EB96F180EBA6F000E90
:10324000BB6F100EBC6F000EBD6F1F0EBE6F780EF1
:10325000BF6F000EC06F72EC0EF0020EB26F000E68
:10326000B36FB46BB56B1F0EB66F000EB76F100E59
:10327000B86F000EB96F1F0EBA6F000EBB6F100E45
:10328000BC6F000EBD6F350EBE6F770EBF6F000EA8
:10329000C06F72EC0EF05CD0040EB26F000EB36F14
:1032A000120EB46F000EB56F180EB66F000EB76F2A
:1032B000100EB86F000EB96F180EBA6F000EBB6F0C
:1032C000100EBC6F000EBD6F1F0EBE6F780EBF6F6D
:1032D000000EC06F72EC0EF0020EB26F000EB36FF4
:1032E000B46BB56B1F0EB66F000EB76F100EB86FD4
:1032F000000EB96F1F0EBA6F000EBB6F100EBC6FC1
:10330000000EBD6FF70EBE6F760EBF6F000EC06F62
:1033100072EC0EF0230EB26F000EB36FB46BB56B90
:10332000070EB66F000EB76F100EB86F000EB96FB4
:10333000070EBA6F000EBB6F100EBC6F000EBD6F94
:103340001E0EBE6F790EBF6F000EC06F72EC0EF0D6
:1033500012000201A66BA76BDAEC10F00050BB0A5A
:1033600077E081EC10F0510EA66F010EA76F790E79
:10337000A86F010EA96F770EAA6F010EAB6F8D0EAD
:10338000AC6F010EAD6F60EC10F052C100F0016A3D
:10339000100EB26F000EB36F00C0B4F28BEC0AF0E7
:1033A000FF0E010151150201B46F110EB26F000E34
:1033B000B36F8BEC0AF07AC100F0016A120E0201C1
:1033C000B26F000EB36F00C0B4F28BEC0AF0FF0EC8
:1033D000010179150201B46F130EB26F000EB36FC5
:1033E0008BEC0AF078C100F0016A140E0201B26F92
:1033F000000EB36F00C0B4F28BEC0AF0FF0E0101B7
:1034000077150201B46F150EB26F000EB36F8BEC1F
:103410000AF08EC100F0016A160E0201B26F000EB2
:10342000B36F00C0B4F28BEC0AF0FF0E01018D15F2
:103430000201B46F170EB26F000EB36F8BEC0AF07F
:103440000201B26BB36BBB0EB46F8BEC0AF083D08E
:10345000100E0201A66F000EA76FDAEC10F000C08C
:1034600051F1000E0101526F51C152F1516B110E19
:103470000201A66F000EA76FDAEC10F000500101F8
:103480005113000E5213120E0201A66F000EA76F09
:10349000DAEC10F000C079F1000E01017A6F79C109
:1034A0007AF1796B130E0201A66F000EA76FDAECAA
:1034B00010F0005001017913000E7A13140E02016E
:1034C000A66F000EA76FDAEC10F000C077F1000EC7
:1034D0000101786F77C178F1776B150E0201A66F45
:1034E000000EA76FDAEC10F0005001017713000E08
:1034F0007813160E0201A66F000EA76FDAEC10F01B
:1035000000C08DF1000E01018E6F8DC18EF18D6BAB
:10351000170E0201A66F000EA76FDAEC10F0000E76
:10352000016E01018D5100128E51011200C08DF10A
:1035300001C08EF151C1A6F252C1A7F279C1A8F221
:103540007AC1A9F277C1AAF278C1ABF200C0ACF29D
:1035500001C0ADF230DC300E0201A66F000EA76F85
:10356000DAEC10F00050550A03E006EC13F0B3D08B
:10357000200E0201A66F000EA76FDAEC10F0E4EC4B
:1035800010F000C041F001C042F002C043F003C09F
:1035900044F0000E046E000E056E7F0E066E860E61
:1035A000076E3EEC07F000C041F001C042F002C0DF
:1035B00043F003C044F0210EA66F000EA76FDAECB3
:1035C00010F0E4EC10F041C004F042C005F043C03C
:1035D00006F044C007F0F3EC10F000C09BF201C00D
:1035E0009CF202C09DF203C09EF29BC241F09CC2BD
:1035F00042F09DC243F09EC244F09BC204F09CC2C4
:1036000005F09DC206F09EC207F0C00E006EE10EEE
:10361000016E640E026E980E036ED1EC07F000C0CE
:1036200006F101C007F102C008F103C009F1000E64
:10363000046E000E056E200E066E820E076E3EECC6
:1036400007F000C006F101C007F102C008F103C095
:1036500009F19BC204F09CC205F09DC206F09EC217
:1036600007F0800E006E960E016E180E026E950E1B
:10367000036ED1EC07F07B0E046E140E056E2E0E59
:10368000066E7D0E076E3EEC07F0000E046E000E17
:10369000056E000E066E810E076ED1EC07F000C0BD
:1036A00004F001C005F002C006F003C007F0000EF0
:1036B000006E000E016E7A0E026E880E036ED1EC63
:1036C00007F08FEC08F000C0E5F101C0E6F100C0A2
:1036D000E7F101C0E8F11200880E0201676F000EE9
:1036E000686FE00E696F020E6A6FC26A0F0EC01239
:1036F000C08EC28012000201436B456B466B969AE6
:103700009698969E969C939A93988D9A956A8D9E7C
:103710008D9C8A9A8A888D8A3F0E836E8DEC00F08C
:10372000C00E836E8DEC00F08A8A8A983F0E836EFD
:103730008DEC00F0C00E836E8DEC00F012000F01D6
:10374000579FF19E8A849384120089988B92929855
:103750009492840E0201406F030E416F9BC239F2B6
:103760009CC23AF29DC23EF29EC23FF29FC23BF221
:10377000A0C244F23C6B3D6B476B486B12009498BF
:1037800094968B988B9694889486C79EC79C380E87
:10379000C66E1200FF0E0201556FFF0E566FFF0E30
:1037A000576FFF0E586F080E4D6F4B0E4E6F000E89
:1037B0004F6F000E506FE20E496F400E4A6F000EC1
:1037C0004B6F000E4C6FFF0E516FFF0E526F000ECD
:1037D000536F000E546FAC8A900EAB6E948E949C17
:1037E0009EAA03D0AECF00F0FBD712009BC240F2DE
:1037F0009CC241F212000201A151000A03E1010E34
:10380000006EBDD0A1C2A3F29BC2D5F29CC2D6F27B
:10381000300ED76FA1C2D8F2000ED96F8DEC06F032
:10382000A1519B25E16E000E9C21E26EE66AA10784
:10383000A1519B25E16E000E9C21E26EA2C2E6FF23
:10384000A107A1C2A3F2A107A051000808E19F515E
:10385000000805E19E51000802E19D51000854E274
:10386000A1519B25A46F000E9C21A56F0A0E046E2A
:10387000000E056E066E076E9DC200F09EC201F03E
:103880009FC202F0A0C203F017EC05F008C000F0E0
:1038900009C001F00AC002F00BC003F0300E002690
:1038A000A4C2E1FFA5C2E2FF00C0E6FF0A0E046E5B
:1038B000000E056E066E076E9DC200F09EC201F0FE
:1038C0009FC202F0A0C203F017EC05F000C09DF209
:1038D00001C09EF202C09FF203C0A0F2A1C201F09B
:1038E000A1070150000A0FE1A051000808E19F5113
:1038F000000805E19E51000802E19D51000803E225
:10390000010E006E3CD0A0D7A3519B25E16E000EA6
:103910009C21E26EA305006E016A000E015A005060
:103920009B25E96E01509C21EA6EEECFE6FFA305D0
:10393000006E016A000E015A00509B25E16E015095
:103940009C21E26E020EA35D006E016A000E015A18
:1039500000509B25E96E01509C21EA6EEECFE6FFF8
:10396000020EA35D006E016A000E015A00509B25F5
:10397000E16E01509C21E26E2E0EE66E006A12008E
:103980000201A151000A03E1010E006E7BD09BC22F
:10399000D5F29CC2D6F2A2C2D7F2A1C2D8F2000ED2
:1039A000D96F8DEC06F0A1519B25E16E000E9C2194
:1039B000E26EE66AA107A1519B25E16E000E9C21F3
:1039C000E26E0A0EE66EA051000808E19F51000861
:1039D00005E19E51000802E19D51000852E2A1510B
:1039E0009B25A36F000E9C21A46F0A0E046E000E8F
:1039F000056E066E076E9DC200F09EC201F09FC26A
:103A000002F0A0C203F017EC05F008C000F009C0F6
:103A100001F00AC002F00BC003F0A3C2E1FFA4C290
:103A2000E2FF00C0E6FF0A0E046E000E056E066E91
:103A3000076E9DC200F09EC201F09FC202F0A0C2BC
:103A400003F017EC05F000C09DF201C09EF202C029
:103A50009FF203C0A0F2A1C201F0A1070150000A29
:103A60000FE1A051000808E19F51000805E19E51B7
:103A7000000802E19D51000803E2010E006E02D031
:103A8000A2D7006A1200086A096A100E0C6E01348F
:103A9000083609360450085E0550D8A0053C095E7A
:103AA000D8B007D0045008260550D8B0053C0926E8
:103AB000D890003601360C2EEAD712000201A1512F
:103AC000000A03E1010E006EA3D0A1C2A3F29BC2C3
:103AD000D5F29CC2D6F2300ED76FA1C2D8F2000E3A
:103AE000D96F8DEC06F0A1519B25E16E000E9C2153
:103AF000E26EE66AA107A1519B25E16E000E9C21B2
:103B0000E26EA2C2E6FFA107A1C2A3F2A107A051E3
:103B1000000808E19F51000805E19E51000802E1FC
:103B20009D51000854E2A1519B25A46F000E9C21D9
:103B3000A56F0A0E046E000E056E066E076E9DC21E
:103B400000F09EC201F09FC202F0A0C203F017EC89
:103B500005F008C000F009C001F00AC002F00BC077
:103B600003F0300E0026A4C2E1FFA5C2E2FF00C0B0
:103B7000E6FF0A0E046E000E056E066E076E9DC20D
:103B800000F09EC201F09FC202F0A0C203F017EC49
:103B900005F000C09DF201C09EF202C09FF203C07A
:103BA000A0F2A1C201F0A1070150000A0FE1A0514B
:103BB000000808E19F51000805E19E51000802E15C
:103BC0009D51000803E2010E006E22D0A0D7A35140
:103BD0009B25E16E000E9C21E26EA305006E016A3A
:103BE000000E015A00509B25E96E01509C21EA6E9F
:103BF000EECFE6FFA305006E016A000E015A0050E9
:103C00009B25E16E01509C21E26E2E0EE66E006A4D
:103C1000120002019B51010A04E18B8A010E796FA7
:103C200009D09B51000A03E18B9A796B03D0010EF6
:103C3000006E0FD0100E0B6E390E0C6E0D0E0D6E49
:103C40000D2EFED70C2EFCD70B2EFAD7000000004D
:103C5000006A12008A8C8A8E02019B51010A02E1DD
:103C60008A9E0AD09B51020A02E18A9C05D09B5190
:103C7000030A02E18A9E8A9C120002019C51010AF9
:103C800013E107D08A820FD08A860DD08A800BD0AC
:103C90000AD09B51010AF6E09B51030AF5E09B51C3
:103CA000020AF4E0F5D716D09C51000A13E107D0C0
:103CB0008A920FD08A960DD08A900BD00AD09B5151
:103CC000010AF6E09B51030AF5E09B51020AF4E079
:103CD000F5D700D012000201936B946B956B966B35
:103CE000020E0B6E040E0C6EBA0E0D6E0D2EFED76C
:103CF0000C2EFCD70B2EFAD70000050EE06F44EC1B
:103D000000F000C093F201C094F2000E0201956F22
:103D1000966F9651000808E19551000805E194510D
:103D2000010802E1935190083CE293C200F094C272
:103D300001F095C202F096C203F0900E005E010EF3
:103D4000015A000E025A035A00C093F201C094F2C5
:103D500002C095F203C096F2640E046E000E056E6A
:103D6000066E076E98EC03F000C093F201C094F267
:103D700002C095F203C096F2C30E046E000E056EEB
:103D8000066E076E17EC05F000C093F201C094F2C6
:103D900002C095F203C096F200C027F201C028F2DB
:103DA00002D0276B286B020E0B6E040E0C6EBA0E3F
:103DB0000D6E0D2EFED70C2EFCD70B2EFAD7000061
:103DC000040EE06F44EC00F000C093F201C094F2E6
:103DD000000E0201956F966F9651000808E195510B
:103DE000000805E19451010802E1935190083CE27A
:103DF00093C200F094C201F095C202F096C203F0A3
:103E0000900E005E010E015A000E025A035A00C0C5
:103E100093F201C094F202C095F203C096F2640ED0
:103E2000046E000E056E066E076E98EC03F000C07F
:103E300093F201C094F202C095F203C096F2C30E51
:103E4000046E000E056E066E076E17EC05F000C0DE
:103E500093F201C094F202C095F203C096F200C042
:103E600025F201C026F202D0256B266B1200FBD092
:103E70000201786B8E868F860001746B736B896B81
:103E80008F880A0E02017E6F010E7B6F26D16F5163
:103E9000040802E16E514C0803E20A0E7B6F02D067
:103EA000020E7B6F1AD18E96010E0001736F030E06
:103EB00002017B6F0A0E7E6F10D17E51000A03E172
:103EC000040E7B6F04D07E05006E00C07EF205D12B
:103ED0007151050802E1705196080AE2140E7B6FD9
:103EE0008F98010E0001896F020E0201786F02D0D7
:103EF0001E0E7B6FF2D07E51000A0AE18E96050EEF
:103F00007E6F010E0001736F0B0E02017B6F04D0F8
:103F10007E05006E00C07EF2E0D07E51000A0CE10A
:103F20008F960A0E7E6F010E0001746F0C0E020157
:103F30007B6F010E786F04D07E05006E00C07EF2AC
:103F4000CCD0040E6F5D02E14C0E6E5D02E2786B28
:103F50007B6BC3D07E51000A09E1150E7B6F8F96F3
:103F60001E0E7E6F010E0001746F0CD002017E05E3
:103F7000006E00C07EF26F51040802E16E514C08E1
:103F8000D8A07B6BAAD002017E51000A06E1160E72
:103F90007B6F8F98FA0E7E6F0BD07E05006E00C08F
:103FA0007EF26F51040802E16E514C08D8A07B6B81
:103FB00094D06F51040802E16E514C0802E27B6B11
:103FC00012D0000E735D02E1020E725D0AE27E51B4
:103FD000000A02E17B6B04D07E05006E00C07EF219
:103FE00002D0FA0E7E6F79D07151020802E1705151
:103FF000BC0805E20A0E7E6F1F0E7B6F01D07B6B43
:104000006CD07E51000A0BE1200E7B6F8F96030E61
:10401000786F640E7E6F010E0001746F05D002018F
:104020007E05006E00C07EF258D002017E51000A6B
:1040300003E1210E7B6F04D07E05006E00C07EF28E
:104040004CD06F51040802E16E514C0802E27B6BC8
:1040500007D0020E715D02E1BC0E705DD8A07B6BD3
:104060003CD07B6B3AD002017B51000AD8B400D718
:104070007B51010AD8B40BD77B51020AD8B413D7AD
:104080007B51030AD8B419D77B51040AD8B420D77E
:104090007B510A0AD8B42FD77B510B0AD8B43DD72D
:1040A0007B510C0AD8B44DD77B51140AD8B452D7DF
:1040B0007B51150AD8B467D77B51160AD8B479D783
:1040C0007B511E0A91E07B511F0A9BE07B51200A25
:1040D000ACE07B51210AB5E0C4D71200949A8B9AC8
:1040E0001200000E9EBA010E006E12000F01199B05
:1040F000199D199F939293909396939C939E8A9265
:104100008A908A968A8C8A8E12000900F5CFE6FF83
:104110000006FBE10106F9E112004CD1060E020196
:10412000E06F44EC00F000C093F201C094F2000E86
:104130000201956F966F93C200F094C201F095C290
:1041400002F096C203F0940E046E000E056E066E29
:10415000076E98EC03F000C093F201C094F202C025
:1041600095F203C096F2070E086E00C004F001C07D
:1041700005F002C006F003C007F0085007E0073260
:10418000063205320432079EFF0FF8D704C093F2BF
:1041900005C094F206C095F207C096F204C06EF214
:1041A00005C06FF20101CB2B16D1070E0201E06FA3
:1041B00044EC00F000C093F201C094F2000E020142
:1041C000956F966F93C200F094C201F095C202F011
:1041D00096C203F0940E046E000E056E066E076E16
:1041E00098EC03F000C093F201C094F202C095F283
:1041F00003C096F2070E086E00C004F001C005F07F
:1042000002C006F003C007F0085007E0073206328C
:1042100005320432079EFF0FF8D704C093F205C0A1
:1042200094F206C095F207C096F204C070F205C081
:1042300071F20101CB2BCFD00B0E0201E06F44ECE9
:1042400000F000C093F201C094F2000E0201956FDD
:10425000966F000E965D08E1000E955D05E1000E7B
:10426000945D02E1780E935D3AE393C200F094C24C
:1042700001F095C202F096C203F0780E005E000EC7
:10428000015A025A035A00C093F201C094F202C0CC
:1042900095F203C096F2770E046E000E056E066E60
:1042A000076E98EC03F000C093F201C094F202C0D4
:1042B00095F203C096F20A0E046E00C093F201C09C
:1042C00094F202C095F203C096F2045007E09633D0
:1042D000953394339333969FFF0FF8D704D0936BA5
:1042E000946B956B966B93C272F294C273F2010158
:1042F000CB2B71D00A0E0201E06F44EC00F000C03D
:1043000093F201C094F2000E0201956F966F000EB9
:10431000965D08E1000E955D05E1000E945D02E1F9
:10432000780E935D3AE393C200F094C201F095C217
:1043300002F096C203F0780E005E000E015A025A97
:10434000035A00C093F201C094F202C095F203C078
:1043500096F2770E046E000E056E066E076E98ECF0
:1043600003F000C093F201C094F202C095F203C0C2
:1043700096F2090E046E00C093F201C094F202C0DE
:1043800095F203C096F2045007E0963395339433C8
:104390009333969FFF0FF8D704D0936B946B956B74
:1043A000966B93C274F294C275F20101CB6B13D079
:1043B000CB6B11D00101CB51000AD8B4AFD6CB5191
:1043C000010AD8B4F2D6CB51020AD8B435D7CB51B2
:1043D000030A90E0EDD712000201936B946B936B8C
:1043E000946B000E135D02E1690E125D09E3000E8D
:1043F000006E1351005C02E11251A00801E303D0EA
:10440000006A016A28D093C200F094C201F000361D
:1044100000900136E30E0024D96E000E0120DA6E02
:10442000DECF01F0DECF02F01351025C02E1125147
:10443000015C03E2934B942BE6D793C200F094C245
:1044400001F0640E046E000E056E8BEC02F000C0ED
:1044500093F201C094F21200020113510101F05DC8
:1044600004E1020112510101EF5D61E3F151F2112A
:104470000BE0010EF15D006E000EF259016E00C0FE
:10448000F1F101C0F2F152D0000E8AB0010E02012A
:104490009B6F9C6B3DEC1EF0150E0B6E4B0E0C6E65
:1044A000BE0E0D6E0D2EFED70C2EFCD70B2EFAD79E
:1044B00000009B6B09EC1EF0010E9B6F9C6B3DECAA
:1044C0001EF0000E8AB6010E9B6F9C6B3DEC1EF039
:1044D000700EB26F000EB36F100EB46F000EB56F9A
:1044E000100EB66F000EB76F280EB86F000EB96FC2
:1044F000100EBA6F000EBB6F280EBC6F000EBD6FA2
:10450000290EBE6F760EBF6F000EC06F72EC0EF0FC
:10451000796B0101FA6B02011A6B1B6B1E6B1F6B2F
:10452000020E9B6F010E9C6F2AEC1EF072D00201EE
:1045300013510101EC5D04E1020112510101EB5D37
:10454000D8B067D0010E0201796F010E9B6F09ECA4
:104550001EF0320E0101F16F000EF26F320EF36F9A
:10456000000EF46F02012851020802E127518A0867
:1045700007E32651020802E125518A0801E30ED023
:10458000010E9B6F010E9C6F3DEC1EF08F86020E9C
:104590009B6F010E9C6F2AEC1EF03BD0010E9B6FAF
:1045A000010E9C6F2AEC1EF0020E285D02E1580EEF
:1045B000275D07E2020E265D02E1580E255DD8A0B8
:1045C0008F962851010802E12751900807E32651F0
:1045D000010802E12551900801E307D0010E9B6F0D
:1045E000010E9C6F3DEC1EF014D0010E285D02E11F
:1045F0005E0E275D0EE2010E265D02E15E0E255D78
:1046000008E27A51000A05E1010E9B6F9C6B3DECBC
:104610001EF012000F01256B246B236B258125836F
:104620009280928292989492969696928D868D829E
:10463000969A8D9A020E0B6E040E0C6EBA0E0D6ECB
:104640000D2EFED70C2EFCD70B2EFAD700008D8A2C
:104650009686E80E02019B6F030E9C6F000E9D6F05
:104660009E6F29EC17F0168D289D02019B6BECECD8
:1046700016F023EC17F09FEC1BF07BEC1BF0B26BF9
:10468000D5EC0DF00F012E9F6CEC1BF0C16ABE0E35
:10469000C06E800E9B6F000E9C6F400E9D6F000ED3
:1046A0009E6F010E9F6FA06BA5EC1BF0A00E9B6F81
:1046B0000F0E9C6FF6EC1BF0929492961200020182
:1046C0002151201905E020C221F2FA0E0001F76FF6
:1046D0000001F75102019319D8B486D093C2F7F0C4
:1046E000020EB26F000EB36F040EB46F000EB56F02
:1046F0007C0EB66F000EB76F380EB86F000EB96F34
:104700007C0EBA6F000EBB6F380EBC6F000EBD6F13
:10471000B60EBE6F660EBF6F000EC06F72EC0EF06D
:10472000AD0EB26F000EB36F050EB46F010EB56F14
:10473000020EB66F2CEC0BF0A00EB26F000EB36F32
:10474000050EB46F020EB56F020EB66F2CEC0BF0B7
:10475000C70EB26F000EB36F050EB46F030EB56FC8
:10476000020EB66F2CEC0BF0BA0EB26F000EB36FE8
:10477000050EB46F040EB56F020EB66F2CEC0BF085
:104780002051010A19E1F90EB26F000EB36F050E48
:10479000B46F050EB56F020EB66F2CEC0BF02B0E3E
:1047A000B26F010EB36F050EB46F060EB56F020E39
:1047B000B66F2CEC0BF018D01E0EB26F010EB36F5B
:1047C000050EB46F050EB56F020EB66F2CEC0BF034
:1047D000380EB26F010EB36F050EB46F060EB56FD3
:1047E000020EB66F2CEC0BF07851010A0FE10A0EA5
:1047F000046E000E056E6EC200F06FC201F043EC55
:104800001DF000C094F201C095F20ED00A0E046EA5
:10481000000E056E70C200F071C201F043EC1DF095
:1048200000C094F201C095F2290E9B6F020E9C6F9E
:1048300094C29DF295C29EF2000E9F6FA06F050E6E
:10484000A16F560EA26F5EEC1DF0290EB26F020E24
:10485000B36F4B0EB46F010EB56F010EB66F2CEC3B
:104860000BF072C200F073C201F094C204F095C262
:1048700005F08BEC02F0640E046E000E056E43EC46
:104880001DF0290EB26F020EB36F00C0B4F201C06A
:10489000B5F2000EB66FB76F030EB86F300EB96F7A
:1048A000A7EC0AF0570E2C6F2D6B290EB26F020E7B
:1048B000B36F4B0EB46F020EB56F010EB66F2CECDA
:1048C0000BF07CC200F0000E016E00360090013645
:1048D000120E0024E96E010E0120EA6EEECFB2F254
:1048E000EECFB3F24B0EB46F030EB56F010EB66F81
:1048F0002CEC0BF012C294F213C295F2290E9B6FAE
:10490000020E9C6F12C29DF213C29EF2000E9F6FA8
:10491000A06F050EA16F560EA26F5EEC1DF0290E62
:10492000B26F020EB36F4B0EB46F040EB56F010E73
:10493000B66F2CEC0BF00A0EB26F010EB36F4B0E7C
:10494000B46F050EB56F010EB66F2CEC0BF00AC2FA
:1049500000F00BC201F064EC03F006C104F007C1E3
:1049600005F008C106F009C107F03EEC07F0000EA3
:10497000046EFE0E056E7F0E066E8D0E076ED1EC78
:1049800007F08FEC08F000C094F201C095F2290EF8
:1049900002019B6F020E9C6F14C29DF215C29EF223
:1049A000000E9F6FA06F060EA16F410EA26FFBEC71
:1049B0001BF0290EB26F020EB36F4B0EB46F060ED2
:1049C000B56F010EB66F2CEC0BF012000201B26B4A
:1049D000D5EC0DF0630E246F85EC18F02EEC17F07B
:1049E000FF0E0001F76F120082D0230E0201B26F9A
:1049F000000EB36FB46BB56B070EB66F000EB76FDA
:104A0000100EB86F000EB96F070EBA6F000EBB6FB5
:104A1000100EBC6F000EBD6F1E0EBE6F790EBF6F05
:104A2000000EC06F72EC0EF06ED00201230EB26F5A
:104A3000000EB36FB46BB56B070EB66F000EB76F99
:104A4000100EB86F000EB96F070EBA6F000EBB6F75
:104A5000100EBC6F000EBD6F2C0EBE6F790EBF6FB7
:104A6000000EC06F72EC0EF04ED00201230EB26F3A
:104A7000000EB36FB46BB56B070EB66F000EB76F59
:104A8000100EB86F000EB96F070EBA6F000EBB6F35
:104A9000100EBC6F000EBD6F1E0EBE6F790EBF6F85
:104AA000000EC06F72EC0EF02ED00201230EB26F1A
:104AB000000EB36FB46BB56B070EB66F000EB76F19
:104AC000100EB86F000EB96F070EBA6F000EBB6FF5
:104AD000100EBC6F000EBD6F2C0EBE6F790EBF6F37
:104AE000000EC06F72EC0EF00001F86B0CD00001EC
:104AF000F851010AD8B479D7F851020A96E0F85172
:104B0000030AB3E0D2D71200AECF01F0ABA202D0BD
:104B1000AB98AB8801C000F01200928A978E0F010B
:104B2000258B2589120002019551000AD8A4F7D0DF
:104B3000000E006E9451005C02E193516408D8A00D
:104B4000EDD0960E9B6F020E9C6F93C29DF294C2A5
:104B50009EF2000E9F6FA06F030EA16F0A0EA26F50
:104B6000C0EC1CF0310EB26F000EB36F0A0EB46FC2
:104B7000000EB56F080EB66F000EB76F100EB86F4F
:104B8000000EB96F080EBA6F000EBB6F100EBC6F2F
:104B9000000EBD6F040E046E96C200F0000E016E92
:104BA000026E036E045007E00036009001360236B4
:104BB0000336FF0FF8D7730E0024BE6F6F0E01206F
:104BC000BF6F000E0220C06F72EC0EF0390EB26F94
:104BD000000EB36F0A0EB46F000EB56F080EB66FFD
:104BE000000EB76F100EB86F000EB96F080EBA6FD7
:104BF000000EBB6F100EBC6F000EBD6F040E046E76
:104C000097C200F0000E016E026E036E045007E0C2
:104C100000360090013602360336FF0FF8D7730EC8
:104C20000024BE6F6F0E0120BF6F000E0220C06F08
:104C300072EC0EF0410EB26F000EB36F0A0EB46F3D
:104C4000000EB56F080EB66F000EB76F100EB86F7E
:104C5000000EB96F080EBA6F000EBB6F100EBC6F5E
:104C6000000EBD6F040E046E98C200F0000E016EBF
:104C7000026E036E045007E00036009001360236E3
:104C80000336FF0FF8D7730E0024BE6F6F0E01209E
:104C9000BF6F000E0220C06F72EC0EF0490EB26FB3
:104CA000000EB36F0A0EB46F000EB56F080EB66F2C
:104CB000000EB76F100EB86F000EB96F080EBA6F06
:104CC000000EBB6F100EBC6F000EBD6F330EBE6FBB
:104CD000700EBF6F000EC06F72EC0EF0510EB26F0F
:104CE000000EB36F0A0EB46F000EB56F080EB66FEC
:104CF000000EB76F100EB86F000EB96F080EBA6FC6
:104D0000000EBB6F100EBC6F000EBD6F130EBE6F9A
:104D1000700EBF6F000EC06F72EC0EF011D1955186
:104D2000010AD8A40DD1960E9B6F020E9C6F93C200
:104D30009DF294C29EF2000E9F6FA06F030EA16FB2
:104D40000A0EA26FC0EC1CF0310EB26F000EB36FF2
:104D50000A0EB46F000EB56F080EB66F000EB76F77
:104D6000100EB86F000EB96F080EBA6F000EBB6F51
:104D7000100EBC6F000EBD6F130EBE6F700EBF6FB6
:104D8000000EC06F72EC0EF02C0EB26F000EB36FFF
:104D90000A0EB46F000EB56F080EB66F000EB76F37
:104DA000100EB86F000EB96F080EBA6F000EBB6F11
:104DB000100EBC6F000EBD6F040E046E96C200F0A4
:104DC000000E016E026E036E045007E00036009084
:104DD000013602360336FF0FF8D7730E0024BE6F7C
:104DE0006F0E0120BF6F000E0220C06F72EC0EF03C
:104DF000340EB26F000EB36F0A0EB46F000EB56FB3
:104E0000080EB66F000EB76F100EB86F000EB96FB8
:104E1000080EBA6F000EBB6F100EBC6F000EBD6F98
:104E2000040E046E97C200F0000E016E026E036E57
:104E3000045007E000360090013602360336FF0FBB
:104E4000F8D7730E0024BE6F6F0E0120BF6F000EE7
:104E50000220C06F72EC0EF03C0EB26F000EB36F0A
:104E60000A0EB46F000EB56F080EB66F000EB76F66
:104E7000100EB86F000EB96F080EBA6F000EBB6F40
:104E8000100EBC6F000EBD6F230EBE6F700EBF6F95
:104E9000000EC06F72EC0EF0440EB26F000EB36FD6
:104EA0000A0EB46F000EB56F080EB66F000EB76F26
:104EB000100EB86F000EB96F080EBA6F000EBB6F00
:104EC000100EBC6F000EBD6F040E046E98C200F091
:104ED000000E016E026E036E045007E00036009073
:104EE000013602360336FF0FF8D7730E0024BE6F6B
:104EF0006F0E0120BF6F000E0220C06F72EC0EF02B
:104F00004C0EB26F000EB36F0A0EB46F000EB56F89
:104F1000080EB66F000EB76F100EB86F000EB96FA7
:104F2000080EBA6F000EBB6F100EBC6F000EBD6F87
:104F3000430EBE6F700EBF6F000EC06F72EC0EF0AE
:104F400012008E868F868B848F888F908D9098909C
:104F50009690978C978A98989896948094940F013D
:104F6000248724859782978497969788258D258F07
:104F7000948ECF0EAF6EAC84CAEC1BF01200640EA0
:104F80000201936FA9EC19F00201B26BD5EC0DF0A0
:104F90000A0EB26F000EB36FB46BB56B6C0EB66FCA
:104FA000000EB76F100EB86F000EB96F6C0EBA6FAF
:104FB000000EBB6F100EBC6F000EBD6F330EBE6FC8
:104FC000720EBF6F000EC06F72EC0EF0750EB26FF6
:104FD000000EB36FB46B030EB56F010EB66F2CEC01
:104FE0000BF0690EB26F000EB36FB46B040EB56FA9
:104FF000010EB66F2CEC0BF00A0EB26F000EB36F01
:10500000300EB46F000EB56F180EB66F000EB76F8E
:10501000100EB86F000EB96F180EBA6F000EBB6F8E
:10502000100EBC6F000EBD6F7F0EBE6F780EBF6F8F
:10503000000EC06F72EC0EF05E0EB26F000EB36F1A
:10504000300EB46F000EB56F180EB66F000EB76F4E
:10505000100EB86F000EB96F180EBA6F000EBB6F4E
:10506000100EBC6F000EBD6F4F0EBE6F780EBF6F7F
:10507000000EC06F72EC0EF03AEC0EF00052D8B495
:1050800093D0F60EB26F010EB36FF80EB46F010E2F
:10509000B56FF7EC0CF00050000AD8A485D0000ED4
:1050A000006E0101F751005C02E1F6510A083AE294
:1050B000000EF75D02E1220EF65D34E2000E006E96
:1050C000F951005C02E1F85130082CE2000EF95D64
:1050D00002E1400EF85D26E20201B26BD5EC0DF064
:1050E0000A0EB26F000EB36F300EB46F000EB56FC4
:1050F000180EB66F000EB76F100EB86F000EB96FB6
:10510000180EBA6F000EBB6F100EBC6F000EBD6F95
:105110007F0EBE6F780EBF6F000EC06F72EC0EF088
:10512000B6EF2DF0000E006E0101F751005C02E1B8
:10513000F6515E0839E2000EF75D02E1760EF65D8B
:1051400033E2000E006EF951005C02E1F8513008C4
:105150002BE2000EF95D02E1400EF85D25E202014E
:10516000B26BD5EC0DF05E0EB26F000EB36F300E69
:10517000B46F000EB56F180EB66F000EB76F100E3D
:10518000B86F000EB96F180EBA6F000EBB6F100E1D
:10519000BC6F000EBD6F4F0EBE6F780EBF6F000E5E
:1051A000C06F72EC0EF001D067D7060E0B6E130EB7
:1051B0000C6EAD0E0D6E02010D2EFDD70C2EFBD721
:1051C0000B2EF9D700000000B26BD5EC0DF00A0EE3
:1051D000B26F000EB36FB46BB56B6C0EB66F000E92
:1051E000B76F100EB86F000EB96F6C0EBA6F000E6D
:1051F000BB6F100EBC6F000EBD6F5B0EBE6F710EED
:10520000BF6F000EC06F72EC0EF00A0EB26F000E90
:10521000B36F100EB46F000EB56F2C0EB66F000E8C
:10522000B76F0F0EB86F000EB96F2C0EBA6F000E6D
:10523000BB6F0F0EBC6F000EBD6F790EBE6F740E8C
:10524000BF6F000EC06F72EC0EF0490EB26F000E11
:10525000B36F100EB46F000EB56F2C0EB66F000E4C
:10526000B76F0F0EB86F000EB96F2C0EBA6F000E2D
:10527000BB6F0F0EBC6F000EBD6F810EBE6F750E43
:10528000BF6F000EC06F72EC0EF00A0EB26F000E10
:10529000B36F200EB46F000EB56F2C0EB66F000EFC
:1052A000B76F0F0EB86F000EB96F2C0EBA6F000EED
:1052B000BB6F0F0EBC6F000EBD6F290EBE6F750E5B
:1052C000BF6F000EC06F72EC0EF0490EB26F000E91
:1052D000B36F200EB46F000EB56F2C0EB66F000EBC
:1052E000B76F0F0EB86F000EB96F2C0EBA6F000EAD
:1052F000BB6F0F0EBC6F000EBD6FD10EBE6F740E74
:10530000BF6F000EC06F72EC0EF00A0EB26F000E8F
:10531000B36F300EB46F000EB56F2C0EB66F000E6B
:10532000B76F0F0EB86F000EB96F2C0EBA6F000E6C
:10533000BB6F0F0EBC6F000EBD6F710EBE6F730E94
:10534000BF6F000EC06F72EC0EF0490EB26F000E10
:10535000B36F300EB46F000EB56F2C0EB66F000E2B
:10536000B76F0F0EB86F000EB96F2C0EBA6F000E2C
:10537000BB6F0F0EBC6F000EBD6FC90EBE6F730EFC
:10538000BF6F000EC06F72EC0EF03AEC0EF00052E0
:10539000D8B4A5D1F60EB26F010EB36FF80EB46F8C
:1053A000010EB56FF7EC0CF00050000AD8A497D1AD
:1053B000000E006E0101F751005C02E1F6510A088F
:1053C0003CE2000EF75D02E1360EF65D36E2000EBD
:1053D000006EF951005C02E1F85110082EE2000E57
:1053E000F95D02E11F0EF85D28E20201B26BD5EC17
:1053F0000DF00A0EB26F000EB36F100EB46F000EF8
:10540000B56F2C0EB66F000EB76F0F0EB86F000E93
:10541000B96F2C0EBA6F000EBB6F0F0EBC6F000E73
:10542000BD6F790EBE6F740EBF6F000EC06F72EC51
:105430000EF0010E0101F56F53D1000E006EF75111
:10544000005C02E1F65149083CE2000EF75D02E122
:10545000750EF65D36E2000E006EF951005C02E159
:10546000F85110082EE2000EF95D02E11F0EF85D02
:1054700028E20201B26BD5EC0DF0490EB26F000EBE
:10548000B36F100EB46F000EB56F2C0EB66F000E1A
:10549000B76F0F0EB86F000EB96F2C0EBA6F000EFB
:1054A000BB6F0F0EBC6F000EBD6F810EBE6F750E11
:1054B000BF6F000EC06F72EC0EF0020E0101F56FAF
:1054C0000FD1000E006EF751005C02E1F6510A08A0
:1054D0003BE2000EF75D02E1360EF65D35E2000EAE
:1054E000006EF951005C02E1F85120082DE2000E37
:1054F000F95D02E12F0EF85D27E20201B26BD5ECF7
:105500000DF00A0EB26F000EB36F200EB46F000ED6
:10551000B56F2C0EB66F000EB76F0F0EB86F000E82
:10552000B96F2C0EBA6F000EBB6F0F0EBC6F000E62
:10553000BD6F290EBE6F750EBF6F000EC06F72EC8F
:105540000EF00101F56BCCD0000E006EF751005C3F
:1055500002E1F65149083CE2000EF75D02E1750EEA
:10556000F65D36E2000E006EF951005C02E1F85182
:1055700020082EE2000EF95D02E12F0EF85D28E210
:105580000201B26BD5EC0DF0490EB26F000EB36F95
:10559000200EB46F000EB56F2C0EB66F000EB76FF5
:1055A0000F0EB86F000EB96F2C0EBA6F000EBB6FE6
:1055B0000F0EBC6F000EBD6FD10EBE6F740EBF6FAD
:1055C000000EC06F72EC0EF0040E0101F56F88D072
:1055D000000E006EF751005C02E1F6510A083CE251
:1055E000000EF75D02E1360EF65D36E2000E006E4B
:1055F000F951005C02E1F85130082EE2000EF95D2D
:1056000002E13F0EF85D28E20201B26BD5EC0DF02D
:105610000A0EB26F000EB36F300EB46F000EB56F8E
:105620002C0EB66F000EB76F0F0EB86F000EB96F6D
:105630002C0EBA6F000EBB6F0F0EBC6F000EBD6F4D
:10564000710EBE6F730EBF6F000EC06F72EC0EF066
:10565000030E0101F56F44D0000E006EF751005C9F
:1056600002E1F65149083BE2000EF75D02E1750EDA
:10567000F65D35E2000E006EF951005C02E1F85172
:1056800030082DE2000EF95D02E13F0EF85D27E2E1
:105690000201B26BD5EC0DF0490EB26F000EB36F84
:1056A000300EB46F000EB56F2C0EB66F000EB76FD4
:1056B0000F0EB86F000EB96F2C0EBA6F000EBB6FD5
:1056C0000F0EBC6F000EBD6FC90EBE6F730EBF6FA5
:1056D000000EC06F72EC0EF00101F56B01D055D6D3
:1056E000060E0B6E130E0C6EAD0E0D6E0D2EFED74C
:1056F0000C2EFCD70B2EFAD7000000000201B26B73
:10570000D5EC0DF00A0EB26F000EB36FB46BB56B33
:105710006C0EB66F000EB76F100EB86F000EB96F3B
:105720006C0EBA6F000EBB6F100EBC6F000EBD6F1B
:10573000830EBE6F700EBF6F000EC06F72EC0EF066
:105740001B0EB26F000EB36F1B0EB46F000EB56F61
:10575000100EB66F000EB76F100EB86F000EB96F57
:10576000100EBA6F000EBB6F100EBC6F000EBD6F37
:10577000EF0EBE6F780EBF6F000EC06F72EC0EF0B2
:10578000300EB26F000EB36F1B0EB46F000EB56F0C
:10579000200EB66F000EB76F100EB86F000EB96F07
:1057A000200EBA6F000EBB6F100EBC6F000EBD6FE7
:1057B000790EBE6F760EBF6F000EC06F72EC0EF0EA
:1057C000550EB26F000EB36F1B0EB46F000EB56FA7
:1057D000100EB66F000EB76F100EB86F000EB96FD7
:1057E000100EBA6F000EBB6F100EBC6F000EBD6FB7
:1057F000AF0EBE6F780EBF6F000EC06F72EC0EF072
:105800000A0EB26F000EB36F300EB46F000EB56F9C
:105810002C0EB66F000EB76F0F0EB86F000EB96F7B
:105820002C0EBA6F000EBB6F0F0EBC6F000EBD6F5B
:10583000C90EBE6F730EBF6F000EC06F72EC0EF01C
:10584000490EB26F000EB36F300EB46F000EB56F1D
:105850002C0EB66F000EB76F0F0EB86F000EB96F3B
:105860002C0EBA6F000EBB6F0F0EBC6F000EBD6F1B
:10587000210EBE6F740EBF6F000EC06F72EC0EF083
:10588000290EB26F020EB36F93C2B4F2000EB56F61
:10589000B66FB76F030EB86F300EB96FA7EC0AF092
:1058A000290EB26F020EB36F370EB46F040EB56FD0
:1058B000020EB66F2CEC0BF03AEC0EF00052D8B49E
:1058C0004FD1F60EB26F010EB36FF80EB46F010E2A
:1058D000B56FF7EC0CF00050000AD8A441D1000ECF
:1058E000006E0101F751005C02E1F6511B084AE22B
:1058F000000EF75D02E12B0EF65D44E2000E006E35
:10590000F951005C02E1F85118083CE2000EF95D23
:1059100002E1280EF85D36E20A0E0201935D016E87
:1059200001C093F23C0E015C02E23C0E936F290E23
:10593000B26F020EB36F93C2B4F2000EB56FB66FC2
:10594000B76F030EB86F300EB96FA7EC0AF0290ECF
:10595000B26F020EB36F370EB46F040EB56F010E47
:10596000B66F2CEC0BF0060E0B6E130E0C6EAD0E1C
:105970000D6E0D2EFED70C2EFCD70B2EFAD7000085
:105980000000EED0000E006E0101F751005C02E154
:10599000F65155084AE2000EF75D02E1650EF65D2C
:1059A00044E2000E006EF951005C02E1F851180863
:1059B0003CE2000EF95D02E1280EF85D36E20A0EC7
:1059C00002019325016E01C093F20150A00802E28A
:1059D000A00E936F290EB26F020EB36F93C2B4F292
:1059E000000EB56FB66FB76F030EB86F300EB96F9C
:1059F000A7EC0AF0290EB26F020EB36F370EB46F28
:105A0000040EB56F010EB66F2CEC0BF0060E0B6E8C
:105A1000130E0C6EAD0E0D6E0D2EFED70C2EFCD798
:105A20000B2EFAD7000000009BD0000E006E010183
:105A3000F751005C02E1F6510A0842E2000EF75D00
:105A400002E1360EF65D3CE2000E006EF951005C9C
:105A500002E1F851300834E2000EF95D02E13F0E38
:105A6000F85D2EE2640E0201936F290EB26F020EF2
:105A7000B36F640EB46F000EB56FB66FB76F030EE1
:105A8000B86F300EB96FA7EC0AF0290EB26F020E94
:105A9000B36F370EB46F040EB56F010EB66F2CECFA
:105AA0000BF0060E0B6E130E0C6EAD0E0D6E0D2E62
:105AB000FED70C2EFCD70B2EFAD70000000050D0DA
:105AC000000E006E0101F751005C02E1F651490839
:105AD00047E2000EF75D02E1750EF65D41E2000E51
